{
  "abi": [
    {
      "inputs": [
        {
          "internalType": "contract IBondAggregator",
          "name": "aggregator_",
          "type": "address"
        },
        {
          "internalType": "contract IBondTeller",
          "name": "teller_",
          "type": "address"
        },
        {
          "internalType": "address",
          "name": "guardian_",
          "type": "address"
        },
        {
          "internalType": "contract Authority",
          "name": "authority_",
          "type": "address"
        }
      ],
      "stateMutability": "nonpayable",
      "type": "constructor"
    },
    {
      "inputs": [],
      "name": "Auctioneer_AmountLessThanMinimum",
      "type": "error"
    },
    {
      "inputs": [],
      "name": "Auctioneer_BadExpiration",
      "type": "error"
    },
    {
      "inputs": [],
      "name": "Auctioneer_InitialPriceLessThanMin",
      "type": "error"
    },
    {
      "inputs": [],
      "name": "Auctioneer_InvalidCallback",
      "type": "error"
    },
    {
      "inputs": [],
      "name": "Auctioneer_InvalidParams",
      "type": "error"
    },
    {
      "inputs": [
        {
          "internalType": "uint256",
          "name": "conclusion_",
          "type": "uint256"
        }
      ],
      "name": "Auctioneer_MarketConcluded",
      "type": "error"
    },
    {
      "inputs": [],
      "name": "Auctioneer_MaxPayoutExceeded",
      "type": "error"
    },
    {
      "inputs": [],
      "name": "Auctioneer_NewMarketsNotAllowed",
      "type": "error"
    },
    {
      "inputs": [],
      "name": "Auctioneer_NotAuthorized",
      "type": "error"
    },
    {
      "inputs": [],
      "name": "Auctioneer_NotEnoughCapacity",
      "type": "error"
    },
    {
      "inputs": [],
      "name": "Auctioneer_OnlyMarketOwner",
      "type": "error"
    },
    {
      "anonymous": false,
      "inputs": [
        {
          "indexed": true,
          "internalType": "address",
          "name": "user",
          "type": "address"
        },
        {
          "indexed": true,
          "internalType": "contract Authority",
          "name": "newAuthority",
          "type": "address"
        }
      ],
      "name": "AuthorityUpdated",
      "type": "event"
    },
    {
      "anonymous": false,
      "inputs": [
        {
          "indexed": true,
          "internalType": "uint256",
          "name": "id",
          "type": "uint256"
        }
      ],
      "name": "MarketClosed",
      "type": "event"
    },
    {
      "anonymous": false,
      "inputs": [
        {
          "indexed": true,
          "internalType": "uint256",
          "name": "id",
          "type": "uint256"
        },
        {
          "indexed": true,
          "internalType": "address",
          "name": "payoutToken",
          "type": "address"
        },
        {
          "indexed": true,
          "internalType": "address",
          "name": "quoteToken",
          "type": "address"
        },
        {
          "indexed": false,
          "internalType": "uint48",
          "name": "vesting",
          "type": "uint48"
        },
        {
          "indexed": false,
          "internalType": "uint256",
          "name": "initialPrice",
          "type": "uint256"
        }
      ],
      "name": "MarketCreated",
      "type": "event"
    },
    {
      "anonymous": false,
      "inputs": [
        {
          "indexed": true,
          "internalType": "address",
          "name": "user",
          "type": "address"
        },
        {
          "indexed": true,
          "internalType": "address",
          "name": "newOwner",
          "type": "address"
        }
      ],
      "name": "OwnerUpdated",
      "type": "event"
    },
    {
      "anonymous": false,
      "inputs": [
        {
          "indexed": true,
          "internalType": "uint256",
          "name": "id",
          "type": "uint256"
        },
        {
          "indexed": false,
          "internalType": "uint256",
          "name": "oldControlVariable",
          "type": "uint256"
        },
        {
          "indexed": false,
          "internalType": "uint256",
          "name": "newControlVariable",
          "type": "uint256"
        }
      ],
      "name": "Tuned",
      "type": "event"
    },
    {
      "inputs": [
        {
          "internalType": "uint256",
          "name": "",
          "type": "uint256"
        }
      ],
      "name": "adjustments",
      "outputs": [
        {
          "internalType": "uint256",
          "name": "change",
          "type": "uint256"
        },
        {
          "internalType": "uint48",
          "name": "lastAdjustment",
          "type": "uint48"
        },
        {
          "internalType": "uint48",
          "name": "timeToAdjusted",
          "type": "uint48"
        },
        {
          "internalType": "bool",
          "name": "active",
          "type": "bool"
        }
      ],
      "stateMutability": "view",
      "type": "function"
    },
    {
      "inputs": [],
      "name": "allowNewMarkets",
      "outputs": [
        {
          "internalType": "bool",
          "name": "",
          "type": "bool"
        }
      ],
      "stateMutability": "view",
      "type": "function"
    },
    {
      "inputs": [],
      "name": "authority",
      "outputs": [
        {
          "internalType": "contract Authority",
          "name": "",
          "type": "address"
        }
      ],
      "stateMutability": "view",
      "type": "function"
    },
    {
      "inputs": [
        {
          "internalType": "address",
          "name": "",
          "type": "address"
        }
      ],
      "name": "callbackAuthorized",
      "outputs": [
        {
          "internalType": "bool",
          "name": "",
          "type": "bool"
        }
      ],
      "stateMutability": "view",
      "type": "function"
    },
    {
      "inputs": [
        {
          "internalType": "uint256",
          "name": "id_",
          "type": "uint256"
        }
      ],
      "name": "closeMarket",
      "outputs": [],
      "stateMutability": "nonpayable",
      "type": "function"
    },
    {
      "inputs": [
        {
          "components": [
            {
              "internalType": "contract ERC20",
              "name": "payoutToken",
              "type": "address"
            },
            {
              "internalType": "contract ERC20",
              "name": "quoteToken",
              "type": "address"
            },
            {
              "internalType": "address",
              "name": "callbackAddr",
              "type": "address"
            },
            {
              "internalType": "bool",
              "name": "capacityInQuote",
              "type": "bool"
            },
            {
              "internalType": "uint256",
              "name": "capacity",
              "type": "uint256"
            },
            {
              "internalType": "uint256",
              "name": "formattedInitialPrice",
              "type": "uint256"
            },
            {
              "internalType": "uint256",
              "name": "formattedMinimumPrice",
              "type": "uint256"
            },
            {
              "internalType": "uint32",
              "name": "debtBuffer",
              "type": "uint32"
            },
            {
              "internalType": "uint48",
              "name": "vesting",
              "type": "uint48"
            },
            {
              "internalType": "uint48",
              "name": "conclusion",
              "type": "uint48"
            },
            {
              "internalType": "uint32",
              "name": "depositInterval",
              "type": "uint32"
            },
            {
              "internalType": "int8",
              "name": "scaleAdjustment",
              "type": "int8"
            }
          ],
          "internalType": "struct IBondAuctioneer.MarketParams",
          "name": "params_",
          "type": "tuple"
        }
      ],
      "name": "createMarket",
      "outputs": [
        {
          "internalType": "uint256",
          "name": "",
          "type": "uint256"
        }
      ],
      "stateMutability": "nonpayable",
      "type": "function"
    },
    {
      "inputs": [
        {
          "internalType": "uint256",
          "name": "id_",
          "type": "uint256"
        }
      ],
      "name": "currentCapacity",
      "outputs": [
        {
          "internalType": "uint256",
          "name": "",
          "type": "uint256"
        }
      ],
      "stateMutability": "view",
      "type": "function"
    },
    {
      "inputs": [
        {
          "internalType": "uint256",
          "name": "id_",
          "type": "uint256"
        }
      ],
      "name": "currentControlVariable",
      "outputs": [
        {
          "internalType": "uint256",
          "name": "",
          "type": "uint256"
        }
      ],
      "stateMutability": "view",
      "type": "function"
    },
    {
      "inputs": [
        {
          "internalType": "uint256",
          "name": "id_",
          "type": "uint256"
        }
      ],
      "name": "currentDebt",
      "outputs": [
        {
          "internalType": "uint256",
          "name": "",
          "type": "uint256"
        }
      ],
      "stateMutability": "view",
      "type": "function"
    },
    {
      "inputs": [],
      "name": "defaultTuneAdjustment",
      "outputs": [
        {
          "internalType": "uint32",
          "name": "",
          "type": "uint32"
        }
      ],
      "stateMutability": "view",
      "type": "function"
    },
    {
      "inputs": [],
      "name": "defaultTuneInterval",
      "outputs": [
        {
          "internalType": "uint32",
          "name": "",
          "type": "uint32"
        }
      ],
      "stateMutability": "view",
      "type": "function"
    },
    {
      "inputs": [],
      "name": "getAggregator",
      "outputs": [
        {
          "internalType": "contract IBondAggregator",
          "name": "",
          "type": "address"
        }
      ],
      "stateMutability": "view",
      "type": "function"
    },
    {
      "inputs": [
        {
          "internalType": "uint256",
          "name": "id_",
          "type": "uint256"
        }
      ],
      "name": "getMarketInfoForPurchase",
      "outputs": [
        {
          "internalType": "address",
          "name": "owner",
          "type": "address"
        },
        {
          "internalType": "address",
          "name": "callbackAddr",
          "type": "address"
        },
        {
          "internalType": "contract ERC20",
          "name": "payoutToken",
          "type": "address"
        },
        {
          "internalType": "contract ERC20",
          "name": "quoteToken",
          "type": "address"
        },
        {
          "internalType": "uint48",
          "name": "vesting",
          "type": "uint48"
        },
        {
          "internalType": "uint256",
          "name": "maxPayout",
          "type": "uint256"
        }
      ],
      "stateMutability": "view",
      "type": "function"
    },
    {
      "inputs": [],
      "name": "getTeller",
      "outputs": [
        {
          "internalType": "contract IBondTeller",
          "name": "",
          "type": "address"
        }
      ],
      "stateMutability": "view",
      "type": "function"
    },
    {
      "inputs": [
        {
          "internalType": "uint256",
          "name": "id_",
          "type": "uint256"
        }
      ],
      "name": "isInstantSwap",
      "outputs": [
        {
          "internalType": "bool",
          "name": "",
          "type": "bool"
        }
      ],
      "stateMutability": "view",
      "type": "function"
    },
    {
      "inputs": [
        {
          "internalType": "uint256",
          "name": "id_",
          "type": "uint256"
        }
      ],
      "name": "isLive",
      "outputs": [
        {
          "internalType": "bool",
          "name": "",
          "type": "bool"
        }
      ],
      "stateMutability": "view",
      "type": "function"
    },
    {
      "inputs": [
        {
          "internalType": "uint256",
          "name": "id_",
          "type": "uint256"
        }
      ],
      "name": "marketPrice",
      "outputs": [
        {
          "internalType": "uint256",
          "name": "",
          "type": "uint256"
        }
      ],
      "stateMutability": "view",
      "type": "function"
    },
    {
      "inputs": [
        {
          "internalType": "uint256",
          "name": "id_",
          "type": "uint256"
        }
      ],
      "name": "marketScale",
      "outputs": [
        {
          "internalType": "uint256",
          "name": "",
          "type": "uint256"
        }
      ],
      "stateMutability": "view",
      "type": "function"
    },
    {
      "inputs": [
        {
          "internalType": "uint256",
          "name": "",
          "type": "uint256"
        }
      ],
      "name": "markets",
      "outputs": [
        {
          "internalType": "address",
          "name": "owner",
          "type": "address"
        },
        {
          "internalType": "contract ERC20",
          "name": "payoutToken",
          "type": "address"
        },
        {
          "internalType": "contract ERC20",
          "name": "quoteToken",
          "type": "address"
        },
        {
          "internalType": "address",
          "name": "callbackAddr",
          "type": "address"
        },
        {
          "internalType": "bool",
          "name": "capacityInQuote",
          "type": "bool"
        },
        {
          "internalType": "uint256",
          "name": "capacity",
          "type": "uint256"
        },
        {
          "internalType": "uint256",
          "name": "totalDebt",
          "type": "uint256"
        },
        {
          "internalType": "uint256",
          "name": "minPrice",
          "type": "uint256"
        },
        {
          "internalType": "uint256",
          "name": "maxPayout",
          "type": "uint256"
        },
        {
          "internalType": "uint256",
          "name": "sold",
          "type": "uint256"
        },
        {
          "internalType": "uint256",
          "name": "purchased",
          "type": "uint256"
        },
        {
          "internalType": "uint256",
          "name": "scale",
          "type": "uint256"
        }
      ],
      "stateMutability": "view",
      "type": "function"
    },
    {
      "inputs": [
        {
          "internalType": "uint256",
          "name": "id_",
          "type": "uint256"
        },
        {
          "internalType": "address",
          "name": "referrer_",
          "type": "address"
        }
      ],
      "name": "maxAmountAccepted",
      "outputs": [
        {
          "internalType": "uint256",
          "name": "",
          "type": "uint256"
        }
      ],
      "stateMutability": "view",
      "type": "function"
    },
    {
      "inputs": [
        {
          "internalType": "uint256",
          "name": "",
          "type": "uint256"
        }
      ],
      "name": "metadata",
      "outputs": [
        {
          "internalType": "uint48",
          "name": "lastTune",
          "type": "uint48"
        },
        {
          "internalType": "uint48",
          "name": "lastDecay",
          "type": "uint48"
        },
        {
          "internalType": "uint32",
          "name": "length",
          "type": "uint32"
        },
        {
          "internalType": "uint32",
          "name": "depositInterval",
          "type": "uint32"
        },
        {
          "internalType": "uint32",
          "name": "tuneInterval",
          "type": "uint32"
        },
        {
          "internalType": "uint32",
          "name": "tuneAdjustmentDelay",
          "type": "uint32"
        },
        {
          "internalType": "uint32",
          "name": "debtDecayInterval",
          "type": "uint32"
        },
        {
          "internalType": "uint256",
          "name": "tuneIntervalCapacity",
          "type": "uint256"
        },
        {
          "internalType": "uint256",
          "name": "tuneBelowCapacity",
          "type": "uint256"
        },
        {
          "internalType": "uint256",
          "name": "lastTuneDebt",
          "type": "uint256"
        }
      ],
      "stateMutability": "view",
      "type": "function"
    },
    {
      "inputs": [],
      "name": "minDebtBuffer",
      "outputs": [
        {
          "internalType": "uint32",
          "name": "",
          "type": "uint32"
        }
      ],
      "stateMutability": "view",
      "type": "function"
    },
    {
      "inputs": [],
      "name": "minDebtDecayInterval",
      "outputs": [
        {
          "internalType": "uint32",
          "name": "",
          "type": "uint32"
        }
      ],
      "stateMutability": "view",
      "type": "function"
    },
    {
      "inputs": [],
      "name": "minDepositInterval",
      "outputs": [
        {
          "internalType": "uint32",
          "name": "",
          "type": "uint32"
        }
      ],
      "stateMutability": "view",
      "type": "function"
    },
    {
      "inputs": [],
      "name": "minMarketDuration",
      "outputs": [
        {
          "internalType": "uint32",
          "name": "",
          "type": "uint32"
        }
      ],
      "stateMutability": "view",
      "type": "function"
    },
    {
      "inputs": [
        {
          "internalType": "uint256",
          "name": "",
          "type": "uint256"
        }
      ],
      "name": "newOwners",
      "outputs": [
        {
          "internalType": "address",
          "name": "",
          "type": "address"
        }
      ],
      "stateMutability": "view",
      "type": "function"
    },
    {
      "inputs": [],
      "name": "owner",
      "outputs": [
        {
          "internalType": "address",
          "name": "",
          "type": "address"
        }
      ],
      "stateMutability": "view",
      "type": "function"
    },
    {
      "inputs": [
        {
          "internalType": "uint256",
          "name": "id_",
          "type": "uint256"
        }
      ],
      "name": "ownerOf",
      "outputs": [
        {
          "internalType": "address",
          "name": "",
          "type": "address"
        }
      ],
      "stateMutability": "view",
      "type": "function"
    },
    {
      "inputs": [
        {
          "internalType": "uint256",
          "name": "amount_",
          "type": "uint256"
        },
        {
          "internalType": "uint256",
          "name": "id_",
          "type": "uint256"
        },
        {
          "internalType": "address",
          "name": "referrer_",
          "type": "address"
        }
      ],
      "name": "payoutFor",
      "outputs": [
        {
          "internalType": "uint256",
          "name": "",
          "type": "uint256"
        }
      ],
      "stateMutability": "view",
      "type": "function"
    },
    {
      "inputs": [
        {
          "internalType": "uint256",
          "name": "id_",
          "type": "uint256"
        }
      ],
      "name": "pullOwnership",
      "outputs": [],
      "stateMutability": "nonpayable",
      "type": "function"
    },
    {
      "inputs": [
        {
          "internalType": "uint256",
          "name": "id_",
          "type": "uint256"
        },
        {
          "internalType": "uint256",
          "name": "amount_",
          "type": "uint256"
        },
        {
          "internalType": "uint256",
          "name": "minAmountOut_",
          "type": "uint256"
        }
      ],
      "name": "purchaseBond",
      "outputs": [
        {
          "internalType": "uint256",
          "name": "payout",
          "type": "uint256"
        }
      ],
      "stateMutability": "nonpayable",
      "type": "function"
    },
    {
      "inputs": [
        {
          "internalType": "uint256",
          "name": "id_",
          "type": "uint256"
        },
        {
          "internalType": "address",
          "name": "newOwner_",
          "type": "address"
        }
      ],
      "name": "pushOwnership",
      "outputs": [],
      "stateMutability": "nonpayable",
      "type": "function"
    },
    {
      "inputs": [
        {
          "internalType": "bool",
          "name": "status_",
          "type": "bool"
        }
      ],
      "name": "setAllowNewMarkets",
      "outputs": [],
      "stateMutability": "nonpayable",
      "type": "function"
    },
    {
      "inputs": [
        {
          "internalType": "contract Authority",
          "name": "newAuthority",
          "type": "address"
        }
      ],
      "name": "setAuthority",
      "outputs": [],
      "stateMutability": "nonpayable",
      "type": "function"
    },
    {
      "inputs": [
        {
          "internalType": "address",
          "name": "creator_",
          "type": "address"
        },
        {
          "internalType": "bool",
          "name": "status_",
          "type": "bool"
        }
      ],
      "name": "setCallbackAuthStatus",
      "outputs": [],
      "stateMutability": "nonpayable",
      "type": "function"
    },
    {
      "inputs": [
        {
          "internalType": "uint32[6]",
          "name": "defaults_",
          "type": "uint32[6]"
        }
      ],
      "name": "setDefaults",
      "outputs": [],
      "stateMutability": "nonpayable",
      "type": "function"
    },
    {
      "inputs": [
        {
          "internalType": "uint256",
          "name": "id_",
          "type": "uint256"
        },
        {
          "internalType": "uint32[3]",
          "name": "intervals_",
          "type": "uint32[3]"
        }
      ],
      "name": "setIntervals",
      "outputs": [],
      "stateMutability": "nonpayable",
      "type": "function"
    },
    {
      "inputs": [
        {
          "internalType": "address",
          "name": "newOwner",
          "type": "address"
        }
      ],
      "name": "setOwner",
      "outputs": [],
      "stateMutability": "nonpayable",
      "type": "function"
    },
    {
      "inputs": [
        {
          "internalType": "uint256",
          "name": "",
          "type": "uint256"
        }
      ],
      "name": "terms",
      "outputs": [
        {
          "internalType": "uint256",
          "name": "controlVariable",
          "type": "uint256"
        },
        {
          "internalType": "uint256",
          "name": "maxDebt",
          "type": "uint256"
        },
        {
          "internalType": "uint48",
          "name": "vesting",
          "type": "uint48"
        },
        {
          "internalType": "uint48",
          "name": "conclusion",
          "type": "uint48"
        }
      ],
      "stateMutability": "view",
      "type": "function"
    }
  ],
  "bytecode": {
    "object": "0x60c06040523480156200001157600080fd5b50604051620042a8380380620042a883398101604081905262000034916200013d565b600080546001600160a01b03199081166001600160a01b0385811691821784556001805490931690851617909155604051869286928692869284928492909133917f8292fce18fa69edf4db7b94ea2e58241df0ae57f97e0a6c9b29067028bf92d769190a36040516001600160a01b0382169033907fa3396fd7f6e0a21b50e5089d2da70d5ac0a3bbbd1f617a93f134b7638998019890600090a3505050506001600160a01b039081166080521660a0525050600980546001600160c01b0319167527100001518000000e100003f48000000e100001518017905550506007805460ff19166001179055620001a5565b6001600160a01b03811681146200013a57600080fd5b50565b600080600080608085870312156200015457600080fd5b8451620001618162000124565b6020860151909450620001748162000124565b6040860151909350620001878162000124565b60608601519092506200019a8162000124565b939692955090935050565b60805160a0516140c1620001e760003960008181610510015281816118ae01528181611b390152611bec01526000818161035b01526123ad01526140c16000f3fe608060405234801561001057600080fd5b50600436106102ad5760003560e01c8063acc5570c1161017b578063bf7e214f116100d8578063d9ccdc931161008c578063e3684e3911610071578063e3684e39146109af578063e922067314610aed578063ea0aca3314610b0957600080fd5b8063d9ccdc931461098c578063e007fa971461099c57600080fd5b8063c7bf8ca0116100bd578063c7bf8ca014610935578063d204068714610948578063d2bee3231461096857600080fd5b8063bf7e214f146108a2578063c0aa0e8a146108c257600080fd5b8063bc3b2b121161012f578063bcf6cde811610114578063bcf6cde814610869578063bd1f3a5e1461087c578063bf48582b1461088f57600080fd5b8063bc3b2b12146107d2578063bcb296671461085657600080fd5b8063afa9d3b011610160578063afa9d3b0146106a1578063b1283e77146106ae578063bbbdd95a146107bf57600080fd5b8063acc5570c14610534578063ae4180951461068e57600080fd5b80635f77274e116102295780638973082c116101dd5780638da5cb5b116101c25780638da5cb5b146104cb578063946824cd146104eb5780639787d1071461050e57600080fd5b80638973082c1461047b5780638b098db3146104b857600080fd5b80636729a41e1161020e5780636729a41e1461041f578063699e17d9146104555780637a9e5e4b1461046857600080fd5b80635f77274e146103d65780636352211e146103e957600080fd5b806327507458116102805780633ad59dbc116102655780633ad59dbc146103595780633adec5a7146103a05780635dc4d16b146103b357600080fd5b80632750745814610323578063380b5bb11461034657600080fd5b80630a9d85eb146102b257806310b05317146102d857806313af4035146102ed5780631c063a6c14610300575b600080fd5b6102c56102c0366004613b62565b610b21565b6040519081526020015b60405180910390f35b6102eb6102e6366004613b62565b610b53565b005b6102eb6102fb366004613bad565b610c0e565b6102c561030e366004613b62565b60009081526002602052604090206004015490565b610336610331366004613b62565b610d17565b60405190151581526020016102cf565b6102c5610354366004613c81565b610d60565b7f00000000000000000000000000000000000000000000000000000000000000005b60405173ffffffffffffffffffffffffffffffffffffffff90911681526020016102cf565b6102c56103ae366004613b62565b610d6b565b6103366103c1366004613bad565b60086020526000908152604090205460ff1681565b6102eb6103e4366004613d58565b610dce565b61037b6103f7366004613b62565b60009081526002602052604090205473ffffffffffffffffffffffffffffffffffffffff1690565b61037b61042d366004613b62565b60066020526000908152604090205473ffffffffffffffffffffffffffffffffffffffff1681565b6102eb610463366004613d75565b610e93565b6102eb610476366004613bad565b6112cf565b6009546104a39074010000000000000000000000000000000000000000900463ffffffff1681565b60405163ffffffff90911681526020016102cf565b6103366104c6366004613b62565b61142c565b60005461037b9073ffffffffffffffffffffffffffffffffffffffff1681565b6102c56104f9366004613b62565b6000908152600260205260409020600a015490565b7f000000000000000000000000000000000000000000000000000000000000000061037b565b610638610542366004613b62565b6000818152600260208181526040808420815161018081018352815473ffffffffffffffffffffffffffffffffffffffff90811680835260018401548216838701819052848801548316848701819052600380870154948516606087018190527401000000000000000000000000000000000000000090950460ff1615156080870152600487015460a0870152600587015460c0870152600687015460e08701526007870154610100870190815260088801546101208801526009880154610140880152600a90970154610160909601959095529989529290955292909520909301549251919590949265ffffffffffff169190565b6040805173ffffffffffffffffffffffffffffffffffffffff97881681529587166020870152938616938501939093529316606083015265ffffffffffff909216608082015260a081019190915260c0016102cf565b6102eb61069c366004613b62565b611462565b6007546103369060ff1681565b6107456106bc366004613b62565b600260208190526000918252604090912080546001820154928201546003830154600484015460058501546006860154600787015460088801546009890154600a9099015473ffffffffffffffffffffffffffffffffffffffff9889169a891699978916988716977401000000000000000000000000000000000000000090970460ff1696908c565b6040805173ffffffffffffffffffffffffffffffffffffffff9d8e1681529b8d1660208d0152998c16998b0199909952999096166060890152931515608088015260a087019290925260c086015260e0850152610100840152610120830152610140820192909252610160810191909152610180016102cf565b6102eb6107cd366004613da8565b6114cb565b6108256107e0366004613b62565b6005602052600090815260409020805460019091015465ffffffffffff8082169166010000000000008104909116906c01000000000000000000000000900460ff1684565b6040516102cf949392919093845265ffffffffffff9283166020850152911660408301521515606082015260800190565b6102c5610864366004613b62565b6115b5565b6102eb610877366004613de1565b6115dc565b6102eb61088a366004613e06565b61168c565b6102c561089d366004613e8b565b611860565b60015461037b9073ffffffffffffffffffffffffffffffffffffffff1681565b6109076108d0366004613b62565b60036020526000908152604090208054600182015460029092015490919065ffffffffffff80821691660100000000000090041684565b60408051948552602085019390935265ffffffffffff918216928401929092521660608201526080016102cf565b6102c5610943366004613de1565b6119b2565b6009546104a3906c01000000000000000000000000900463ffffffff1681565b6009546104a390700100000000000000000000000000000000900463ffffffff1681565b6009546104a39063ffffffff1681565b6102c56109aa366004613ec4565b611bd2565b610a876109bd366004613b62565b600460205260009081526040902080546001820154600283015460039093015465ffffffffffff80841694660100000000000085049091169363ffffffff6c0100000000000000000000000082048116947001000000000000000000000000000000008304821694740100000000000000000000000000000000000000008404831694780100000000000000000000000000000000000000000000000085048416947c0100000000000000000000000000000000000000000000000000000000900490931692908a565b6040805165ffffffffffff9b8c1681529a90991660208b015263ffffffff978816988a01989098529486166060890152928516608088015290841660a08701529290921660c085015260e0840191909152610100830152610120820152610140016102cf565b6009546104a39068010000000000000000900463ffffffff1681565b6009546104a390640100000000900463ffffffff1681565b600080610b2d83611e69565b5050600084815260036020526040902054909150610b4c908290613f1f565b9392505050565b60008181526006602052604090205473ffffffffffffffffffffffffffffffffffffffff163314610bb0576040517f2c47703200000000000000000000000000000000000000000000000000000000815260040160405180910390fd5b600090815260066020908152604080832054600290925290912080547fffffffffffffffffffffffff00000000000000000000000000000000000000001673ffffffffffffffffffffffffffffffffffffffff909216919091179055565b610c3c336000357fffffffff0000000000000000000000000000000000000000000000000000000016611f44565b610ca7576040517f08c379a000000000000000000000000000000000000000000000000000000000815260206004820152600c60248201527f554e415554484f52495a4544000000000000000000000000000000000000000060448201526064015b60405180910390fd5b600080547fffffffffffffffffffffffff00000000000000000000000000000000000000001673ffffffffffffffffffffffffffffffffffffffff83169081178255604051909133917f8292fce18fa69edf4db7b94ea2e58241df0ae57f97e0a6c9b29067028bf92d769190a350565b60008181526002602052604081206004015415801590610d5a575060008281526003602052604090206002015442660100000000000090910465ffffffffffff16115b92915050565b6000610d5a82612055565b600080610d9c610d7a846115b5565b6000858152600260205260409020600a0154610d9586610b21565b9190612d23565b6000848152600260205260409020600601549091508111610d5a57600083815260026020526040902060060154610b4c565b610dfc336000357fffffffff0000000000000000000000000000000000000000000000000000000016611f44565b610e62576040517f08c379a000000000000000000000000000000000000000000000000000000000815260206004820152600c60248201527f554e415554484f52495a454400000000000000000000000000000000000000006044820152606401610c9e565b600780547fffffffffffffffffffffffffffffffffffffffffffffffffffffffffffffff0016911515919091179055565b610ea06020820182613f36565b63ffffffff161580610ec55750610ebd6040820160208301613f36565b63ffffffff16155b80610ee35750610edb6060820160408301613f36565b63ffffffff16155b15610f1a576040517f3b596f5f00000000000000000000000000000000000000000000000000000000815260040160405180910390fd5b610f2a6040820160208301613f36565b63ffffffff16610f3d6020830183613f36565b63ffffffff161015610f7b576040517f3b596f5f00000000000000000000000000000000000000000000000000000000815260040160405180910390fd5b60008281526004602090815260409091208054909170010000000000000000000000000000000090910463ffffffff1690610fb890840184613f36565b63ffffffff161015610ff6576040517f3b596f5f00000000000000000000000000000000000000000000000000000000815260040160405180910390fd5b60095468010000000000000000900463ffffffff1661101b6060840160408501613f36565b63ffffffff161015611059576040517f3b596f5f00000000000000000000000000000000000000000000000000000000815260040160405180910390fd5b600083815260026020818152604092839020835161018081018552815473ffffffffffffffffffffffffffffffffffffffff908116808352600184015482169483019490945293820154841694810194909452600381015492831660608501527401000000000000000000000000000000000000000090920460ff1615156080840152600482015460a0840152600582015460c0840152600682015460e0840152600782015461010084015260088201546101208401526009820154610140840152600a90910154610160830152331461115f576040517f4e1c8b5d00000000000000000000000000000000000000000000000000000000815260040160405180910390fd5b61116c6020840184613f36565b825463ffffffff9190911674010000000000000000000000000000000000000000027fffffffffffffffff00000000ffffffffffffffffffffffffffffffffffffffff90911617825561120a6111c56020850185613f36565b60008681526003602052604090206002015463ffffffff91909116906111fe9042906601000000000000900465ffffffffffff16613f1f565b60a08401519190612d23565b600183015561121f6040840160208501613f36565b825463ffffffff919091167801000000000000000000000000000000000000000000000000027fffffffff00000000ffffffffffffffffffffffffffffffffffffffffffffffff90911617825561127c6060840160408501613f36565b825463ffffffff919091167c0100000000000000000000000000000000000000000000000000000000027bffffffffffffffffffffffffffffffffffffffffffffffffffffffff90911617909155505050565b60005473ffffffffffffffffffffffffffffffffffffffff163314806113b257506001546040517fb70096130000000000000000000000000000000000000000000000000000000081523360048201523060248201526000357fffffffff0000000000000000000000000000000000000000000000000000000016604482015273ffffffffffffffffffffffffffffffffffffffff9091169063b700961390606401602060405180830381865afa15801561138e573d6000803e3d6000fd5b505050506040513d601f19601f820116820180604052508101906113b29190613f51565b6113bb57600080fd5b600180547fffffffffffffffffffffffff00000000000000000000000000000000000000001673ffffffffffffffffffffffffffffffffffffffff831690811790915560405133907fa3396fd7f6e0a21b50e5089d2da70d5ac0a3bbbd1f617a93f134b7638998019890600090a350565b60008181526003602052604081206002015465ffffffffffff16635dba240081111561145b5742811115610b4c565b1592915050565b60008181526002602052604090205473ffffffffffffffffffffffffffffffffffffffff1633146114bf576040517f4e1c8b5d00000000000000000000000000000000000000000000000000000000815260040160405180910390fd5b6114c881612df0565b50565b6114f9336000357fffffffff0000000000000000000000000000000000000000000000000000000016611f44565b61155f576040517f08c379a000000000000000000000000000000000000000000000000000000000815260206004820152600c60248201527f554e415554484f52495a454400000000000000000000000000000000000000006044820152606401610c9e565b73ffffffffffffffffffffffffffffffffffffffff91909116600090815260086020526040902080547fffffffffffffffffffffffffffffffffffffffffffffffffffffffffffffff0016911515919091179055565b60006115c082612e74565b600083815260026020526040902060050154610d5a9190613f1f565b60008281526002602052604090205473ffffffffffffffffffffffffffffffffffffffff163314611639576040517f4e1c8b5d00000000000000000000000000000000000000000000000000000000815260040160405180910390fd5b60009182526006602052604090912080547fffffffffffffffffffffffff00000000000000000000000000000000000000001673ffffffffffffffffffffffffffffffffffffffff909216919091179055565b6116ba336000357fffffffff0000000000000000000000000000000000000000000000000000000016611f44565b611720576040517f08c379a000000000000000000000000000000000000000000000000000000000815260206004820152600c60248201527f554e415554484f52495a454400000000000000000000000000000000000000006044820152606401610c9e565b805160098054602084015160408501516060860151608087015160a09097015163ffffffff90811674010000000000000000000000000000000000000000029181166c0100000000000000000000000002938116640100000000029681167fffffffffffffffffffffffffffffffffffffffffffffffff000000000000000090951694909417959095177fffffffffffffffffffffffffffffffff0000000000000000ffffffffffffffff1690831668010000000000000000027fffffffffffffffffffffffffffffffff00000000ffffffffffffffffffffffff1617177fffffffffffffffff0000000000000000ffffffffffffffffffffffffffffffff169316700100000000000000000000000000000000027fffffffffffffffff00000000ffffffffffffffffffffffffffffffffffffffff1692909217179055565b6040517fb88c914800000000000000000000000000000000000000000000000000000000815273ffffffffffffffffffffffffffffffffffffffff8281166004830152600091829161192e917f00000000000000000000000000000000000000000000000000000000000000009091169063b88c914890602401602060405180830381865afa1580156118f7573d6000803e3d6000fd5b505050506040513d601f19601f8201168201806040525081019061191b9190613f6e565b869065ffffffffffff16620186a0612d23565b6000858152600260205260408120600a01549192509061195b9061195187610d6b565b610d95858a613f1f565b6000868152600260205260409020600701549091508111156119a9576040517f5c430eae00000000000000000000000000000000000000000000000000000000815260040160405180910390fd5b9150610b4c9050565b6000828152600260208181526040808420815161018081018352815473ffffffffffffffffffffffffffffffffffffffff9081168252600183015481169482019490945293810154831691840191909152600381015491821660608401527401000000000000000000000000000000000000000090910460ff1615156080830152600481015460a0830152600581015460c0830152600681015460e0830152600781015461010083015260088101546101208301526009810154610140830152600a015461016082015281611a8685610d6b565b905060008260800151611aae5761016083015160a0840151611aa9918490612d23565b611ab4565b8260a001515b90506000611ad783856101600151866101000151612d239092919063ffffffff16565b90506000818310611ae85781611aea565b825b6040517fb88c914800000000000000000000000000000000000000000000000000000000815273ffffffffffffffffffffffffffffffffffffffff8981166004830152919250600091611bb9917f00000000000000000000000000000000000000000000000000000000000000009091169063b88c914890602401602060405180830381865afa158015611b82573d6000803e3d6000fd5b505050506040513d601f19601f82011682018060405250810190611ba69190613f6e565b839065ffffffffffff16620186a0612d23565b9050611bc58183613f8b565b9998505050505050505050565b60003373ffffffffffffffffffffffffffffffffffffffff7f00000000000000000000000000000000000000000000000000000000000000001614611c43576040517f2c47703200000000000000000000000000000000000000000000000000000000815260040160405180910390fd5b600084815260026020818152604080842060038352938190208151608081018352815481526001820154938101939093529092015465ffffffffffff80821693830193909352660100000000000090048216606082018190529091429190821610611cea5760608201516040517f07fc4a7000000000000000000000000000000000000000000000000000000000815265ffffffffffff9091166004820152602401610c9e565b6000611cf7888842612fe5565b9550905085851015611d35576040517f74ec9d5b00000000000000000000000000000000000000000000000000000000815260040160405180910390fd5b8360070154851115611d73576040517f5c430eae00000000000000000000000000000000000000000000000000000000815260040160405180910390fd5b600384015474010000000000000000000000000000000000000000900460ff16611da35783600401548511611dab565b836004015487115b15611de2576040517ff3383dc900000000000000000000000000000000000000000000000000000000815260040160405180910390fd5b600384015474010000000000000000000000000000000000000000900460ff16611e0c5784611e0e565b865b600485018054919091039055600584018054860190819055600985018054890190556008850180548701905560208401511015611e5357611e4e88612df0565b611e5e565b611e5e88838361332d565b505050509392505050565b600081815260056020908152604080832081516080810183528154815260019091015465ffffffffffff8082169483019490945266010000000000008104909316918101919091526c0100000000000000000000000090910460ff1615156060820181905282918291611ee757600080600093509350935050611f3d565b6020810151611ef69042613fa3565b9250806040015165ffffffffffff168365ffffffffffff1610915081611f1d578051611f39565b60408101518151611f399165ffffffffffff8087169116612d23565b9350505b9193909250565b60015460009073ffffffffffffffffffffffffffffffffffffffff16801580159061202857506040517fb700961300000000000000000000000000000000000000000000000000000000815273ffffffffffffffffffffffffffffffffffffffff85811660048301523060248301527fffffffff000000000000000000000000000000000000000000000000000000008516604483015282169063b700961390606401602060405180830381865afa158015612004573d6000803e3d6000fd5b505050506040513d601f19601f820116820180604052508101906120289190613f51565b8061204d575060005473ffffffffffffffffffffffffffffffffffffffff8581169116145b949350505050565b60075460009060ff16612094576040517f64be3ffa00000000000000000000000000000000000000000000000000000000815260040160405180910390fd5b6000826000015173ffffffffffffffffffffffffffffffffffffffff1663313ce5676040518163ffffffff1660e01b8152600401602060405180830381865afa1580156120e5573d6000803e3d6000fd5b505050506040513d601f19601f820116820180604052508101906121099190613fca565b90506000836020015173ffffffffffffffffffffffffffffffffffffffff1663313ce5676040518163ffffffff1660e01b8152600401602060405180830381865afa15801561215c573d6000803e3d6000fd5b505050506040513d601f19601f820116820180604052508101906121809190613fca565b905060068260ff161080612197575060128260ff16115b156121ce576040517f3b596f5f00000000000000000000000000000000000000000000000000000000815260040160405180910390fd5b60068160ff1610806121e3575060128160ff16115b1561221a576040517f3b596f5f00000000000000000000000000000000000000000000000000000000815260040160405180910390fd5b7fffffffffffffffffffffffffffffffffffffffffffffffffffffffffffffffe884610160015160000b12806122585750601884610160015160000b135b1561228f576040517f3b596f5f00000000000000000000000000000000000000000000000000000000815260040160405180910390fd5b3360009081526008602052604090205460ff161580156122c85750604084015173ffffffffffffffffffffffffffffffffffffffff1615155b156122ff576040517f2c47703200000000000000000000000000000000000000000000000000000000815260040160405180910390fd5b5050600082610160015160240160ff16600a0a90508260c001518360a001511015612356576040517f4496547d00000000000000000000000000000000000000000000000000000000815260040160405180910390fd5b825160208401516040517fb435914300000000000000000000000000000000000000000000000000000000815273ffffffffffffffffffffffffffffffffffffffff928316600482015290821660248201526000917f0000000000000000000000000000000000000000000000000000000000000000169063b4359143906044016020604051808303816000875af11580156123f6573d6000803e3d6000fd5b505050506040513d601f19601f8201168201806040525081019061241a9190613fed565b90506000804286610120015165ffffffffffff166124389190613f1f565b60095490925063ffffffff70010000000000000000000000000000000090910481169083161080612489575060095461014087015163ffffffff6c0100000000000000000000000090920482169116105b156124c0576040517f3b596f5f00000000000000000000000000000000000000000000000000000000815260040160405180910390fd5b600086610140015160056124d49190614006565b60095490915063ffffffff8083166801000000000000000090920416116124fb5780612511565b60095468010000000000000000900463ffffffff165b6009546101408901519193506000916125699163ffffffff9081169116116125415760095463ffffffff16612548565b8861014001515b63ffffffff168563ffffffff168a60800151612d239092919063ffffffff16565b60408051610140808201835265ffffffffffff4216808352602083015263ffffffff808916938301939093528b018051831660608301526009549051939450909260808401929182169116116125c75760095463ffffffff166125ce565b8961014001515b63ffffffff9081168252600954640100000000900481166020830152851660408201526060810183905260808a81015191019061260c908490613f1f565b815260200161264a8563ffffffff168763ffffffff168c60600151612635578c60800151610d95565b60a08d015160808e0151610d95918d90612d23565b90526000868152600460209081526040808320845181549386015192860151606080880151608089015160a08a015160c08b015165ffffffffffff9687167fffffffffffffffffffffffffffffffffffffffff000000000000000000000000909a169990991766010000000000009690981695909502969096177fffffffffffffffffffffffff0000000000000000ffffffffffffffffffffffff166c0100000000000000000000000063ffffffff948516027fffffffffffffffffffffffff00000000ffffffffffffffffffffffffffffffff161770010000000000000000000000000000000091841691909102177fffffffff0000000000000000ffffffffffffffffffffffffffffffffffffffff1674010000000000000000000000000000000000000000958316959095027fffffffff00000000ffffffffffffffffffffffffffffffffffffffffffffffff1694909417780100000000000000000000000000000000000000000000000092821692909202919091177bffffffffffffffffffffffffffffffffffffffffffffffffffffffff167c0100000000000000000000000000000000000000000000000000000000919094160292909217825560e0840151600183015561010084015160028301556101209093015160039091015590890151909250829150819061284757886080015161285c565b60a089015160808a015161285c918990612d23565b90506128758163ffffffff8087169088811690612d2316565b925061289d89610140015163ffffffff168663ffffffff1683612d239092919063ffffffff16565b9150506040518061018001604052803373ffffffffffffffffffffffffffffffffffffffff168152602001896000015173ffffffffffffffffffffffffffffffffffffffff168152602001896020015173ffffffffffffffffffffffffffffffffffffffff168152602001896040015173ffffffffffffffffffffffffffffffffffffffff168152602001896060015115158152602001896080015181526020018381526020018960c0015181526020018281526020016000815260200160008152602001878152506002600087815260200190815260200160002060008201518160000160006101000a81548173ffffffffffffffffffffffffffffffffffffffff021916908373ffffffffffffffffffffffffffffffffffffffff16021790555060208201518160010160006101000a81548173ffffffffffffffffffffffffffffffffffffffff021916908373ffffffffffffffffffffffffffffffffffffffff16021790555060408201518160020160006101000a81548173ffffffffffffffffffffffffffffffffffffffff021916908373ffffffffffffffffffffffffffffffffffffffff16021790555060608201518160030160006101000a81548173ffffffffffffffffffffffffffffffffffffffff021916908373ffffffffffffffffffffffffffffffffffffffff16021790555060808201518160030160146101000a81548160ff02191690831515021790555060a0820151816004015560c0820151816005015560e0820151816006015561010082015181600701556101208201518160080155610140820151816009015561016082015181600a01559050506000600960149054906101000a900463ffffffff1663ffffffff16612b3d620186a065ffffffffffff168585612d239092919063ffffffff16565b11612b685760095474010000000000000000000000000000000000000000900463ffffffff16612b76565b612b7682620186a085612d23565b90506000612bab828b60e0015163ffffffff1611612b945782612ba0565b8a60e0015163ffffffff165b8590620186a0612d23565b612bb59085613f8b565b60a08b0151909150600090612bcb908a87613a21565b905060405180608001604052808281526020018381526020018c610100015165ffffffffffff1681526020018c610120015165ffffffffffff16815250600360008a8152602001908152602001600020600082015181600001556020820151816001015560408201518160020160006101000a81548165ffffffffffff021916908365ffffffffffff16021790555060608201518160020160066101000a81548165ffffffffffff021916908365ffffffffffff1602179055509050508a6020015173ffffffffffffffffffffffffffffffffffffffff168b6000015173ffffffffffffffffffffffffffffffffffffffff16897f8235b14cd272b4e791960fe1118559bb7fed86934fcffeeae9b1175103b0756d8e61010001518f60a00151604051612d0c92919065ffffffffffff929092168252602082015260400190565b60405180910390a450959998505050505050505050565b600080807fffffffffffffffffffffffffffffffffffffffffffffffffffffffffffffffff8587098587029250828110838203039150508060001415612d7b5760008411612d7057600080fd5b508290049050610b4c565b808411612d8757600080fd5b60008486880960026001871981018816978890046003810283188082028403028082028403028082028403028082028403028082028403029081029092039091026000889003889004909101858311909403939093029303949094049190911702949350505050565b6000818152600360209081526040808320600290810180547fffffffffffffffffffffffffffffffffffffffff000000000000ffffffffffff1666010000000000004265ffffffffffff16021790559091528082206004018290555182917f9dc30b8eda31a6a144e092e5de600955523a6a925cc15cc1d1b9b4872cfa615591a250565b6000818152600460209081526040808320815161014081018352815465ffffffffffff8082168352660100000000000082041694820185905263ffffffff6c0100000000000000000000000082048116948301949094527001000000000000000000000000000000008104841660608301527401000000000000000000000000000000000000000081048416608083015278010000000000000000000000000000000000000000000000008104841660a08301527c0100000000000000000000000000000000000000000000000000000000900490921660c0830152600181015460e0830152600281015461010083015260030154610120820152904283828211612f80576000612f84565b8282035b90508360c0015163ffffffff168111612fc85760c0840151600087815260026020526040902060050154612fc391839063ffffffff90811690612d2316565b612fdb565b6000868152600260205260409020600501545b9695505050505050565b6000838152600260208181526040808420815161018081018352815473ffffffffffffffffffffffffffffffffffffffff9081168252600183015481168286015294820154851681840152600382015494851660608201527401000000000000000000000000000000000000000090940460ff161515608085015260048082015460a0860152600582015460c0860152600682015460e0860152600782015461010086015260088201546101208601526009820154610140860152600a9091015461016085015287855290915282205482919042660100000000000090910465ffffffffffff1611613101576130da86612e74565b600087815260026020526040812060050180549091906130fb908490613f1f565b90915550505b6000868152600560205260409020600101546c01000000000000000000000000900460ff16156132365760008681526005602052604081209080806131458a611e69565b60008d81526003602052604081208054949750929550909350859261316b908490613f1f565b90915550508015613206578284600001600082825461318a9190613f1f565b90915550506001840180548391906006906131b89084906601000000000000900465ffffffffffff16613fa3565b92506101000a81548165ffffffffffff021916908365ffffffffffff160217905550878460010160006101000a81548165ffffffffffff021916908365ffffffffffff160217905550613231565b6001840180547fffffffffffffffffffffffffffffffffffffff00ffffffffffffffffffffffff1690555b505050505b61323f86613a7f565b60e082015190935080841015613253578093505b61016082015161326590879086612d23565b6101608301516000898152600460205260408120805460039091015493965090926132bb92909163ffffffff7c0100000000000000000000000000000000000000000000000000000000909104811690612d2316565b6101608401519091506132d090859083613a21565b600089815260046020526040902080546006906133009084906601000000000000900465ffffffffffff16614032565b92506101000a81548165ffffffffffff021916908365ffffffffffff160217905550505050935093915050565b600060046000858152602001908152602001600020604051806101400160405290816000820160009054906101000a900465ffffffffffff1665ffffffffffff1665ffffffffffff1681526020016000820160069054906101000a900465ffffffffffff1665ffffffffffff1665ffffffffffff16815260200160008201600c9054906101000a900463ffffffff1663ffffffff1663ffffffff1681526020016000820160109054906101000a900463ffffffff1663ffffffff1663ffffffff1681526020016000820160149054906101000a900463ffffffff1663ffffffff1663ffffffff1681526020016000820160189054906101000a900463ffffffff1663ffffffff1663ffffffff16815260200160008201601c9054906101000a900463ffffffff1663ffffffff1663ffffffff16815260200160018201548152602001600282015481526020016003820154815250509050600060026000868152602001908152602001600020604051806101800160405290816000820160009054906101000a900473ffffffffffffffffffffffffffffffffffffffff1673ffffffffffffffffffffffffffffffffffffffff1673ffffffffffffffffffffffffffffffffffffffff1681526020016001820160009054906101000a900473ffffffffffffffffffffffffffffffffffffffff1673ffffffffffffffffffffffffffffffffffffffff1673ffffffffffffffffffffffffffffffffffffffff1681526020016002820160009054906101000a900473ffffffffffffffffffffffffffffffffffffffff1673ffffffffffffffffffffffffffffffffffffffff1673ffffffffffffffffffffffffffffffffffffffff1681526020016003820160009054906101000a900473ffffffffffffffffffffffffffffffffffffffff1673ffffffffffffffffffffffffffffffffffffffff1673ffffffffffffffffffffffffffffffffffffffff1681526020016003820160149054906101000a900460ff16151515158152602001600482015481526020016005820154815260200160068201548152602001600782015481526020016008820154815260200160098201548152602001600a8201548152505090506000846003600088815260200190815260200160002060020160069054906101000a900465ffffffffffff166136969190613fa3565b65ffffffffffff169050600082608001516136b5578260a001516136ca565b61016083015160a08401516136ca9187612d23565b9050600083608001516136e2578361012001516136f8565b6101608401516101408501516136f89188612d23565b6137029083613f8b565b905060008261373b85886040015163ffffffff166137209190613f1f565b886040015163ffffffff1685612d239092919063ffffffff16565b6137459190613f8b565b90508561010001518560a0015110801561375e57508181105b8061379957506080860151865161377b9163ffffffff1690614032565b65ffffffffffff168865ffffffffffff161015801561379957508181115b15613a16576137bd866060015163ffffffff168585612d239092919063ffffffff16565b60008a8152600260205260408082206007019290925560c08801519188015190916137f691849163ffffffff90811691811690612d2316565b60008b8152600360205260408120546101608901519293509161381b908b9085613a21565b60408051848152602081018390529192508d917f78f9c01d72705dba80d6ce051d36a1f987bf2a3800fee938c111a2ae741e57d1910160405180910390a28181101561394957600061386d8284613f1f565b905060405180608001604052808281526020018d65ffffffffffff1681526020018b60a0015163ffffffff1665ffffffffffff16815260200160011515815250600560008f81526020019081526020016000206000820151816000015560208201518160010160006101000a81548165ffffffffffff021916908365ffffffffffff16021790555060408201518160010160066101000a81548165ffffffffffff021916908365ffffffffffff160217905550606082015181600101600c6101000a81548160ff0219169083151502179055509050505061398e565b60008c81526003602090815260408083208490556005909152902060010180547fffffffffffffffffffffffffffffffffffffff00ffffffffffffffffffffffff1690555b60008c815260046020526040902080547fffffffffffffffffffffffffffffffffffffffffffffffffffff0000000000001665ffffffffffff8d1617905560e089015160a0890151116139e25760006139f6565b8860e001518860a001516139f69190613f1f565b60008d815260046020526040902060028101919091556003019290925550505b505050505050505050565b6000613a2e848484612d23565b905060008280613a4057613a4061405c565b8486091115610b4c577fffffffffffffffffffffffffffffffffffffffffffffffffffffffffffffffff8110613a7557600080fd5b6001019392505050565b6000818152600260208181526040808420815161018081018352815473ffffffffffffffffffffffffffffffffffffffff908116825260018301548116828601529482015485168184015260038083015495861660608301527401000000000000000000000000000000000000000090950460ff1615156080820152600482015460a0820152600582015460c08201819052600683015460e0830152600783015461010083015260088301546101208301526009830154610140830152600a90920154610160820181905287875294909352908420549192610b4c929190612d23565b600060208284031215613b7457600080fd5b5035919050565b73ffffffffffffffffffffffffffffffffffffffff811681146114c857600080fd5b8035613ba881613b7b565b919050565b600060208284031215613bbf57600080fd5b8135610b4c81613b7b565b7f4e487b7100000000000000000000000000000000000000000000000000000000600052604160045260246000fd5b604051610180810167ffffffffffffffff81118282101715613c1d57613c1d613bca565b60405290565b80151581146114c857600080fd5b8035613ba881613c23565b803563ffffffff81168114613ba857600080fd5b65ffffffffffff811681146114c857600080fd5b8035613ba881613c50565b8035600081900b8114613ba857600080fd5b60006101808284031215613c9457600080fd5b613c9c613bf9565b613ca583613b9d565b8152613cb360208401613b9d565b6020820152613cc460408401613b9d565b6040820152613cd560608401613c31565b60608201526080830135608082015260a083013560a082015260c083013560c0820152613d0460e08401613c3c565b60e0820152610100613d17818501613c64565b90820152610120613d29848201613c64565b90820152610140613d3b848201613c3c565b90820152610160613d4d848201613c6f565b908201529392505050565b600060208284031215613d6a57600080fd5b8135610b4c81613c23565b60008060808385031215613d8857600080fd5b8235915083608084011115613d9c57600080fd5b50926020919091019150565b60008060408385031215613dbb57600080fd5b8235613dc681613b7b565b91506020830135613dd681613c23565b809150509250929050565b60008060408385031215613df457600080fd5b823591506020830135613dd681613b7b565b600060c08284031215613e1857600080fd5b82601f830112613e2757600080fd5b60405160c0810181811067ffffffffffffffff82111715613e4a57613e4a613bca565b6040528060c0840185811115613e5f57600080fd5b845b81811015613e8057613e7281613c3c565b835260209283019201613e61565b509195945050505050565b600080600060608486031215613ea057600080fd5b83359250602084013591506040840135613eb981613b7b565b809150509250925092565b600080600060608486031215613ed957600080fd5b505081359360208301359350604090920135919050565b7f4e487b7100000000000000000000000000000000000000000000000000000000600052601160045260246000fd5b600082821015613f3157613f31613ef0565b500390565b600060208284031215613f4857600080fd5b610b4c82613c3c565b600060208284031215613f6357600080fd5b8151610b4c81613c23565b600060208284031215613f8057600080fd5b8151610b4c81613c50565b60008219821115613f9e57613f9e613ef0565b500190565b600065ffffffffffff83811690831681811015613fc257613fc2613ef0565b039392505050565b600060208284031215613fdc57600080fd5b815160ff81168114610b4c57600080fd5b600060208284031215613fff57600080fd5b5051919050565b600063ffffffff8083168185168183048111821515161561402957614029613ef0565b02949350505050565b600065ffffffffffff80831681851680830382111561405357614053613ef0565b01949350505050565b7f4e487b7100000000000000000000000000000000000000000000000000000000600052601260045260246000fdfea26469706673582212205e167b538d4465f8ab281464afbbd566d90bacf1892f753df94f13f43949f50164736f6c634300080a0033",
    "linkReferences": {}
  }
}