{
  "abi": [
    {
      "inputs": [
        {
          "internalType": "contract IBondTeller",
          "name": "teller_",
          "type": "address"
        },
        {
          "internalType": "contract IBondAggregator",
          "name": "aggregator_",
          "type": "address"
        },
        {
          "internalType": "address",
          "name": "guardian_",
          "type": "address"
        },
        {
          "internalType": "contract Authority",
          "name": "authority_",
          "type": "address"
        }
      ],
      "stateMutability": "nonpayable",
      "type": "constructor"
    },
    {
      "inputs": [],
      "name": "Auctioneer_AmountLessThanMinimum",
      "type": "error"
    },
    {
      "inputs": [],
      "name": "Auctioneer_BadExpiry",
      "type": "error"
    },
    {
      "inputs": [],
      "name": "Auctioneer_InitialPriceLessThanMin",
      "type": "error"
    },
    {
      "inputs": [],
      "name": "Auctioneer_InvalidCallback",
      "type": "error"
    },
    {
      "inputs": [],
      "name": "Auctioneer_InvalidParams",
      "type": "error"
    },
    {
      "inputs": [
        {
          "internalType": "uint256",
          "name": "conclusion_",
          "type": "uint256"
        }
      ],
      "name": "Auctioneer_MarketConcluded",
      "type": "error"
    },
    {
      "inputs": [],
      "name": "Auctioneer_MaxPayoutExceeded",
      "type": "error"
    },
    {
      "inputs": [],
      "name": "Auctioneer_NewMarketsNotAllowed",
      "type": "error"
    },
    {
      "inputs": [],
      "name": "Auctioneer_NotAuthorized",
      "type": "error"
    },
    {
      "inputs": [],
      "name": "Auctioneer_NotEnoughCapacity",
      "type": "error"
    },
    {
      "inputs": [],
      "name": "Auctioneer_OnlyMarketOwner",
      "type": "error"
    },
    {
      "anonymous": false,
      "inputs": [
        {
          "indexed": true,
          "internalType": "address",
          "name": "user",
          "type": "address"
        },
        {
          "indexed": true,
          "internalType": "contract Authority",
          "name": "newAuthority",
          "type": "address"
        }
      ],
      "name": "AuthorityUpdated",
      "type": "event"
    },
    {
      "anonymous": false,
      "inputs": [
        {
          "indexed": true,
          "internalType": "uint256",
          "name": "id",
          "type": "uint256"
        }
      ],
      "name": "MarketClosed",
      "type": "event"
    },
    {
      "anonymous": false,
      "inputs": [
        {
          "indexed": true,
          "internalType": "uint256",
          "name": "id",
          "type": "uint256"
        },
        {
          "indexed": true,
          "internalType": "address",
          "name": "payoutToken",
          "type": "address"
        },
        {
          "indexed": true,
          "internalType": "address",
          "name": "quoteToken",
          "type": "address"
        },
        {
          "indexed": false,
          "internalType": "uint48",
          "name": "vesting",
          "type": "uint48"
        },
        {
          "indexed": false,
          "internalType": "uint256",
          "name": "initialPrice",
          "type": "uint256"
        }
      ],
      "name": "MarketCreated",
      "type": "event"
    },
    {
      "anonymous": false,
      "inputs": [
        {
          "indexed": true,
          "internalType": "address",
          "name": "user",
          "type": "address"
        },
        {
          "indexed": true,
          "internalType": "address",
          "name": "newOwner",
          "type": "address"
        }
      ],
      "name": "OwnerUpdated",
      "type": "event"
    },
    {
      "anonymous": false,
      "inputs": [
        {
          "indexed": true,
          "internalType": "uint256",
          "name": "id",
          "type": "uint256"
        },
        {
          "indexed": false,
          "internalType": "uint256",
          "name": "oldControlVariable",
          "type": "uint256"
        },
        {
          "indexed": false,
          "internalType": "uint256",
          "name": "newControlVariable",
          "type": "uint256"
        }
      ],
      "name": "Tuned",
      "type": "event"
    },
    {
      "inputs": [
        {
          "internalType": "uint256",
          "name": "",
          "type": "uint256"
        }
      ],
      "name": "adjustments",
      "outputs": [
        {
          "internalType": "uint256",
          "name": "change",
          "type": "uint256"
        },
        {
          "internalType": "uint48",
          "name": "lastAdjustment",
          "type": "uint48"
        },
        {
          "internalType": "uint48",
          "name": "timeToAdjusted",
          "type": "uint48"
        },
        {
          "internalType": "bool",
          "name": "active",
          "type": "bool"
        }
      ],
      "stateMutability": "view",
      "type": "function"
    },
    {
      "inputs": [],
      "name": "allowNewMarkets",
      "outputs": [
        {
          "internalType": "bool",
          "name": "",
          "type": "bool"
        }
      ],
      "stateMutability": "view",
      "type": "function"
    },
    {
      "inputs": [],
      "name": "authority",
      "outputs": [
        {
          "internalType": "contract Authority",
          "name": "",
          "type": "address"
        }
      ],
      "stateMutability": "view",
      "type": "function"
    },
    {
      "inputs": [
        {
          "internalType": "address",
          "name": "",
          "type": "address"
        }
      ],
      "name": "callbackAuthorized",
      "outputs": [
        {
          "internalType": "bool",
          "name": "",
          "type": "bool"
        }
      ],
      "stateMutability": "view",
      "type": "function"
    },
    {
      "inputs": [
        {
          "internalType": "uint256",
          "name": "id_",
          "type": "uint256"
        }
      ],
      "name": "closeMarket",
      "outputs": [],
      "stateMutability": "nonpayable",
      "type": "function"
    },
    {
      "inputs": [
        {
          "internalType": "bytes",
          "name": "params_",
          "type": "bytes"
        }
      ],
      "name": "createMarket",
      "outputs": [
        {
          "internalType": "uint256",
          "name": "",
          "type": "uint256"
        }
      ],
      "stateMutability": "nonpayable",
      "type": "function"
    },
    {
      "inputs": [
        {
          "internalType": "uint256",
          "name": "id_",
          "type": "uint256"
        }
      ],
      "name": "currentCapacity",
      "outputs": [
        {
          "internalType": "uint256",
          "name": "",
          "type": "uint256"
        }
      ],
      "stateMutability": "view",
      "type": "function"
    },
    {
      "inputs": [
        {
          "internalType": "uint256",
          "name": "id_",
          "type": "uint256"
        }
      ],
      "name": "currentControlVariable",
      "outputs": [
        {
          "internalType": "uint256",
          "name": "",
          "type": "uint256"
        }
      ],
      "stateMutability": "view",
      "type": "function"
    },
    {
      "inputs": [
        {
          "internalType": "uint256",
          "name": "id_",
          "type": "uint256"
        }
      ],
      "name": "currentDebt",
      "outputs": [
        {
          "internalType": "uint256",
          "name": "",
          "type": "uint256"
        }
      ],
      "stateMutability": "view",
      "type": "function"
    },
    {
      "inputs": [],
      "name": "defaultTuneAdjustment",
      "outputs": [
        {
          "internalType": "uint32",
          "name": "",
          "type": "uint32"
        }
      ],
      "stateMutability": "view",
      "type": "function"
    },
    {
      "inputs": [],
      "name": "defaultTuneInterval",
      "outputs": [
        {
          "internalType": "uint32",
          "name": "",
          "type": "uint32"
        }
      ],
      "stateMutability": "view",
      "type": "function"
    },
    {
      "inputs": [],
      "name": "getAggregator",
      "outputs": [
        {
          "internalType": "contract IBondAggregator",
          "name": "",
          "type": "address"
        }
      ],
      "stateMutability": "view",
      "type": "function"
    },
    {
      "inputs": [
        {
          "internalType": "uint256",
          "name": "id_",
          "type": "uint256"
        }
      ],
      "name": "getMarketInfoForPurchase",
      "outputs": [
        {
          "internalType": "address",
          "name": "owner",
          "type": "address"
        },
        {
          "internalType": "address",
          "name": "callbackAddr",
          "type": "address"
        },
        {
          "internalType": "contract ERC20",
          "name": "payoutToken",
          "type": "address"
        },
        {
          "internalType": "contract ERC20",
          "name": "quoteToken",
          "type": "address"
        },
        {
          "internalType": "uint48",
          "name": "vesting",
          "type": "uint48"
        },
        {
          "internalType": "uint256",
          "name": "maxPayout",
          "type": "uint256"
        }
      ],
      "stateMutability": "view",
      "type": "function"
    },
    {
      "inputs": [],
      "name": "getTeller",
      "outputs": [
        {
          "internalType": "contract IBondTeller",
          "name": "",
          "type": "address"
        }
      ],
      "stateMutability": "view",
      "type": "function"
    },
    {
      "inputs": [
        {
          "internalType": "uint256",
          "name": "id_",
          "type": "uint256"
        }
      ],
      "name": "isInstantSwap",
      "outputs": [
        {
          "internalType": "bool",
          "name": "",
          "type": "bool"
        }
      ],
      "stateMutability": "view",
      "type": "function"
    },
    {
      "inputs": [
        {
          "internalType": "uint256",
          "name": "id_",
          "type": "uint256"
        }
      ],
      "name": "isLive",
      "outputs": [
        {
          "internalType": "bool",
          "name": "",
          "type": "bool"
        }
      ],
      "stateMutability": "view",
      "type": "function"
    },
    {
      "inputs": [
        {
          "internalType": "uint256",
          "name": "id_",
          "type": "uint256"
        }
      ],
      "name": "marketPrice",
      "outputs": [
        {
          "internalType": "uint256",
          "name": "",
          "type": "uint256"
        }
      ],
      "stateMutability": "view",
      "type": "function"
    },
    {
      "inputs": [
        {
          "internalType": "uint256",
          "name": "id_",
          "type": "uint256"
        }
      ],
      "name": "marketScale",
      "outputs": [
        {
          "internalType": "uint256",
          "name": "",
          "type": "uint256"
        }
      ],
      "stateMutability": "view",
      "type": "function"
    },
    {
      "inputs": [
        {
          "internalType": "uint256",
          "name": "",
          "type": "uint256"
        }
      ],
      "name": "markets",
      "outputs": [
        {
          "internalType": "address",
          "name": "owner",
          "type": "address"
        },
        {
          "internalType": "contract ERC20",
          "name": "payoutToken",
          "type": "address"
        },
        {
          "internalType": "contract ERC20",
          "name": "quoteToken",
          "type": "address"
        },
        {
          "internalType": "address",
          "name": "callbackAddr",
          "type": "address"
        },
        {
          "internalType": "bool",
          "name": "capacityInQuote",
          "type": "bool"
        },
        {
          "internalType": "uint256",
          "name": "capacity",
          "type": "uint256"
        },
        {
          "internalType": "uint256",
          "name": "totalDebt",
          "type": "uint256"
        },
        {
          "internalType": "uint256",
          "name": "minPrice",
          "type": "uint256"
        },
        {
          "internalType": "uint256",
          "name": "maxPayout",
          "type": "uint256"
        },
        {
          "internalType": "uint256",
          "name": "sold",
          "type": "uint256"
        },
        {
          "internalType": "uint256",
          "name": "purchased",
          "type": "uint256"
        },
        {
          "internalType": "uint256",
          "name": "scale",
          "type": "uint256"
        }
      ],
      "stateMutability": "view",
      "type": "function"
    },
    {
      "inputs": [
        {
          "internalType": "uint256",
          "name": "id_",
          "type": "uint256"
        },
        {
          "internalType": "address",
          "name": "referrer_",
          "type": "address"
        }
      ],
      "name": "maxAmountAccepted",
      "outputs": [
        {
          "internalType": "uint256",
          "name": "",
          "type": "uint256"
        }
      ],
      "stateMutability": "view",
      "type": "function"
    },
    {
      "inputs": [
        {
          "internalType": "uint256",
          "name": "",
          "type": "uint256"
        }
      ],
      "name": "metadata",
      "outputs": [
        {
          "internalType": "uint48",
          "name": "lastTune",
          "type": "uint48"
        },
        {
          "internalType": "uint48",
          "name": "lastDecay",
          "type": "uint48"
        },
        {
          "internalType": "uint32",
          "name": "length",
          "type": "uint32"
        },
        {
          "internalType": "uint32",
          "name": "depositInterval",
          "type": "uint32"
        },
        {
          "internalType": "uint32",
          "name": "tuneInterval",
          "type": "uint32"
        },
        {
          "internalType": "uint32",
          "name": "tuneAdjustmentDelay",
          "type": "uint32"
        },
        {
          "internalType": "uint32",
          "name": "debtDecayInterval",
          "type": "uint32"
        },
        {
          "internalType": "uint256",
          "name": "tuneIntervalCapacity",
          "type": "uint256"
        },
        {
          "internalType": "uint256",
          "name": "tuneBelowCapacity",
          "type": "uint256"
        },
        {
          "internalType": "uint256",
          "name": "lastTuneDebt",
          "type": "uint256"
        }
      ],
      "stateMutability": "view",
      "type": "function"
    },
    {
      "inputs": [],
      "name": "minDebtBuffer",
      "outputs": [
        {
          "internalType": "uint32",
          "name": "",
          "type": "uint32"
        }
      ],
      "stateMutability": "view",
      "type": "function"
    },
    {
      "inputs": [],
      "name": "minDebtDecayInterval",
      "outputs": [
        {
          "internalType": "uint32",
          "name": "",
          "type": "uint32"
        }
      ],
      "stateMutability": "view",
      "type": "function"
    },
    {
      "inputs": [],
      "name": "minDepositInterval",
      "outputs": [
        {
          "internalType": "uint32",
          "name": "",
          "type": "uint32"
        }
      ],
      "stateMutability": "view",
      "type": "function"
    },
    {
      "inputs": [],
      "name": "minMarketDuration",
      "outputs": [
        {
          "internalType": "uint32",
          "name": "",
          "type": "uint32"
        }
      ],
      "stateMutability": "view",
      "type": "function"
    },
    {
      "inputs": [
        {
          "internalType": "uint256",
          "name": "",
          "type": "uint256"
        }
      ],
      "name": "newOwners",
      "outputs": [
        {
          "internalType": "address",
          "name": "",
          "type": "address"
        }
      ],
      "stateMutability": "view",
      "type": "function"
    },
    {
      "inputs": [],
      "name": "owner",
      "outputs": [
        {
          "internalType": "address",
          "name": "",
          "type": "address"
        }
      ],
      "stateMutability": "view",
      "type": "function"
    },
    {
      "inputs": [
        {
          "internalType": "uint256",
          "name": "id_",
          "type": "uint256"
        }
      ],
      "name": "ownerOf",
      "outputs": [
        {
          "internalType": "address",
          "name": "",
          "type": "address"
        }
      ],
      "stateMutability": "view",
      "type": "function"
    },
    {
      "inputs": [
        {
          "internalType": "uint256",
          "name": "amount_",
          "type": "uint256"
        },
        {
          "internalType": "uint256",
          "name": "id_",
          "type": "uint256"
        },
        {
          "internalType": "address",
          "name": "referrer_",
          "type": "address"
        }
      ],
      "name": "payoutFor",
      "outputs": [
        {
          "internalType": "uint256",
          "name": "",
          "type": "uint256"
        }
      ],
      "stateMutability": "view",
      "type": "function"
    },
    {
      "inputs": [
        {
          "internalType": "uint256",
          "name": "id_",
          "type": "uint256"
        }
      ],
      "name": "pullOwnership",
      "outputs": [],
      "stateMutability": "nonpayable",
      "type": "function"
    },
    {
      "inputs": [
        {
          "internalType": "uint256",
          "name": "id_",
          "type": "uint256"
        },
        {
          "internalType": "uint256",
          "name": "amount_",
          "type": "uint256"
        },
        {
          "internalType": "uint256",
          "name": "minAmountOut_",
          "type": "uint256"
        }
      ],
      "name": "purchaseBond",
      "outputs": [
        {
          "internalType": "uint256",
          "name": "payout",
          "type": "uint256"
        }
      ],
      "stateMutability": "nonpayable",
      "type": "function"
    },
    {
      "inputs": [
        {
          "internalType": "uint256",
          "name": "id_",
          "type": "uint256"
        },
        {
          "internalType": "address",
          "name": "newOwner_",
          "type": "address"
        }
      ],
      "name": "pushOwnership",
      "outputs": [],
      "stateMutability": "nonpayable",
      "type": "function"
    },
    {
      "inputs": [
        {
          "internalType": "bool",
          "name": "status_",
          "type": "bool"
        }
      ],
      "name": "setAllowNewMarkets",
      "outputs": [],
      "stateMutability": "nonpayable",
      "type": "function"
    },
    {
      "inputs": [
        {
          "internalType": "contract Authority",
          "name": "newAuthority",
          "type": "address"
        }
      ],
      "name": "setAuthority",
      "outputs": [],
      "stateMutability": "nonpayable",
      "type": "function"
    },
    {
      "inputs": [
        {
          "internalType": "address",
          "name": "creator_",
          "type": "address"
        },
        {
          "internalType": "bool",
          "name": "status_",
          "type": "bool"
        }
      ],
      "name": "setCallbackAuthStatus",
      "outputs": [],
      "stateMutability": "nonpayable",
      "type": "function"
    },
    {
      "inputs": [
        {
          "internalType": "uint32[6]",
          "name": "defaults_",
          "type": "uint32[6]"
        }
      ],
      "name": "setDefaults",
      "outputs": [],
      "stateMutability": "nonpayable",
      "type": "function"
    },
    {
      "inputs": [
        {
          "internalType": "uint256",
          "name": "id_",
          "type": "uint256"
        },
        {
          "internalType": "uint32[3]",
          "name": "intervals_",
          "type": "uint32[3]"
        }
      ],
      "name": "setIntervals",
      "outputs": [],
      "stateMutability": "nonpayable",
      "type": "function"
    },
    {
      "inputs": [
        {
          "internalType": "address",
          "name": "newOwner",
          "type": "address"
        }
      ],
      "name": "setOwner",
      "outputs": [],
      "stateMutability": "nonpayable",
      "type": "function"
    },
    {
      "inputs": [
        {
          "internalType": "uint256",
          "name": "",
          "type": "uint256"
        }
      ],
      "name": "terms",
      "outputs": [
        {
          "internalType": "uint256",
          "name": "controlVariable",
          "type": "uint256"
        },
        {
          "internalType": "uint256",
          "name": "maxDebt",
          "type": "uint256"
        },
        {
          "internalType": "uint48",
          "name": "vesting",
          "type": "uint48"
        },
        {
          "internalType": "uint48",
          "name": "conclusion",
          "type": "uint48"
        }
      ],
      "stateMutability": "view",
      "type": "function"
    }
  ],
  "bytecode": {
    "object": "0x60c06040523480156200001157600080fd5b50604051620044273803806200442783398101604081905262000034916200013d565b600080546001600160a01b03199081166001600160a01b0385811691821784556001805490931690851617909155604051869286928692869284928492909133917f8292fce18fa69edf4db7b94ea2e58241df0ae57f97e0a6c9b29067028bf92d769190a36040516001600160a01b0382169033907fa3396fd7f6e0a21b50e5089d2da70d5ac0a3bbbd1f617a93f134b7638998019890600090a3505050506001600160a01b039081166080521660a0525050600980546001600160c01b0319167527100001518000000e100003f48000000e100001518017905550506007805460ff19166001179055620001a5565b6001600160a01b03811681146200013a57600080fd5b50565b600080600080608085870312156200015457600080fd5b8451620001618162000124565b6020860151909450620001748162000124565b6040860151909350620001878162000124565b60608601519092506200019a8162000124565b939692955090935050565b60805160a051614239620001ee6000396000818161051001528181610e3e0152818161199401528181611c260152611cd901526000818161034801526124fb01526142396000f3fe608060405234801561001057600080fd5b50600436106102ad5760003560e01c8063acc5570c1161017b578063bf7e214f116100d8578063d9ccdc931161008c578063e3684e3911610071578063e3684e39146109af578063e922067314610aed578063ea0aca3314610b0957600080fd5b8063d9ccdc931461098c578063e007fa971461099c57600080fd5b8063c7bf8ca0116100bd578063c7bf8ca014610935578063d204068714610948578063d2bee3231461096857600080fd5b8063bf7e214f146108a2578063c0aa0e8a146108c257600080fd5b8063bc3b2b121161012f578063bcf6cde811610114578063bcf6cde814610869578063bd1f3a5e1461087c578063bf48582b1461088f57600080fd5b8063bc3b2b12146107d2578063bcb296671461085657600080fd5b8063afa9d3b011610160578063afa9d3b0146106a1578063b1283e77146106ae578063bbbdd95a146107bf57600080fd5b8063acc5570c14610534578063ae4180951461068e57600080fd5b80635f77274e116102295780638973082c116101dd5780638da5cb5b116101c25780638da5cb5b146104cb578063946824cd146104eb5780639787d1071461050e57600080fd5b80638973082c1461047b5780638b098db3146104b857600080fd5b80636729a41e1161020e5780636729a41e1461041f578063699e17d9146104555780637a9e5e4b1461046857600080fd5b80635f77274e146103d65780636352211e146103e957600080fd5b806327507458116102805780633adec5a7116102655780633adec5a71461038d57806353c7f8e0146103a05780635dc4d16b146103b357600080fd5b806327507458146103235780633ad59dbc1461034657600080fd5b80630a9d85eb146102b257806310b05317146102d857806313af4035146102ed5780631c063a6c14610300575b600080fd5b6102c56102c0366004613c4b565b610b21565b6040519081526020015b60405180910390f35b6102eb6102e6366004613c4b565b610b53565b005b6102eb6102fb366004613c96565b610c0e565b6102c561030e366004613c4b565b60009081526002602052604090206004015490565b610336610331366004613c4b565b610d17565b60405190151581526020016102cf565b7f00000000000000000000000000000000000000000000000000000000000000005b60405173ffffffffffffffffffffffffffffffffffffffff90911681526020016102cf565b6102c561039b366004613c4b565b610d60565b6102c56103ae366004613cb3565b610dc3565b6103366103c1366004613c96565b60086020526000908152604090205460ff1681565b6102eb6103e4366004613d3e565b610eb4565b6103686103f7366004613c4b565b60009081526002602052604090205473ffffffffffffffffffffffffffffffffffffffff1690565b61036861042d366004613c4b565b60066020526000908152604090205473ffffffffffffffffffffffffffffffffffffffff1681565b6102eb610463366004613d5b565b610f79565b6102eb610476366004613c96565b6113b5565b6009546104a39074010000000000000000000000000000000000000000900463ffffffff1681565b60405163ffffffff90911681526020016102cf565b6103366104c6366004613c4b565b611512565b6000546103689073ffffffffffffffffffffffffffffffffffffffff1681565b6102c56104f9366004613c4b565b6000908152600260205260409020600a015490565b7f0000000000000000000000000000000000000000000000000000000000000000610368565b610638610542366004613c4b565b6000818152600260208181526040808420815161018081018352815473ffffffffffffffffffffffffffffffffffffffff90811680835260018401548216838701819052848801548316848701819052600380870154948516606087018190527401000000000000000000000000000000000000000090950460ff1615156080870152600487015460a0870152600587015460c0870152600687015460e08701526007870154610100870190815260088801546101208801526009880154610140880152600a90970154610160909601959095529989529290955292909520909301549251919590949265ffffffffffff169190565b6040805173ffffffffffffffffffffffffffffffffffffffff97881681529587166020870152938616938501939093529316606083015265ffffffffffff909216608082015260a081019190915260c0016102cf565b6102eb61069c366004613c4b565b611548565b6007546103369060ff1681565b6107456106bc366004613c4b565b600260208190526000918252604090912080546001820154928201546003830154600484015460058501546006860154600787015460088801546009890154600a9099015473ffffffffffffffffffffffffffffffffffffffff9889169a891699978916988716977401000000000000000000000000000000000000000090970460ff1696908c565b6040805173ffffffffffffffffffffffffffffffffffffffff9d8e1681529b8d1660208d0152998c16998b0199909952999096166060890152931515608088015260a087019290925260c086015260e0850152610100840152610120830152610140820192909252610160810191909152610180016102cf565b6102eb6107cd366004613d8e565b6115b1565b6108256107e0366004613c4b565b6005602052600090815260409020805460019091015465ffffffffffff8082169166010000000000008104909116906c01000000000000000000000000900460ff1684565b6040516102cf949392919093845265ffffffffffff9283166020850152911660408301521515606082015260800190565b6102c5610864366004613c4b565b61169b565b6102eb610877366004613dc7565b6116c2565b6102eb61088a366004613e59565b611772565b6102c561089d366004613ede565b611946565b6001546103689073ffffffffffffffffffffffffffffffffffffffff1681565b6109076108d0366004613c4b565b60036020526000908152604090208054600182015460029092015490919065ffffffffffff80821691660100000000000090041684565b60408051948552602085019390935265ffffffffffff918216928401929092521660608201526080016102cf565b6102c5610943366004613dc7565b611a9f565b6009546104a3906c01000000000000000000000000900463ffffffff1681565b6009546104a390700100000000000000000000000000000000900463ffffffff1681565b6009546104a39063ffffffff1681565b6102c56109aa366004613f17565b611cbf565b610a876109bd366004613c4b565b600460205260009081526040902080546001820154600283015460039093015465ffffffffffff80841694660100000000000085049091169363ffffffff6c0100000000000000000000000082048116947001000000000000000000000000000000008304821694740100000000000000000000000000000000000000008404831694780100000000000000000000000000000000000000000000000085048416947c0100000000000000000000000000000000000000000000000000000000900490931692908a565b6040805165ffffffffffff9b8c1681529a90991660208b015263ffffffff978816988a01989098529486166060890152928516608088015290841660a08701529290921660c085015260e0840191909152610100830152610120820152610140016102cf565b6009546104a39068010000000000000000900463ffffffff1681565b6009546104a390640100000000900463ffffffff1681565b600080610b2d83611f59565b5050600084815260036020526040902054909150610b4c908290613f72565b9392505050565b60008181526006602052604090205473ffffffffffffffffffffffffffffffffffffffff163314610bb0576040517f2c47703200000000000000000000000000000000000000000000000000000000815260040160405180910390fd5b600090815260066020908152604080832054600290925290912080547fffffffffffffffffffffffff00000000000000000000000000000000000000001673ffffffffffffffffffffffffffffffffffffffff909216919091179055565b610c3c336000357fffffffff0000000000000000000000000000000000000000000000000000000016612034565b610ca7576040517f08c379a000000000000000000000000000000000000000000000000000000000815260206004820152600c60248201527f554e415554484f52495a4544000000000000000000000000000000000000000060448201526064015b60405180910390fd5b600080547fffffffffffffffffffffffff00000000000000000000000000000000000000001673ffffffffffffffffffffffffffffffffffffffff83169081178255604051909133917f8292fce18fa69edf4db7b94ea2e58241df0ae57f97e0a6c9b29067028bf92d769190a350565b60008181526002602052604081206004015415801590610d5a575060008281526003602052604090206002015442660100000000000090910465ffffffffffff16115b92915050565b600080610d91610d6f8461169b565b6000858152600260205260409020600a0154610d8a86610b21565b9190612145565b6000848152600260205260409020600601549091508111610d5a57600083815260026020526040902060060154610b4c565b600080610dd283850185613fba565b90506000610ddf826121a3565b82516101008401516040517fc6e38a4b00000000000000000000000000000000000000000000000000000000815273ffffffffffffffffffffffffffffffffffffffff928316600482015265ffffffffffff90911660248201529192507f0000000000000000000000000000000000000000000000000000000000000000169063c6e38a4b906044016020604051808303816000875af1158015610e87573d6000803e3d6000fd5b505050506040513d601f19601f82011682018060405250810190610eab9190614091565b50949350505050565b610ee2336000357fffffffff0000000000000000000000000000000000000000000000000000000016612034565b610f48576040517f08c379a000000000000000000000000000000000000000000000000000000000815260206004820152600c60248201527f554e415554484f52495a454400000000000000000000000000000000000000006044820152606401610c9e565b600780547fffffffffffffffffffffffffffffffffffffffffffffffffffffffffffffff0016911515919091179055565b610f8660208201826140ae565b63ffffffff161580610fab5750610fa360408201602083016140ae565b63ffffffff16155b80610fc95750610fc160608201604083016140ae565b63ffffffff16155b15611000576040517f3b596f5f00000000000000000000000000000000000000000000000000000000815260040160405180910390fd5b61101060408201602083016140ae565b63ffffffff1661102360208301836140ae565b63ffffffff161015611061576040517f3b596f5f00000000000000000000000000000000000000000000000000000000815260040160405180910390fd5b60008281526004602090815260409091208054909170010000000000000000000000000000000090910463ffffffff169061109e908401846140ae565b63ffffffff1610156110dc576040517f3b596f5f00000000000000000000000000000000000000000000000000000000815260040160405180910390fd5b60095468010000000000000000900463ffffffff1661110160608401604085016140ae565b63ffffffff16101561113f576040517f3b596f5f00000000000000000000000000000000000000000000000000000000815260040160405180910390fd5b600083815260026020818152604092839020835161018081018552815473ffffffffffffffffffffffffffffffffffffffff908116808352600184015482169483019490945293820154841694810194909452600381015492831660608501527401000000000000000000000000000000000000000090920460ff1615156080840152600482015460a0840152600582015460c0840152600682015460e0840152600782015461010084015260088201546101208401526009820154610140840152600a909101546101608301523314611245576040517f4e1c8b5d00000000000000000000000000000000000000000000000000000000815260040160405180910390fd5b61125260208401846140ae565b825463ffffffff9190911674010000000000000000000000000000000000000000027fffffffffffffffff00000000ffffffffffffffffffffffffffffffffffffffff9091161782556112f06112ab60208501856140ae565b60008681526003602052604090206002015463ffffffff91909116906112e49042906601000000000000900465ffffffffffff16613f72565b60a08401519190612e71565b600183015561130560408401602085016140ae565b825463ffffffff919091167801000000000000000000000000000000000000000000000000027fffffffff00000000ffffffffffffffffffffffffffffffffffffffffffffffff90911617825561136260608401604085016140ae565b825463ffffffff919091167c0100000000000000000000000000000000000000000000000000000000027bffffffffffffffffffffffffffffffffffffffffffffffffffffffff90911617909155505050565b60005473ffffffffffffffffffffffffffffffffffffffff1633148061149857506001546040517fb70096130000000000000000000000000000000000000000000000000000000081523360048201523060248201526000357fffffffff0000000000000000000000000000000000000000000000000000000016604482015273ffffffffffffffffffffffffffffffffffffffff9091169063b700961390606401602060405180830381865afa158015611474573d6000803e3d6000fd5b505050506040513d601f19601f8201168201806040525081019061149891906140c9565b6114a157600080fd5b600180547fffffffffffffffffffffffff00000000000000000000000000000000000000001673ffffffffffffffffffffffffffffffffffffffff831690811790915560405133907fa3396fd7f6e0a21b50e5089d2da70d5ac0a3bbbd1f617a93f134b7638998019890600090a350565b60008181526003602052604081206002015465ffffffffffff16635dba24008111156115415742811115610b4c565b1592915050565b60008181526002602052604090205473ffffffffffffffffffffffffffffffffffffffff1633146115a5576040517f4e1c8b5d00000000000000000000000000000000000000000000000000000000815260040160405180910390fd5b6115ae81612f3d565b50565b6115df336000357fffffffff0000000000000000000000000000000000000000000000000000000016612034565b611645576040517f08c379a000000000000000000000000000000000000000000000000000000000815260206004820152600c60248201527f554e415554484f52495a454400000000000000000000000000000000000000006044820152606401610c9e565b73ffffffffffffffffffffffffffffffffffffffff91909116600090815260086020526040902080547fffffffffffffffffffffffffffffffffffffffffffffffffffffffffffffff0016911515919091179055565b60006116a682612fc1565b600083815260026020526040902060050154610d5a9190613f72565b60008281526002602052604090205473ffffffffffffffffffffffffffffffffffffffff16331461171f576040517f4e1c8b5d00000000000000000000000000000000000000000000000000000000815260040160405180910390fd5b60009182526006602052604090912080547fffffffffffffffffffffffff00000000000000000000000000000000000000001673ffffffffffffffffffffffffffffffffffffffff909216919091179055565b6117a0336000357fffffffff0000000000000000000000000000000000000000000000000000000016612034565b611806576040517f08c379a000000000000000000000000000000000000000000000000000000000815260206004820152600c60248201527f554e415554484f52495a454400000000000000000000000000000000000000006044820152606401610c9e565b805160098054602084015160408501516060860151608087015160a09097015163ffffffff90811674010000000000000000000000000000000000000000029181166c0100000000000000000000000002938116640100000000029681167fffffffffffffffffffffffffffffffffffffffffffffffff000000000000000090951694909417959095177fffffffffffffffffffffffffffffffff0000000000000000ffffffffffffffff1690831668010000000000000000027fffffffffffffffffffffffffffffffff00000000ffffffffffffffffffffffff1617177fffffffffffffffff0000000000000000ffffffffffffffffffffffffffffffff169316700100000000000000000000000000000000027fffffffffffffffff00000000ffffffffffffffffffffffffffffffffffffffff1692909217179055565b6040517fb88c914800000000000000000000000000000000000000000000000000000000815273ffffffffffffffffffffffffffffffffffffffff82811660048301526000918291611a14917f00000000000000000000000000000000000000000000000000000000000000009091169063b88c914890602401602060405180830381865afa1580156119dd573d6000803e3d6000fd5b505050506040513d601f19601f82011682018060405250810190611a0191906140e6565b869065ffffffffffff16620186a0612e71565b6000858152600260205260408120600a015491925090611a4890611a3787610d60565b611a41858a613f72565b9190612e71565b600086815260026020526040902060070154909150811115611a96576040517f5c430eae00000000000000000000000000000000000000000000000000000000815260040160405180910390fd5b9150610b4c9050565b6000828152600260208181526040808420815161018081018352815473ffffffffffffffffffffffffffffffffffffffff9081168252600183015481169482019490945293810154831691840191909152600381015491821660608401527401000000000000000000000000000000000000000090910460ff1615156080830152600481015460a0830152600581015460c0830152600681015460e0830152600781015461010083015260088101546101208301526009810154610140830152600a015461016082015281611b7385610d60565b905060008260800151611b9b5761016083015160a0840151611b96918490612e71565b611ba1565b8260a001515b90506000611bc483856101600151866101000151612e719092919063ffffffff16565b90506000818310611bd55781611bd7565b825b6040517fb88c914800000000000000000000000000000000000000000000000000000000815273ffffffffffffffffffffffffffffffffffffffff8981166004830152919250600091611ca6917f00000000000000000000000000000000000000000000000000000000000000009091169063b88c914890602401602060405180830381865afa158015611c6f573d6000803e3d6000fd5b505050506040513d601f19601f82011682018060405250810190611c9391906140e6565b839065ffffffffffff16620186a0612e71565b9050611cb28183614103565b9998505050505050505050565b60003373ffffffffffffffffffffffffffffffffffffffff7f00000000000000000000000000000000000000000000000000000000000000001614611d30576040517f2c47703200000000000000000000000000000000000000000000000000000000815260040160405180910390fd5b600084815260026020818152604080842060038352938190208151608081018352815481526001820154938101939093529092015465ffffffffffff80821693830193909352660100000000000090048216606082018190529091429190821610611dd75760608201516040517f07fc4a7000000000000000000000000000000000000000000000000000000000815265ffffffffffff9091166004820152602401610c9e565b6000611de4888842613132565b9550905085851015611e22576040517f74ec9d5b00000000000000000000000000000000000000000000000000000000815260040160405180910390fd5b8360070154851115611e60576040517f5c430eae00000000000000000000000000000000000000000000000000000000815260040160405180910390fd5b600384015474010000000000000000000000000000000000000000900460ff16611e905783600401548511611e98565b836004015487115b15611ecf576040517ff3383dc900000000000000000000000000000000000000000000000000000000815260040160405180910390fd5b600384015474010000000000000000000000000000000000000000900460ff16611ef95784611efb565b865b600485018054919091039055600584018054860160010190819055600985018054890190556008850180548701905560208401511015611f4357611f3e88612f3d565b611f4e565b611f4e888383613474565b505050509392505050565b600081815260056020908152604080832081516080810183528154815260019091015465ffffffffffff8082169483019490945266010000000000008104909316918101919091526c0100000000000000000000000090910460ff1615156060820181905282918291611fd75760008060009350935093505061202d565b6020810151611fe6904261411b565b9250806040015165ffffffffffff168365ffffffffffff161091508161200d578051612029565b604081015181516120299165ffffffffffff8087169116612e71565b9350505b9193909250565b60015460009073ffffffffffffffffffffffffffffffffffffffff16801580159061211857506040517fb700961300000000000000000000000000000000000000000000000000000000815273ffffffffffffffffffffffffffffffffffffffff85811660048301523060248301527fffffffff000000000000000000000000000000000000000000000000000000008516604483015282169063b700961390606401602060405180830381865afa1580156120f4573d6000803e3d6000fd5b505050506040513d601f19601f8201168201806040525081019061211891906140c9565b8061213d575060005473ffffffffffffffffffffffffffffffffffffffff8581169116145b949350505050565b6000612152848484612e71565b90506000828061216457612164614142565b8486091115610b4c577fffffffffffffffffffffffffffffffffffffffffffffffffffffffffffffffff811061219957600080fd5b6001019392505050565b60075460009060ff166121e2576040517f64be3ffa00000000000000000000000000000000000000000000000000000000815260040160405180910390fd5b6000826000015173ffffffffffffffffffffffffffffffffffffffff1663313ce5676040518163ffffffff1660e01b8152600401602060405180830381865afa158015612233573d6000803e3d6000fd5b505050506040513d601f19601f820116820180604052508101906122579190614171565b90506000836020015173ffffffffffffffffffffffffffffffffffffffff1663313ce5676040518163ffffffff1660e01b8152600401602060405180830381865afa1580156122aa573d6000803e3d6000fd5b505050506040513d601f19601f820116820180604052508101906122ce9190614171565b905060068260ff1610806122e5575060128260ff16115b1561231c576040517f3b596f5f00000000000000000000000000000000000000000000000000000000815260040160405180910390fd5b60068160ff161080612331575060128160ff16115b15612368576040517f3b596f5f00000000000000000000000000000000000000000000000000000000815260040160405180910390fd5b7fffffffffffffffffffffffffffffffffffffffffffffffffffffffffffffffe884610160015160000b12806123a65750601884610160015160000b135b156123dd576040517f3b596f5f00000000000000000000000000000000000000000000000000000000815260040160405180910390fd5b3360009081526008602052604090205460ff161580156124165750604084015173ffffffffffffffffffffffffffffffffffffffff1615155b1561244d576040517f2c47703200000000000000000000000000000000000000000000000000000000815260040160405180910390fd5b5050600082610160015160240160ff16600a0a90508260c001518360a0015110156124a4576040517f4496547d00000000000000000000000000000000000000000000000000000000815260040160405180910390fd5b825160208401516040517fb435914300000000000000000000000000000000000000000000000000000000815273ffffffffffffffffffffffffffffffffffffffff928316600482015290821660248201526000917f0000000000000000000000000000000000000000000000000000000000000000169063b4359143906044016020604051808303816000875af1158015612544573d6000803e3d6000fd5b505050506040513d601f19601f820116820180604052508101906125689190614194565b90506000804286610120015165ffffffffffff166125869190613f72565b60095490925063ffffffff700100000000000000000000000000000000909104811690831610806125d7575060095461014087015163ffffffff6c0100000000000000000000000090920482169116105b1561260e576040517f3b596f5f00000000000000000000000000000000000000000000000000000000815260040160405180910390fd5b6000866101400151600561262291906141ad565b60095490915063ffffffff808316680100000000000000009092041611612649578061265f565b60095468010000000000000000900463ffffffff165b6009546101408901519193506000916126b79163ffffffff90811691161161268f5760095463ffffffff16612696565b8861014001515b63ffffffff168563ffffffff168a60800151612e719092919063ffffffff16565b60408051610140808201835265ffffffffffff4216808352602083015263ffffffff808916938301939093528b018051831660608301526009549051939450909260808401929182169116116127155760095463ffffffff1661271c565b8961014001515b63ffffffff9081168252600954640100000000900481166020830152851660408201526060810183905260808a81015191019061275a908490613f72565b81526020016127988563ffffffff168763ffffffff168c60600151612783578c60800151611a41565b60a08d015160808e0151611a41918d90612e71565b90526000868152600460209081526040808320845181549386015192860151606080880151608089015160a08a015160c08b015165ffffffffffff9687167fffffffffffffffffffffffffffffffffffffffff000000000000000000000000909a169990991766010000000000009690981695909502969096177fffffffffffffffffffffffff0000000000000000ffffffffffffffffffffffff166c0100000000000000000000000063ffffffff948516027fffffffffffffffffffffffff00000000ffffffffffffffffffffffffffffffff161770010000000000000000000000000000000091841691909102177fffffffff0000000000000000ffffffffffffffffffffffffffffffffffffffff1674010000000000000000000000000000000000000000958316959095027fffffffff00000000ffffffffffffffffffffffffffffffffffffffffffffffff1694909417780100000000000000000000000000000000000000000000000092821692909202919091177bffffffffffffffffffffffffffffffffffffffffffffffffffffffff167c0100000000000000000000000000000000000000000000000000000000919094160292909217825560e084015160018301556101008401516002830155610120909301516003909101559089015190925082915081906129955788608001516129aa565b60a089015160808a01516129aa918990612e71565b90506129c38163ffffffff8087169088811690612e7116565b92506129eb89610140015163ffffffff168663ffffffff1683612e719092919063ffffffff16565b9150506040518061018001604052803373ffffffffffffffffffffffffffffffffffffffff168152602001896000015173ffffffffffffffffffffffffffffffffffffffff168152602001896020015173ffffffffffffffffffffffffffffffffffffffff168152602001896040015173ffffffffffffffffffffffffffffffffffffffff168152602001896060015115158152602001896080015181526020018381526020018960c0015181526020018281526020016000815260200160008152602001878152506002600087815260200190815260200160002060008201518160000160006101000a81548173ffffffffffffffffffffffffffffffffffffffff021916908373ffffffffffffffffffffffffffffffffffffffff16021790555060208201518160010160006101000a81548173ffffffffffffffffffffffffffffffffffffffff021916908373ffffffffffffffffffffffffffffffffffffffff16021790555060408201518160020160006101000a81548173ffffffffffffffffffffffffffffffffffffffff021916908373ffffffffffffffffffffffffffffffffffffffff16021790555060608201518160030160006101000a81548173ffffffffffffffffffffffffffffffffffffffff021916908373ffffffffffffffffffffffffffffffffffffffff16021790555060808201518160030160146101000a81548160ff02191690831515021790555060a0820151816004015560c0820151816005015560e0820151816006015561010082015181600701556101208201518160080155610140820151816009015561016082015181600a01559050506000600960149054906101000a900463ffffffff1663ffffffff16612c8b620186a065ffffffffffff168585612e719092919063ffffffff16565b11612cb65760095474010000000000000000000000000000000000000000900463ffffffff16612cc4565b612cc482620186a085612e71565b90506000612cf9828b60e0015163ffffffff1611612ce25782612cee565b8a60e0015163ffffffff165b8590620186a0612e71565b612d039085614103565b60a08b0151909150600090612d19908a87612e71565b905060405180608001604052808281526020018381526020018c610100015165ffffffffffff1681526020018c610120015165ffffffffffff16815250600360008a8152602001908152602001600020600082015181600001556020820151816001015560408201518160020160006101000a81548165ffffffffffff021916908365ffffffffffff16021790555060608201518160020160066101000a81548165ffffffffffff021916908365ffffffffffff1602179055509050508a6020015173ffffffffffffffffffffffffffffffffffffffff168b6000015173ffffffffffffffffffffffffffffffffffffffff16897f8235b14cd272b4e791960fe1118559bb7fed86934fcffeeae9b1175103b0756d8e61010001518f60a00151604051612e5a92919065ffffffffffff929092168252602082015260400190565b60405180910390a450959998505050505050505050565b600080807fffffffffffffffffffffffffffffffffffffffffffffffffffffffffffffffff85870985870292508281108382030391505080600003612ec85760008411612ebd57600080fd5b508290049050610b4c565b808411612ed457600080fd5b60008486880960026001871981018816978890046003810283188082028403028082028403028082028403028082028403028082028403029081029092039091026000889003889004909101858311909403939093029303949094049190911702949350505050565b6000818152600360209081526040808320600290810180547fffffffffffffffffffffffffffffffffffffffff000000000000ffffffffffff1666010000000000004265ffffffffffff16021790559091528082206004018290555182917f9dc30b8eda31a6a144e092e5de600955523a6a925cc15cc1d1b9b4872cfa615591a250565b6000818152600460209081526040808320815161014081018352815465ffffffffffff8082168352660100000000000082041694820185905263ffffffff6c0100000000000000000000000082048116948301949094527001000000000000000000000000000000008104841660608301527401000000000000000000000000000000000000000081048416608083015278010000000000000000000000000000000000000000000000008104841660a08301527c0100000000000000000000000000000000000000000000000000000000900490921660c0830152600181015460e08301526002810154610100830152600301546101208201529042838282116130cd5760006130d1565b8282035b90508360c0015163ffffffff1681116131155760c084015160008781526002602052604090206005015461311091839063ffffffff90811690612e7116565b613128565b6000868152600260205260409020600501545b9695505050505050565b6000838152600260208181526040808420815161018081018352815473ffffffffffffffffffffffffffffffffffffffff9081168252600183015481168286015294820154851681840152600382015494851660608201527401000000000000000000000000000000000000000090940460ff161515608085015260048082015460a0860152600582015460c0860152600682015460e0860152600782015461010086015260088201546101208601526009820154610140860152600a9091015461016085015287855290915282205482919042660100000000000090910465ffffffffffff161161324e5761322786612fc1565b60008781526002602052604081206005018054909190613248908490613f72565b90915550505b6000868152600560205260409020600101546c01000000000000000000000000900460ff16156133835760008681526005602052604081209080806132928a611f59565b60008d8152600360205260408120805494975092955090935085926132b8908490613f72565b9091555050801561335357828460000160008282546132d79190613f72565b90915550506001840180548391906006906133059084906601000000000000900465ffffffffffff1661411b565b92506101000a81548165ffffffffffff021916908365ffffffffffff160217905550878460010160006101000a81548165ffffffffffff021916908365ffffffffffff16021790555061337e565b6001840180547fffffffffffffffffffffffffffffffffffffff00ffffffffffffffffffffffff1690555b505050505b61338c86613b68565b60e0820151909350808410156133a0578093505b6101608201516133b290879086612e71565b60008881526004602052604081208054600390910154929550909161340691633b9aca009063ffffffff7c0100000000000000000000000000000000000000000000000000000000909104811690612e7116565b905061341784633b9aca0083612145565b600089815260046020526040902080546006906134479084906601000000000000900465ffffffffffff166141d9565b92506101000a81548165ffffffffffff021916908365ffffffffffff160217905550505050935093915050565b600060046000858152602001908152602001600020604051806101400160405290816000820160009054906101000a900465ffffffffffff1665ffffffffffff1665ffffffffffff1681526020016000820160069054906101000a900465ffffffffffff1665ffffffffffff1665ffffffffffff16815260200160008201600c9054906101000a900463ffffffff1663ffffffff1663ffffffff1681526020016000820160109054906101000a900463ffffffff1663ffffffff1663ffffffff1681526020016000820160149054906101000a900463ffffffff1663ffffffff1663ffffffff1681526020016000820160189054906101000a900463ffffffff1663ffffffff1663ffffffff16815260200160008201601c9054906101000a900463ffffffff1663ffffffff1663ffffffff16815260200160018201548152602001600282015481526020016003820154815250509050600060026000868152602001908152602001600020604051806101800160405290816000820160009054906101000a900473ffffffffffffffffffffffffffffffffffffffff1673ffffffffffffffffffffffffffffffffffffffff1673ffffffffffffffffffffffffffffffffffffffff1681526020016001820160009054906101000a900473ffffffffffffffffffffffffffffffffffffffff1673ffffffffffffffffffffffffffffffffffffffff1673ffffffffffffffffffffffffffffffffffffffff1681526020016002820160009054906101000a900473ffffffffffffffffffffffffffffffffffffffff1673ffffffffffffffffffffffffffffffffffffffff1673ffffffffffffffffffffffffffffffffffffffff1681526020016003820160009054906101000a900473ffffffffffffffffffffffffffffffffffffffff1673ffffffffffffffffffffffffffffffffffffffff1673ffffffffffffffffffffffffffffffffffffffff1681526020016003820160149054906101000a900460ff16151515158152602001600482015481526020016005820154815260200160068201548152602001600782015481526020016008820154815260200160098201548152602001600a8201548152505090506000846003600088815260200190815260200160002060020160069054906101000a900465ffffffffffff166137dd919061411b565b65ffffffffffff169050600082608001516137fc578260a00151613811565b61016083015160a08401516138119187612e71565b9050600083608001516138295783610120015161383f565b61016084015161014085015161383f9188612e71565b6138499083614103565b905060008261388285886040015163ffffffff166138679190613f72565b886040015163ffffffff1685612e719092919063ffffffff16565b61388c9190614103565b90508561010001518560a001511080156138a557508181105b806138e05750608086015186516138c29163ffffffff16906141d9565b65ffffffffffff168865ffffffffffff16101580156138e057508181115b15613b5d57613904866060015163ffffffff168585612e719092919063ffffffff16565b60008a8152600260205260408082206007019290925560c088015191880151909161393d91849163ffffffff90811691811690612e7116565b60008b81526003602052604081205461016089015192935091613962908b9085612145565b60408051848152602081018390529192508d917f78f9c01d72705dba80d6ce051d36a1f987bf2a3800fee938c111a2ae741e57d1910160405180910390a281811015613a905760006139b48284613f72565b905060405180608001604052808281526020018d65ffffffffffff1681526020018b60a0015163ffffffff1665ffffffffffff16815260200160011515815250600560008f81526020019081526020016000206000820151816000015560208201518160010160006101000a81548165ffffffffffff021916908365ffffffffffff16021790555060408201518160010160066101000a81548165ffffffffffff021916908365ffffffffffff160217905550606082015181600101600c6101000a81548160ff02191690831515021790555090505050613ad5565b60008c81526003602090815260408083208490556005909152902060010180547fffffffffffffffffffffffffffffffffffffff00ffffffffffffffffffffffff1690555b60008c815260046020526040902080547fffffffffffffffffffffffffffffffffffffffffffffffffffff0000000000001665ffffffffffff8d1617905560e089015160a089015111613b29576000613b3d565b8860e001518860a00151613b3d9190613f72565b60008d815260046020526040902060028101919091556003019290925550505b505050505050505050565b6000818152600260208181526040808420815161018081018352815473ffffffffffffffffffffffffffffffffffffffff908116825260018301548116828601529482015485168184015260038083015495861660608301527401000000000000000000000000000000000000000090950460ff1615156080820152600482015460a0820152600582015460c08201819052600683015460e0830152600783015461010083015260088301546101208301526009830154610140830152600a90920154610160820181905287875294909352908420549192610b4c929190612e71565b600060208284031215613c5d57600080fd5b5035919050565b73ffffffffffffffffffffffffffffffffffffffff811681146115ae57600080fd5b8035613c9181613c64565b919050565b600060208284031215613ca857600080fd5b8135610b4c81613c64565b60008060208385031215613cc657600080fd5b823567ffffffffffffffff80821115613cde57600080fd5b818501915085601f830112613cf257600080fd5b813581811115613d0157600080fd5b866020828501011115613d1357600080fd5b60209290920196919550909350505050565b80151581146115ae57600080fd5b8035613c9181613d25565b600060208284031215613d5057600080fd5b8135610b4c81613d25565b60008060808385031215613d6e57600080fd5b8235915083608084011115613d8257600080fd5b50926020919091019150565b60008060408385031215613da157600080fd5b8235613dac81613c64565b91506020830135613dbc81613d25565b809150509250929050565b60008060408385031215613dda57600080fd5b823591506020830135613dbc81613c64565b7f4e487b7100000000000000000000000000000000000000000000000000000000600052604160045260246000fd5b604051610180810167ffffffffffffffff81118282101715613e3f57613e3f613dec565b60405290565b803563ffffffff81168114613c9157600080fd5b600060c08284031215613e6b57600080fd5b82601f830112613e7a57600080fd5b60405160c0810181811067ffffffffffffffff82111715613e9d57613e9d613dec565b6040528060c0840185811115613eb257600080fd5b845b81811015613ed357613ec581613e45565b835260209283019201613eb4565b509195945050505050565b600080600060608486031215613ef357600080fd5b83359250602084013591506040840135613f0c81613c64565b809150509250925092565b600080600060608486031215613f2c57600080fd5b505081359360208301359350604090920135919050565b7f4e487b7100000000000000000000000000000000000000000000000000000000600052601160045260246000fd5b600082821015613f8457613f84613f43565b500390565b65ffffffffffff811681146115ae57600080fd5b8035613c9181613f89565b8035600081900b8114613c9157600080fd5b60006101808284031215613fcd57600080fd5b613fd5613e1b565b613fde83613c86565b8152613fec60208401613c86565b6020820152613ffd60408401613c86565b604082015261400e60608401613d33565b60608201526080830135608082015260a083013560a082015260c083013560c082015261403d60e08401613e45565b60e0820152610100614050818501613f9d565b90820152610120614062848201613f9d565b90820152610140614074848201613e45565b90820152610160614086848201613fa8565b908201529392505050565b6000602082840312156140a357600080fd5b8151610b4c81613c64565b6000602082840312156140c057600080fd5b610b4c82613e45565b6000602082840312156140db57600080fd5b8151610b4c81613d25565b6000602082840312156140f857600080fd5b8151610b4c81613f89565b6000821982111561411657614116613f43565b500190565b600065ffffffffffff8381169083168181101561413a5761413a613f43565b039392505050565b7f4e487b7100000000000000000000000000000000000000000000000000000000600052601260045260246000fd5b60006020828403121561418357600080fd5b815160ff81168114610b4c57600080fd5b6000602082840312156141a657600080fd5b5051919050565b600063ffffffff808316818516818304811182151516156141d0576141d0613f43565b02949350505050565b600065ffffffffffff8083168185168083038211156141fa576141fa613f43565b0194935050505056fea2646970667358221220e28f280e8437835a428859f7537a09cd85bbebb738b02608bbe02e1e4e355f6464736f6c634300080f0033",
    "linkReferences": {}
  },
  "methodIdentifiers": {
    "adjustments(uint256)": "bc3b2b12",
    "allowNewMarkets()": "afa9d3b0",
    "authority()": "bf7e214f",
    "callbackAuthorized(address)": "5dc4d16b",
    "closeMarket(uint256)": "ae418095",
    "createMarket(bytes)": "53c7f8e0",
    "currentCapacity(uint256)": "1c063a6c",
    "currentControlVariable(uint256)": "0a9d85eb",
    "currentDebt(uint256)": "bcb29667",
    "defaultTuneAdjustment()": "ea0aca33",
    "defaultTuneInterval()": "d9ccdc93",
    "getAggregator()": "3ad59dbc",
    "getMarketInfoForPurchase(uint256)": "acc5570c",
    "getTeller()": "9787d107",
    "isInstantSwap(uint256)": "8b098db3",
    "isLive(uint256)": "27507458",
    "marketPrice(uint256)": "3adec5a7",
    "marketScale(uint256)": "946824cd",
    "markets(uint256)": "b1283e77",
    "maxAmountAccepted(uint256,address)": "c7bf8ca0",
    "metadata(uint256)": "e3684e39",
    "minDebtBuffer()": "8973082c",
    "minDebtDecayInterval()": "e9220673",
    "minDepositInterval()": "d2040687",
    "minMarketDuration()": "d2bee323",
    "newOwners(uint256)": "6729a41e",
    "owner()": "8da5cb5b",
    "ownerOf(uint256)": "6352211e",
    "payoutFor(uint256,uint256,address)": "bf48582b",
    "pullOwnership(uint256)": "10b05317",
    "purchaseBond(uint256,uint256,uint256)": "e007fa97",
    "pushOwnership(uint256,address)": "bcf6cde8",
    "setAllowNewMarkets(bool)": "5f77274e",
    "setAuthority(address)": "7a9e5e4b",
    "setCallbackAuthStatus(address,bool)": "bbbdd95a",
    "setDefaults(uint32[6])": "bd1f3a5e",
    "setIntervals(uint256,uint32[3])": "699e17d9",
    "setOwner(address)": "13af4035",
    "terms(uint256)": "c0aa0e8a"
  }
}