{
  "abi": [
    {
      "inputs": [
        {
          "internalType": "contract IBondTeller",
          "name": "teller_",
          "type": "address"
        },
        {
          "internalType": "contract IBondAggregator",
          "name": "aggregator_",
          "type": "address"
        },
        {
          "internalType": "address",
          "name": "guardian_",
          "type": "address"
        },
        {
          "internalType": "contract Authority",
          "name": "authority_",
          "type": "address"
        }
      ],
      "stateMutability": "nonpayable",
      "type": "constructor"
    },
    {
      "inputs": [],
      "name": "Auctioneer_AmountLessThanMinimum",
      "type": "error"
    },
    {
      "inputs": [],
      "name": "Auctioneer_BadExpiry",
      "type": "error"
    },
    {
      "inputs": [],
      "name": "Auctioneer_InitialPriceLessThanMin",
      "type": "error"
    },
    {
      "inputs": [],
      "name": "Auctioneer_InvalidCallback",
      "type": "error"
    },
    {
      "inputs": [],
      "name": "Auctioneer_InvalidParams",
      "type": "error"
    },
    {
      "inputs": [
        {
          "internalType": "uint256",
          "name": "conclusion_",
          "type": "uint256"
        }
      ],
      "name": "Auctioneer_MarketConcluded",
      "type": "error"
    },
    {
      "inputs": [],
      "name": "Auctioneer_MaxPayoutExceeded",
      "type": "error"
    },
    {
      "inputs": [],
      "name": "Auctioneer_NewMarketsNotAllowed",
      "type": "error"
    },
    {
      "inputs": [],
      "name": "Auctioneer_NotAuthorized",
      "type": "error"
    },
    {
      "inputs": [],
      "name": "Auctioneer_OnlyMarketOwner",
      "type": "error"
    },
    {
      "anonymous": false,
      "inputs": [
        {
          "indexed": true,
          "internalType": "address",
          "name": "user",
          "type": "address"
        },
        {
          "indexed": true,
          "internalType": "contract Authority",
          "name": "newAuthority",
          "type": "address"
        }
      ],
      "name": "AuthorityUpdated",
      "type": "event"
    },
    {
      "anonymous": false,
      "inputs": [
        {
          "indexed": true,
          "internalType": "uint256",
          "name": "id",
          "type": "uint256"
        }
      ],
      "name": "MarketClosed",
      "type": "event"
    },
    {
      "anonymous": false,
      "inputs": [
        {
          "indexed": true,
          "internalType": "uint256",
          "name": "id",
          "type": "uint256"
        },
        {
          "indexed": true,
          "internalType": "address",
          "name": "payoutToken",
          "type": "address"
        },
        {
          "indexed": true,
          "internalType": "address",
          "name": "quoteToken",
          "type": "address"
        },
        {
          "indexed": false,
          "internalType": "uint48",
          "name": "vesting",
          "type": "uint48"
        },
        {
          "indexed": false,
          "internalType": "uint256",
          "name": "initialPrice",
          "type": "uint256"
        }
      ],
      "name": "MarketCreated",
      "type": "event"
    },
    {
      "anonymous": false,
      "inputs": [
        {
          "indexed": true,
          "internalType": "address",
          "name": "user",
          "type": "address"
        },
        {
          "indexed": true,
          "internalType": "address",
          "name": "newOwner",
          "type": "address"
        }
      ],
      "name": "OwnerUpdated",
      "type": "event"
    },
    {
      "anonymous": false,
      "inputs": [
        {
          "indexed": true,
          "internalType": "uint256",
          "name": "id",
          "type": "uint256"
        },
        {
          "indexed": false,
          "internalType": "uint256",
          "name": "oldControlVariable",
          "type": "uint256"
        },
        {
          "indexed": false,
          "internalType": "uint256",
          "name": "newControlVariable",
          "type": "uint256"
        }
      ],
      "name": "Tuned",
      "type": "event"
    },
    {
      "inputs": [
        {
          "internalType": "uint256",
          "name": "",
          "type": "uint256"
        }
      ],
      "name": "adjustments",
      "outputs": [
        {
          "internalType": "uint256",
          "name": "change",
          "type": "uint256"
        },
        {
          "internalType": "uint48",
          "name": "lastAdjustment",
          "type": "uint48"
        },
        {
          "internalType": "uint48",
          "name": "timeToAdjusted",
          "type": "uint48"
        },
        {
          "internalType": "bool",
          "name": "active",
          "type": "bool"
        }
      ],
      "stateMutability": "view",
      "type": "function"
    },
    {
      "inputs": [],
      "name": "allowNewMarkets",
      "outputs": [
        {
          "internalType": "bool",
          "name": "",
          "type": "bool"
        }
      ],
      "stateMutability": "view",
      "type": "function"
    },
    {
      "inputs": [],
      "name": "authority",
      "outputs": [
        {
          "internalType": "contract Authority",
          "name": "",
          "type": "address"
        }
      ],
      "stateMutability": "view",
      "type": "function"
    },
    {
      "inputs": [
        {
          "internalType": "address",
          "name": "",
          "type": "address"
        }
      ],
      "name": "callbackAuthorized",
      "outputs": [
        {
          "internalType": "bool",
          "name": "",
          "type": "bool"
        }
      ],
      "stateMutability": "view",
      "type": "function"
    },
    {
      "inputs": [
        {
          "internalType": "uint256",
          "name": "id_",
          "type": "uint256"
        }
      ],
      "name": "closeMarket",
      "outputs": [],
      "stateMutability": "nonpayable",
      "type": "function"
    },
    {
      "inputs": [
        {
          "components": [
            {
              "internalType": "contract ERC20",
              "name": "payoutToken",
              "type": "address"
            },
            {
              "internalType": "contract ERC20",
              "name": "quoteToken",
              "type": "address"
            },
            {
              "internalType": "address",
              "name": "callbackAddr",
              "type": "address"
            },
            {
              "internalType": "bool",
              "name": "capacityInQuote",
              "type": "bool"
            },
            {
              "internalType": "uint256",
              "name": "capacity",
              "type": "uint256"
            },
            {
              "internalType": "uint256",
              "name": "formattedInitialPrice",
              "type": "uint256"
            },
            {
              "internalType": "uint256",
              "name": "formattedMinimumPrice",
              "type": "uint256"
            },
            {
              "internalType": "uint32",
              "name": "debtBuffer",
              "type": "uint32"
            },
            {
              "internalType": "uint48",
              "name": "vesting",
              "type": "uint48"
            },
            {
              "internalType": "uint48",
              "name": "conclusion",
              "type": "uint48"
            },
            {
              "internalType": "uint32",
              "name": "depositInterval",
              "type": "uint32"
            },
            {
              "internalType": "int8",
              "name": "scaleAdjustment",
              "type": "int8"
            }
          ],
          "internalType": "struct IBondAuctioneer.MarketParams",
          "name": "params_",
          "type": "tuple"
        }
      ],
      "name": "createMarket",
      "outputs": [
        {
          "internalType": "uint256",
          "name": "",
          "type": "uint256"
        }
      ],
      "stateMutability": "nonpayable",
      "type": "function"
    },
    {
      "inputs": [
        {
          "internalType": "uint256",
          "name": "id_",
          "type": "uint256"
        }
      ],
      "name": "currentCapacity",
      "outputs": [
        {
          "internalType": "uint256",
          "name": "",
          "type": "uint256"
        }
      ],
      "stateMutability": "view",
      "type": "function"
    },
    {
      "inputs": [
        {
          "internalType": "uint256",
          "name": "id_",
          "type": "uint256"
        }
      ],
      "name": "currentControlVariable",
      "outputs": [
        {
          "internalType": "uint256",
          "name": "",
          "type": "uint256"
        }
      ],
      "stateMutability": "view",
      "type": "function"
    },
    {
      "inputs": [
        {
          "internalType": "uint256",
          "name": "id_",
          "type": "uint256"
        }
      ],
      "name": "currentDebt",
      "outputs": [
        {
          "internalType": "uint256",
          "name": "",
          "type": "uint256"
        }
      ],
      "stateMutability": "view",
      "type": "function"
    },
    {
      "inputs": [],
      "name": "defaultTuneAdjustment",
      "outputs": [
        {
          "internalType": "uint32",
          "name": "",
          "type": "uint32"
        }
      ],
      "stateMutability": "view",
      "type": "function"
    },
    {
      "inputs": [],
      "name": "defaultTuneInterval",
      "outputs": [
        {
          "internalType": "uint32",
          "name": "",
          "type": "uint32"
        }
      ],
      "stateMutability": "view",
      "type": "function"
    },
    {
      "inputs": [],
      "name": "getAggregator",
      "outputs": [
        {
          "internalType": "contract IBondAggregator",
          "name": "",
          "type": "address"
        }
      ],
      "stateMutability": "view",
      "type": "function"
    },
    {
      "inputs": [
        {
          "internalType": "uint256",
          "name": "id_",
          "type": "uint256"
        }
      ],
      "name": "getMarketInfoForPurchase",
      "outputs": [
        {
          "internalType": "address",
          "name": "owner",
          "type": "address"
        },
        {
          "internalType": "address",
          "name": "callbackAddr",
          "type": "address"
        },
        {
          "internalType": "contract ERC20",
          "name": "payoutToken",
          "type": "address"
        },
        {
          "internalType": "contract ERC20",
          "name": "quoteToken",
          "type": "address"
        },
        {
          "internalType": "uint48",
          "name": "vesting",
          "type": "uint48"
        },
        {
          "internalType": "uint256",
          "name": "maxPayout",
          "type": "uint256"
        }
      ],
      "stateMutability": "view",
      "type": "function"
    },
    {
      "inputs": [],
      "name": "getTeller",
      "outputs": [
        {
          "internalType": "contract IBondTeller",
          "name": "",
          "type": "address"
        }
      ],
      "stateMutability": "view",
      "type": "function"
    },
    {
      "inputs": [
        {
          "internalType": "uint256",
          "name": "id_",
          "type": "uint256"
        }
      ],
      "name": "isInstantSwap",
      "outputs": [
        {
          "internalType": "bool",
          "name": "",
          "type": "bool"
        }
      ],
      "stateMutability": "view",
      "type": "function"
    },
    {
      "inputs": [
        {
          "internalType": "uint256",
          "name": "id_",
          "type": "uint256"
        }
      ],
      "name": "isLive",
      "outputs": [
        {
          "internalType": "bool",
          "name": "",
          "type": "bool"
        }
      ],
      "stateMutability": "view",
      "type": "function"
    },
    {
      "inputs": [
        {
          "internalType": "uint256",
          "name": "id_",
          "type": "uint256"
        }
      ],
      "name": "marketPrice",
      "outputs": [
        {
          "internalType": "uint256",
          "name": "",
          "type": "uint256"
        }
      ],
      "stateMutability": "view",
      "type": "function"
    },
    {
      "inputs": [
        {
          "internalType": "uint256",
          "name": "",
          "type": "uint256"
        }
      ],
      "name": "markets",
      "outputs": [
        {
          "internalType": "address",
          "name": "owner",
          "type": "address"
        },
        {
          "internalType": "contract ERC20",
          "name": "payoutToken",
          "type": "address"
        },
        {
          "internalType": "contract ERC20",
          "name": "quoteToken",
          "type": "address"
        },
        {
          "internalType": "address",
          "name": "callbackAddr",
          "type": "address"
        },
        {
          "internalType": "bool",
          "name": "capacityInQuote",
          "type": "bool"
        },
        {
          "internalType": "uint256",
          "name": "capacity",
          "type": "uint256"
        },
        {
          "internalType": "uint256",
          "name": "totalDebt",
          "type": "uint256"
        },
        {
          "internalType": "uint256",
          "name": "minPrice",
          "type": "uint256"
        },
        {
          "internalType": "uint256",
          "name": "maxPayout",
          "type": "uint256"
        },
        {
          "internalType": "uint256",
          "name": "sold",
          "type": "uint256"
        },
        {
          "internalType": "uint256",
          "name": "purchased",
          "type": "uint256"
        },
        {
          "internalType": "uint256",
          "name": "scale",
          "type": "uint256"
        }
      ],
      "stateMutability": "view",
      "type": "function"
    },
    {
      "inputs": [
        {
          "internalType": "uint256",
          "name": "id_",
          "type": "uint256"
        },
        {
          "internalType": "address",
          "name": "referrer_",
          "type": "address"
        }
      ],
      "name": "maxAmountAccepted",
      "outputs": [
        {
          "internalType": "uint256",
          "name": "",
          "type": "uint256"
        }
      ],
      "stateMutability": "view",
      "type": "function"
    },
    {
      "inputs": [
        {
          "internalType": "uint256",
          "name": "",
          "type": "uint256"
        }
      ],
      "name": "metadata",
      "outputs": [
        {
          "internalType": "uint48",
          "name": "lastTune",
          "type": "uint48"
        },
        {
          "internalType": "uint48",
          "name": "lastDecay",
          "type": "uint48"
        },
        {
          "internalType": "uint32",
          "name": "length",
          "type": "uint32"
        },
        {
          "internalType": "uint32",
          "name": "depositInterval",
          "type": "uint32"
        },
        {
          "internalType": "uint32",
          "name": "tuneInterval",
          "type": "uint32"
        },
        {
          "internalType": "uint32",
          "name": "tuneAdjustmentDelay",
          "type": "uint32"
        },
        {
          "internalType": "uint32",
          "name": "debtDecayInterval",
          "type": "uint32"
        },
        {
          "internalType": "uint256",
          "name": "tuneIntervalCapacity",
          "type": "uint256"
        },
        {
          "internalType": "uint256",
          "name": "tuneBelowCapacity",
          "type": "uint256"
        },
        {
          "internalType": "uint256",
          "name": "lastTuneDebt",
          "type": "uint256"
        }
      ],
      "stateMutability": "view",
      "type": "function"
    },
    {
      "inputs": [],
      "name": "minDebtBuffer",
      "outputs": [
        {
          "internalType": "uint32",
          "name": "",
          "type": "uint32"
        }
      ],
      "stateMutability": "view",
      "type": "function"
    },
    {
      "inputs": [],
      "name": "minDebtDecayInterval",
      "outputs": [
        {
          "internalType": "uint32",
          "name": "",
          "type": "uint32"
        }
      ],
      "stateMutability": "view",
      "type": "function"
    },
    {
      "inputs": [],
      "name": "minDepositInterval",
      "outputs": [
        {
          "internalType": "uint32",
          "name": "",
          "type": "uint32"
        }
      ],
      "stateMutability": "view",
      "type": "function"
    },
    {
      "inputs": [],
      "name": "minMarketDuration",
      "outputs": [
        {
          "internalType": "uint32",
          "name": "",
          "type": "uint32"
        }
      ],
      "stateMutability": "view",
      "type": "function"
    },
    {
      "inputs": [
        {
          "internalType": "uint256",
          "name": "",
          "type": "uint256"
        }
      ],
      "name": "newOwners",
      "outputs": [
        {
          "internalType": "address",
          "name": "",
          "type": "address"
        }
      ],
      "stateMutability": "view",
      "type": "function"
    },
    {
      "inputs": [],
      "name": "owner",
      "outputs": [
        {
          "internalType": "address",
          "name": "",
          "type": "address"
        }
      ],
      "stateMutability": "view",
      "type": "function"
    },
    {
      "inputs": [
        {
          "internalType": "uint256",
          "name": "id_",
          "type": "uint256"
        }
      ],
      "name": "ownerOf",
      "outputs": [
        {
          "internalType": "address",
          "name": "",
          "type": "address"
        }
      ],
      "stateMutability": "view",
      "type": "function"
    },
    {
      "inputs": [
        {
          "internalType": "uint256",
          "name": "amount_",
          "type": "uint256"
        },
        {
          "internalType": "uint256",
          "name": "id_",
          "type": "uint256"
        },
        {
          "internalType": "address",
          "name": "referrer_",
          "type": "address"
        }
      ],
      "name": "payoutFor",
      "outputs": [
        {
          "internalType": "uint256",
          "name": "",
          "type": "uint256"
        }
      ],
      "stateMutability": "view",
      "type": "function"
    },
    {
      "inputs": [
        {
          "internalType": "uint256",
          "name": "id_",
          "type": "uint256"
        }
      ],
      "name": "pullOwnership",
      "outputs": [],
      "stateMutability": "nonpayable",
      "type": "function"
    },
    {
      "inputs": [
        {
          "internalType": "uint256",
          "name": "id_",
          "type": "uint256"
        },
        {
          "internalType": "uint256",
          "name": "amount_",
          "type": "uint256"
        },
        {
          "internalType": "uint256",
          "name": "minAmountOut_",
          "type": "uint256"
        }
      ],
      "name": "purchaseBond",
      "outputs": [
        {
          "internalType": "uint256",
          "name": "payout",
          "type": "uint256"
        }
      ],
      "stateMutability": "nonpayable",
      "type": "function"
    },
    {
      "inputs": [
        {
          "internalType": "uint256",
          "name": "id_",
          "type": "uint256"
        },
        {
          "internalType": "address",
          "name": "newOwner_",
          "type": "address"
        }
      ],
      "name": "pushOwnership",
      "outputs": [],
      "stateMutability": "nonpayable",
      "type": "function"
    },
    {
      "inputs": [
        {
          "internalType": "bool",
          "name": "status_",
          "type": "bool"
        }
      ],
      "name": "setAllowNewMarkets",
      "outputs": [],
      "stateMutability": "nonpayable",
      "type": "function"
    },
    {
      "inputs": [
        {
          "internalType": "contract Authority",
          "name": "newAuthority",
          "type": "address"
        }
      ],
      "name": "setAuthority",
      "outputs": [],
      "stateMutability": "nonpayable",
      "type": "function"
    },
    {
      "inputs": [
        {
          "internalType": "address",
          "name": "creator_",
          "type": "address"
        },
        {
          "internalType": "bool",
          "name": "status_",
          "type": "bool"
        }
      ],
      "name": "setCallbackAuthStatus",
      "outputs": [],
      "stateMutability": "nonpayable",
      "type": "function"
    },
    {
      "inputs": [
        {
          "internalType": "uint32[6]",
          "name": "defaults_",
          "type": "uint32[6]"
        }
      ],
      "name": "setDefaults",
      "outputs": [],
      "stateMutability": "nonpayable",
      "type": "function"
    },
    {
      "inputs": [
        {
          "internalType": "uint256",
          "name": "id_",
          "type": "uint256"
        },
        {
          "internalType": "uint32[3]",
          "name": "intervals_",
          "type": "uint32[3]"
        }
      ],
      "name": "setIntervals",
      "outputs": [],
      "stateMutability": "nonpayable",
      "type": "function"
    },
    {
      "inputs": [
        {
          "internalType": "address",
          "name": "newOwner",
          "type": "address"
        }
      ],
      "name": "setOwner",
      "outputs": [],
      "stateMutability": "nonpayable",
      "type": "function"
    },
    {
      "inputs": [
        {
          "internalType": "uint256",
          "name": "",
          "type": "uint256"
        }
      ],
      "name": "terms",
      "outputs": [
        {
          "internalType": "uint256",
          "name": "controlVariable",
          "type": "uint256"
        },
        {
          "internalType": "uint256",
          "name": "maxDebt",
          "type": "uint256"
        },
        {
          "internalType": "uint48",
          "name": "vesting",
          "type": "uint48"
        },
        {
          "internalType": "uint48",
          "name": "conclusion",
          "type": "uint48"
        }
      ],
      "stateMutability": "view",
      "type": "function"
    }
  ],
  "bytecode": {
    "object": "0x60c06040523480156200001157600080fd5b50604051620042243803806200422483398101604081905262000034916200013d565b600080546001600160a01b03199081166001600160a01b0385811691821784556001805490931690851617909155604051869286928692869284928492909133917f8292fce18fa69edf4db7b94ea2e58241df0ae57f97e0a6c9b29067028bf92d769190a36040516001600160a01b0382169033907fa3396fd7f6e0a21b50e5089d2da70d5ac0a3bbbd1f617a93f134b7638998019890600090a3505050506001600160a01b039081166080521660a0525050600980546001600160c01b0319167527100001518000000e100003f48000000e100001518017905550506007805460ff19166001179055620001a5565b6001600160a01b03811681146200013a57600080fd5b50565b600080600080608085870312156200015457600080fd5b8451620001618162000124565b6020860151909450620001748162000124565b6040860151909350620001878162000124565b60608601519092506200019a8162000124565b939692955090935050565b60805160a051614036620001ee600039600081816104d201528181610d8d0152818161194001528181611b7c0152611c3101526000818161034001526123c501526140366000f3fe608060405234801561001057600080fd5b50600436106102925760003560e01c8063ae41809511610160578063bf7e214f116100d8578063d9ccdc931161008c578063e3684e3911610071578063e3684e3914610971578063e922067314610aaf578063ea0aca3314610acb57600080fd5b8063d9ccdc931461094e578063e007fa971461095e57600080fd5b8063c7bf8ca0116100bd578063c7bf8ca0146108f7578063d20406871461090a578063d2bee3231461092a57600080fd5b8063bf7e214f14610864578063c0aa0e8a1461088457600080fd5b8063bc3b2b121161012f578063bcf6cde811610114578063bcf6cde81461082b578063bd1f3a5e1461083e578063bf48582b1461085157600080fd5b8063bc3b2b1214610794578063bcb296671461081857600080fd5b8063ae41809514610650578063afa9d3b014610663578063b1283e7714610670578063bbbdd95a1461078157600080fd5b80635f77274e1161020e5780638973082c116101c25780638da5cb5b116101a75780638da5cb5b146104b05780639787d107146104d0578063acc5570c146104f657600080fd5b80638973082c146104605780638b098db31461049d57600080fd5b80636729a41e116101f35780636729a41e14610404578063699e17d91461043a5780637a9e5e4b1461044d57600080fd5b80635f77274e146103bb5780636352211e146103ce57600080fd5b806327507458116102655780633ad59dbc1161024a5780633ad59dbc1461033e5780633adec5a7146103855780635dc4d16b1461039857600080fd5b80632750745814610308578063380b5bb11461032b57600080fd5b80630a9d85eb1461029757806310b05317146102bd57806313af4035146102d25780631c063a6c146102e5575b600080fd5b6102aa6102a5366004613ae9565b610ae3565b6040519081526020015b60405180910390f35b6102d06102cb366004613ae9565b610b15565b005b6102d06102e0366004613b34565b610bd0565b6102aa6102f3366004613ae9565b60009081526002602052604090206004015490565b61031b610316366004613ae9565b610cd9565b60405190151581526020016102b4565b6102aa610339366004613c08565b610d22565b7f00000000000000000000000000000000000000000000000000000000000000005b60405173ffffffffffffffffffffffffffffffffffffffff90911681526020016102b4565b6102aa610393366004613ae9565b610e01565b61031b6103a6366004613b34565b60086020526000908152604090205460ff1681565b6102d06103c9366004613cdf565b610e64565b6103606103dc366004613ae9565b60009081526002602052604090205473ffffffffffffffffffffffffffffffffffffffff1690565b610360610412366004613ae9565b60066020526000908152604090205473ffffffffffffffffffffffffffffffffffffffff1681565b6102d0610448366004613cfc565b610f29565b6102d061045b366004613b34565b611365565b6009546104889074010000000000000000000000000000000000000000900463ffffffff1681565b60405163ffffffff90911681526020016102b4565b61031b6104ab366004613ae9565b6114c2565b6000546103609073ffffffffffffffffffffffffffffffffffffffff1681565b7f0000000000000000000000000000000000000000000000000000000000000000610360565b6105fa610504366004613ae9565b6000818152600260208181526040808420815161018081018352815473ffffffffffffffffffffffffffffffffffffffff90811680835260018401548216838701819052848801548316848701819052600380870154948516606087018190527401000000000000000000000000000000000000000090950460ff1615156080870152600487015460a0870152600587015460c0870152600687015460e08701526007870154610100870190815260088801546101208801526009880154610140880152600a90970154610160909601959095529989529290955292909520909301549251919590949265ffffffffffff169190565b6040805173ffffffffffffffffffffffffffffffffffffffff97881681529587166020870152938616938501939093529316606083015265ffffffffffff909216608082015260a081019190915260c0016102b4565b6102d061065e366004613ae9565b6114f8565b60075461031b9060ff1681565b61070761067e366004613ae9565b600260208190526000918252604090912080546001820154928201546003830154600484015460058501546006860154600787015460088801546009890154600a9099015473ffffffffffffffffffffffffffffffffffffffff9889169a891699978916988716977401000000000000000000000000000000000000000090970460ff1696908c565b6040805173ffffffffffffffffffffffffffffffffffffffff9d8e1681529b8d1660208d0152998c16998b0199909952999096166060890152931515608088015260a087019290925260c086015260e0850152610100840152610120830152610140820192909252610160810191909152610180016102b4565b6102d061078f366004613d2f565b611561565b6107e76107a2366004613ae9565b6005602052600090815260409020805460019091015465ffffffffffff8082169166010000000000008104909116906c01000000000000000000000000900460ff1684565b6040516102b4949392919093845265ffffffffffff9283166020850152911660408301521515606082015260800190565b6102aa610826366004613ae9565b61164b565b6102d0610839366004613d68565b611672565b6102d061084c366004613d8d565b611722565b6102aa61085f366004613e12565b6118f6565b6001546103609073ffffffffffffffffffffffffffffffffffffffff1681565b6108c9610892366004613ae9565b60036020526000908152604090208054600182015460029092015490919065ffffffffffff80821691660100000000000090041684565b60408051948552602085019390935265ffffffffffff918216928401929092521660608201526080016102b4565b6102aa610905366004613d68565b6119f9565b600954610488906c01000000000000000000000000900463ffffffff1681565b60095461048890700100000000000000000000000000000000900463ffffffff1681565b6009546104889063ffffffff1681565b6102aa61096c366004613e4b565b611c17565b610a4961097f366004613ae9565b600460205260009081526040902080546001820154600283015460039093015465ffffffffffff80841694660100000000000085049091169363ffffffff6c0100000000000000000000000082048116947001000000000000000000000000000000008304821694740100000000000000000000000000000000000000008404831694780100000000000000000000000000000000000000000000000085048416947c0100000000000000000000000000000000000000000000000000000000900490931692908a565b6040805165ffffffffffff9b8c1681529a90991660208b015263ffffffff978816988a01989098529486166060890152928516608088015290841660a08701529290921660c085015260e0840191909152610100830152610120820152610140016102b4565b6009546104889068010000000000000000900463ffffffff1681565b60095461048890640100000000900463ffffffff1681565b600080610aef83611e81565b5050600084815260036020526040902054909150610b0e908290613ea6565b9392505050565b60008181526006602052604090205473ffffffffffffffffffffffffffffffffffffffff163314610b72576040517f2c47703200000000000000000000000000000000000000000000000000000000815260040160405180910390fd5b600090815260066020908152604080832054600290925290912080547fffffffffffffffffffffffff00000000000000000000000000000000000000001673ffffffffffffffffffffffffffffffffffffffff909216919091179055565b610bfe336000357fffffffff0000000000000000000000000000000000000000000000000000000016611f5c565b610c69576040517f08c379a000000000000000000000000000000000000000000000000000000000815260206004820152600c60248201527f554e415554484f52495a4544000000000000000000000000000000000000000060448201526064015b60405180910390fd5b600080547fffffffffffffffffffffffff00000000000000000000000000000000000000001673ffffffffffffffffffffffffffffffffffffffff83169081178255604051909133917f8292fce18fa69edf4db7b94ea2e58241df0ae57f97e0a6c9b29067028bf92d769190a350565b60008181526002602052604081206004015415801590610d1c575060008281526003602052604090206002015442660100000000000090910465ffffffffffff16115b92915050565b600080610d2e8361206d565b83516101008501516040517fc6e38a4b00000000000000000000000000000000000000000000000000000000815273ffffffffffffffffffffffffffffffffffffffff928316600482015265ffffffffffff90911660248201529192507f0000000000000000000000000000000000000000000000000000000000000000169063c6e38a4b906044016020604051808303816000875af1158015610dd6573d6000803e3d6000fd5b505050506040513d601f19601f82011682018060405250810190610dfa9190613ebd565b5092915050565b600080610e32610e108461164b565b6000858152600260205260409020600a0154610e2b86610ae3565b9190612d08565b6000848152600260205260409020600601549091508111610d1c57600083815260026020526040902060060154610b0e565b610e92336000357fffffffff0000000000000000000000000000000000000000000000000000000016611f5c565b610ef8576040517f08c379a000000000000000000000000000000000000000000000000000000000815260206004820152600c60248201527f554e415554484f52495a454400000000000000000000000000000000000000006044820152606401610c60565b600780547fffffffffffffffffffffffffffffffffffffffffffffffffffffffffffffff0016911515919091179055565b610f366020820182613eda565b63ffffffff161580610f5b5750610f536040820160208301613eda565b63ffffffff16155b80610f795750610f716060820160408301613eda565b63ffffffff16155b15610fb0576040517f3b596f5f00000000000000000000000000000000000000000000000000000000815260040160405180910390fd5b610fc06040820160208301613eda565b63ffffffff16610fd36020830183613eda565b63ffffffff161015611011576040517f3b596f5f00000000000000000000000000000000000000000000000000000000815260040160405180910390fd5b60008281526004602090815260409091208054909170010000000000000000000000000000000090910463ffffffff169061104e90840184613eda565b63ffffffff16101561108c576040517f3b596f5f00000000000000000000000000000000000000000000000000000000815260040160405180910390fd5b60095468010000000000000000900463ffffffff166110b16060840160408501613eda565b63ffffffff1610156110ef576040517f3b596f5f00000000000000000000000000000000000000000000000000000000815260040160405180910390fd5b600083815260026020818152604092839020835161018081018552815473ffffffffffffffffffffffffffffffffffffffff908116808352600184015482169483019490945293820154841694810194909452600381015492831660608501527401000000000000000000000000000000000000000090920460ff1615156080840152600482015460a0840152600582015460c0840152600682015460e0840152600782015461010084015260088201546101208401526009820154610140840152600a9091015461016083015233146111f5576040517f4e1c8b5d00000000000000000000000000000000000000000000000000000000815260040160405180910390fd5b6112026020840184613eda565b825463ffffffff9190911674010000000000000000000000000000000000000000027fffffffffffffffff00000000ffffffffffffffffffffffffffffffffffffffff9091161782556112a061125b6020850185613eda565b60008681526003602052604090206002015463ffffffff91909116906112949042906601000000000000900465ffffffffffff16613ea6565b60a08401519190612d08565b60018301556112b56040840160208501613eda565b825463ffffffff919091167801000000000000000000000000000000000000000000000000027fffffffff00000000ffffffffffffffffffffffffffffffffffffffffffffffff9091161782556113126060840160408501613eda565b825463ffffffff919091167c0100000000000000000000000000000000000000000000000000000000027bffffffffffffffffffffffffffffffffffffffffffffffffffffffff90911617909155505050565b60005473ffffffffffffffffffffffffffffffffffffffff1633148061144857506001546040517fb70096130000000000000000000000000000000000000000000000000000000081523360048201523060248201526000357fffffffff0000000000000000000000000000000000000000000000000000000016604482015273ffffffffffffffffffffffffffffffffffffffff9091169063b700961390606401602060405180830381865afa158015611424573d6000803e3d6000fd5b505050506040513d601f19601f820116820180604052508101906114489190613ef5565b61145157600080fd5b600180547fffffffffffffffffffffffff00000000000000000000000000000000000000001673ffffffffffffffffffffffffffffffffffffffff831690811790915560405133907fa3396fd7f6e0a21b50e5089d2da70d5ac0a3bbbd1f617a93f134b7638998019890600090a350565b60008181526003602052604081206002015465ffffffffffff16635dba24008111156114f15742811115610b0e565b1592915050565b60008181526002602052604090205473ffffffffffffffffffffffffffffffffffffffff163314611555576040517f4e1c8b5d00000000000000000000000000000000000000000000000000000000815260040160405180910390fd5b61155e81612dd5565b50565b61158f336000357fffffffff0000000000000000000000000000000000000000000000000000000016611f5c565b6115f5576040517f08c379a000000000000000000000000000000000000000000000000000000000815260206004820152600c60248201527f554e415554484f52495a454400000000000000000000000000000000000000006044820152606401610c60565b73ffffffffffffffffffffffffffffffffffffffff91909116600090815260086020526040902080547fffffffffffffffffffffffffffffffffffffffffffffffffffffffffffffff0016911515919091179055565b600061165682612e59565b600083815260026020526040902060050154610d1c9190613ea6565b60008281526002602052604090205473ffffffffffffffffffffffffffffffffffffffff1633146116cf576040517f4e1c8b5d00000000000000000000000000000000000000000000000000000000815260040160405180910390fd5b60009182526006602052604090912080547fffffffffffffffffffffffff00000000000000000000000000000000000000001673ffffffffffffffffffffffffffffffffffffffff909216919091179055565b611750336000357fffffffff0000000000000000000000000000000000000000000000000000000016611f5c565b6117b6576040517f08c379a000000000000000000000000000000000000000000000000000000000815260206004820152600c60248201527f554e415554484f52495a454400000000000000000000000000000000000000006044820152606401610c60565b805160098054602084015160408501516060860151608087015160a09097015163ffffffff90811674010000000000000000000000000000000000000000029181166c0100000000000000000000000002938116640100000000029681167fffffffffffffffffffffffffffffffffffffffffffffffff000000000000000090951694909417959095177fffffffffffffffffffffffffffffffff0000000000000000ffffffffffffffff1690831668010000000000000000027fffffffffffffffffffffffffffffffff00000000ffffffffffffffffffffffff1617177fffffffffffffffff0000000000000000ffffffffffffffffffffffffffffffff169316700100000000000000000000000000000000027fffffffffffffffff00000000ffffffffffffffffffffffffffffffffffffffff1692909217179055565b6040517fb88c914800000000000000000000000000000000000000000000000000000000815273ffffffffffffffffffffffffffffffffffffffff828116600483015260009182917f0000000000000000000000000000000000000000000000000000000000000000169063b88c914890602401602060405180830381865afa158015611987573d6000803e3d6000fd5b505050506040513d601f19601f820116820180604052508101906119ab9190613f12565b6000858152600260205260409020600a01549091506119f0906119cd86610e01565b610e2b6119dd85620186a0613f2f565b899065ffffffffffff16620186a0612d08565b95945050505050565b6000828152600260208181526040808420815161018081018352815473ffffffffffffffffffffffffffffffffffffffff9081168252600183015481169482019490945293810154831691840191909152600381015491821660608401527401000000000000000000000000000000000000000090910460ff1615156080830152600481015460a0830152600581015460c0830152600681015460e0830152600781015461010083015260088101546101208301526009810154610140830152600a015461016082015281611acd85610e01565b905060008260800151611af55761016083015160a0840151611af0918490612d08565b611afb565b8260a001515b90506000611b1e83856101600151866101000151612d089092919063ffffffff16565b90506000818310611b2f5781611b31565b825b6040517fb88c914800000000000000000000000000000000000000000000000000000000815273ffffffffffffffffffffffffffffffffffffffff89811660048301529192506000917f0000000000000000000000000000000000000000000000000000000000000000169063b88c914890602401602060405180830381865afa158015611bc3573d6000803e3d6000fd5b505050506040513d601f19601f82011682018060405250810190611be79190613f12565b65ffffffffffff169050611c0a620186a0611c028382613ea6565b849190612d08565b9998505050505050505050565b60003373ffffffffffffffffffffffffffffffffffffffff7f00000000000000000000000000000000000000000000000000000000000000001614611c88576040517f2c47703200000000000000000000000000000000000000000000000000000000815260040160405180910390fd5b600084815260026020818152604080842060038352938190208151608081018352815481526001820154938101939093529092015465ffffffffffff80821693830193909352660100000000000090048216606082018190529091429190821610611d2f5760608201516040517f07fc4a7000000000000000000000000000000000000000000000000000000000815265ffffffffffff9091166004820152602401610c60565b6000611d3c888842612fca565b9550905085851015611d7a576040517f74ec9d5b00000000000000000000000000000000000000000000000000000000815260040160405180910390fd5b8360070154851115611db8576040517f5c430eae00000000000000000000000000000000000000000000000000000000815260040160405180910390fd5b600384015474010000000000000000000000000000000000000000900460ff16611de25784611de4565b865b846004016000828254611df79190613ea6565b9250508190555084846005016000828254611e129190613f56565b9250508190555086846009016000828254611e2d9190613f56565b9250508190555084846008016000828254611e489190613f56565b9091555050600584015460208401511015611e6b57611e6688612dd5565b611e76565b611e76888383613312565b505050509392505050565b600081815260056020908152604080832081516080810183528154815260019091015465ffffffffffff8082169483019490945266010000000000008104909316918101919091526c0100000000000000000000000090910460ff1615156060820181905282918291611eff57600080600093509350935050611f55565b6020810151611f0e9042613f2f565b9250806040015165ffffffffffff168365ffffffffffff1610915081611f35578051611f51565b60408101518151611f519165ffffffffffff8087169116612d08565b9350505b9193909250565b60015460009073ffffffffffffffffffffffffffffffffffffffff16801580159061204057506040517fb700961300000000000000000000000000000000000000000000000000000000815273ffffffffffffffffffffffffffffffffffffffff85811660048301523060248301527fffffffff000000000000000000000000000000000000000000000000000000008516604483015282169063b700961390606401602060405180830381865afa15801561201c573d6000803e3d6000fd5b505050506040513d601f19601f820116820180604052508101906120409190613ef5565b80612065575060005473ffffffffffffffffffffffffffffffffffffffff8581169116145b949350505050565b60075460009060ff166120ac576040517f64be3ffa00000000000000000000000000000000000000000000000000000000815260040160405180910390fd5b6000826000015173ffffffffffffffffffffffffffffffffffffffff1663313ce5676040518163ffffffff1660e01b8152600401602060405180830381865afa1580156120fd573d6000803e3d6000fd5b505050506040513d601f19601f820116820180604052508101906121219190613f6e565b90506000836020015173ffffffffffffffffffffffffffffffffffffffff1663313ce5676040518163ffffffff1660e01b8152600401602060405180830381865afa158015612174573d6000803e3d6000fd5b505050506040513d601f19601f820116820180604052508101906121989190613f6e565b905060068260ff1610806121af575060128260ff16115b156121e6576040517f3b596f5f00000000000000000000000000000000000000000000000000000000815260040160405180910390fd5b60068160ff1610806121fb575060128160ff16115b15612232576040517f3b596f5f00000000000000000000000000000000000000000000000000000000815260040160405180910390fd5b7fffffffffffffffffffffffffffffffffffffffffffffffffffffffffffffffe884610160015160000b12806122705750601884610160015160000b135b156122a7576040517f3b596f5f00000000000000000000000000000000000000000000000000000000815260040160405180910390fd5b3360009081526008602052604090205460ff161580156122e05750604084015173ffffffffffffffffffffffffffffffffffffffff1615155b15612317576040517f2c47703200000000000000000000000000000000000000000000000000000000815260040160405180910390fd5b5050600082610160015160240160ff16600a0a90508260c001518360a00151101561236e576040517f4496547d00000000000000000000000000000000000000000000000000000000815260040160405180910390fd5b825160208401516040517fb435914300000000000000000000000000000000000000000000000000000000815273ffffffffffffffffffffffffffffffffffffffff928316600482015290821660248201526000917f0000000000000000000000000000000000000000000000000000000000000000169063b4359143906044016020604051808303816000875af115801561240e573d6000803e3d6000fd5b505050506040513d601f19601f820116820180604052508101906124329190613f91565b90506000804286610120015165ffffffffffff166124509190613ea6565b60095490925063ffffffff700100000000000000000000000000000000909104811690831610806124a1575060095461014087015163ffffffff6c0100000000000000000000000090920482169116105b156124d8576040517f3b596f5f00000000000000000000000000000000000000000000000000000000815260040160405180910390fd5b600086610140015160056124ec9190613faa565b60095490915063ffffffff8083166801000000000000000090920416116125135780612529565b60095468010000000000000000900463ffffffff165b600954608089015191935060009161254e9163ffffffff9081169087811690612d0816565b60408051610140808201835265ffffffffffff4216808352602083015263ffffffff808916938301939093528b018051831660608301526009549051939450909260808401929182169116116125ac5760095463ffffffff166125b3565b8961014001515b63ffffffff9081168252600954640100000000900481166020830152851660408201526060810183905260808a8101519101906125f1908490613ea6565b815260200161262f8563ffffffff168763ffffffff168c6060015161261a578c60800151610e2b565b60a08d015160808e0151610e2b918d90612d08565b90526000868152600460209081526040808320845181549386015192860151606080880151608089015160a08a015160c08b015165ffffffffffff9687167fffffffffffffffffffffffffffffffffffffffff000000000000000000000000909a169990991766010000000000009690981695909502969096177fffffffffffffffffffffffff0000000000000000ffffffffffffffffffffffff166c0100000000000000000000000063ffffffff948516027fffffffffffffffffffffffff00000000ffffffffffffffffffffffffffffffff161770010000000000000000000000000000000091841691909102177fffffffff0000000000000000ffffffffffffffffffffffffffffffffffffffff1674010000000000000000000000000000000000000000958316959095027fffffffff00000000ffffffffffffffffffffffffffffffffffffffffffffffff1694909417780100000000000000000000000000000000000000000000000092821692909202919091177bffffffffffffffffffffffffffffffffffffffffffffffffffffffff167c0100000000000000000000000000000000000000000000000000000000919094160292909217825560e0840151600183015561010084015160028301556101209093015160039091015590890151909250829150819061282c578860800151612841565b60a089015160808a0151612841918990612d08565b905061285a8163ffffffff8087169088811690612d0816565b925061288289610140015163ffffffff168663ffffffff1683612d089092919063ffffffff16565b9150506040518061018001604052803373ffffffffffffffffffffffffffffffffffffffff168152602001896000015173ffffffffffffffffffffffffffffffffffffffff168152602001896020015173ffffffffffffffffffffffffffffffffffffffff168152602001896040015173ffffffffffffffffffffffffffffffffffffffff168152602001896060015115158152602001896080015181526020018381526020018960c0015181526020018281526020016000815260200160008152602001878152506002600087815260200190815260200160002060008201518160000160006101000a81548173ffffffffffffffffffffffffffffffffffffffff021916908373ffffffffffffffffffffffffffffffffffffffff16021790555060208201518160010160006101000a81548173ffffffffffffffffffffffffffffffffffffffff021916908373ffffffffffffffffffffffffffffffffffffffff16021790555060408201518160020160006101000a81548173ffffffffffffffffffffffffffffffffffffffff021916908373ffffffffffffffffffffffffffffffffffffffff16021790555060608201518160030160006101000a81548173ffffffffffffffffffffffffffffffffffffffff021916908373ffffffffffffffffffffffffffffffffffffffff16021790555060808201518160030160146101000a81548160ff02191690831515021790555060a0820151816004015560c0820151816005015560e0820151816006015561010082015181600701556101208201518160080155610140820151816009015561016082015181600a01559050506000600960149054906101000a900463ffffffff1663ffffffff16612b22620186a065ffffffffffff168585612d089092919063ffffffff16565b11612b4d5760095474010000000000000000000000000000000000000000900463ffffffff16612b5b565b612b5b82620186a085612d08565b90506000612b90828b60e0015163ffffffff1611612b795782612b85565b8a60e0015163ffffffff165b8590620186a0612d08565b612b9a9085613f56565b60a08b0151909150600090612bb0908a87612d08565b905060405180608001604052808281526020018381526020018c610100015165ffffffffffff1681526020018c610120015165ffffffffffff16815250600360008a8152602001908152602001600020600082015181600001556020820151816001015560408201518160020160006101000a81548165ffffffffffff021916908365ffffffffffff16021790555060608201518160020160066101000a81548165ffffffffffff021916908365ffffffffffff1602179055509050508a6020015173ffffffffffffffffffffffffffffffffffffffff168b6000015173ffffffffffffffffffffffffffffffffffffffff16897f8235b14cd272b4e791960fe1118559bb7fed86934fcffeeae9b1175103b0756d8e61010001518f60a00151604051612cf192919065ffffffffffff929092168252602082015260400190565b60405180910390a450959998505050505050505050565b600080807fffffffffffffffffffffffffffffffffffffffffffffffffffffffffffffffff8587098587029250828110838203039150508060001415612d605760008411612d5557600080fd5b508290049050610b0e565b808411612d6c57600080fd5b60008486880960026001871981018816978890046003810283188082028403028082028403028082028403028082028403028082028403029081029092039091026000889003889004909101858311909403939093029303949094049190911702949350505050565b6000818152600360209081526040808320600290810180547fffffffffffffffffffffffffffffffffffffffff000000000000ffffffffffff1666010000000000004265ffffffffffff16021790559091528082206004018290555182917f9dc30b8eda31a6a144e092e5de600955523a6a925cc15cc1d1b9b4872cfa615591a250565b6000818152600460209081526040808320815161014081018352815465ffffffffffff8082168352660100000000000082041694820185905263ffffffff6c0100000000000000000000000082048116948301949094527001000000000000000000000000000000008104841660608301527401000000000000000000000000000000000000000081048416608083015278010000000000000000000000000000000000000000000000008104841660a08301527c0100000000000000000000000000000000000000000000000000000000900490921660c0830152600181015460e0830152600281015461010083015260030154610120820152904283828211612f65576000612f69565b8282035b90508360c0015163ffffffff168111612fad5760c0840151600087815260026020526040902060050154612fa891839063ffffffff90811690612d0816565b612fc0565b6000868152600260205260409020600501545b9695505050505050565b6000838152600260208181526040808420815161018081018352815473ffffffffffffffffffffffffffffffffffffffff9081168252600183015481168286015294820154851681840152600382015494851660608201527401000000000000000000000000000000000000000090940460ff161515608085015260048082015460a0860152600582015460c0860152600682015460e0860152600782015461010086015260088201546101208601526009820154610140860152600a9091015461016085015287855290915282205482919042660100000000000090910465ffffffffffff16116130e6576130bf86612e59565b600087815260026020526040812060050180549091906130e0908490613ea6565b90915550505b6000868152600560205260409020600101546c01000000000000000000000000900460ff161561321b57600086815260056020526040812090808061312a8a611e81565b60008d815260036020526040812080549497509295509093508592613150908490613ea6565b909155505080156131eb578284600001600082825461316f9190613ea6565b909155505060018401805483919060069061319d9084906601000000000000900465ffffffffffff16613f2f565b92506101000a81548165ffffffffffff021916908365ffffffffffff160217905550878460010160006101000a81548165ffffffffffff021916908365ffffffffffff160217905550613216565b6001840180547fffffffffffffffffffffffffffffffffffffff00ffffffffffffffffffffffff1690555b505050505b61322486613a06565b60e082015190935080841015613238578093505b61016082015161324a90879086612d08565b6101608301516000898152600460205260408120805460039091015493965090926132a092909163ffffffff7c0100000000000000000000000000000000000000000000000000000000909104811690612d0816565b6101608401519091506132b590859083612d08565b600089815260046020526040902080546006906132e59084906601000000000000900465ffffffffffff16613fd6565b92506101000a81548165ffffffffffff021916908365ffffffffffff160217905550505050935093915050565b600060046000858152602001908152602001600020604051806101400160405290816000820160009054906101000a900465ffffffffffff1665ffffffffffff1665ffffffffffff1681526020016000820160069054906101000a900465ffffffffffff1665ffffffffffff1665ffffffffffff16815260200160008201600c9054906101000a900463ffffffff1663ffffffff1663ffffffff1681526020016000820160109054906101000a900463ffffffff1663ffffffff1663ffffffff1681526020016000820160149054906101000a900463ffffffff1663ffffffff1663ffffffff1681526020016000820160189054906101000a900463ffffffff1663ffffffff1663ffffffff16815260200160008201601c9054906101000a900463ffffffff1663ffffffff1663ffffffff16815260200160018201548152602001600282015481526020016003820154815250509050600060026000868152602001908152602001600020604051806101800160405290816000820160009054906101000a900473ffffffffffffffffffffffffffffffffffffffff1673ffffffffffffffffffffffffffffffffffffffff1673ffffffffffffffffffffffffffffffffffffffff1681526020016001820160009054906101000a900473ffffffffffffffffffffffffffffffffffffffff1673ffffffffffffffffffffffffffffffffffffffff1673ffffffffffffffffffffffffffffffffffffffff1681526020016002820160009054906101000a900473ffffffffffffffffffffffffffffffffffffffff1673ffffffffffffffffffffffffffffffffffffffff1673ffffffffffffffffffffffffffffffffffffffff1681526020016003820160009054906101000a900473ffffffffffffffffffffffffffffffffffffffff1673ffffffffffffffffffffffffffffffffffffffff1673ffffffffffffffffffffffffffffffffffffffff1681526020016003820160149054906101000a900460ff16151515158152602001600482015481526020016005820154815260200160068201548152602001600782015481526020016008820154815260200160098201548152602001600a8201548152505090506000846003600088815260200190815260200160002060020160069054906101000a900465ffffffffffff1661367b9190613f2f565b65ffffffffffff1690506000826080015161369a578260a001516136af565b61016083015160a08401516136af9187612d08565b9050600083608001516136c7578361012001516136dd565b6101608401516101408501516136dd9188612d08565b6136e79083613f56565b905060008261372085886040015163ffffffff166137059190613ea6565b886040015163ffffffff1685612d089092919063ffffffff16565b61372a9190613f56565b90508561010001518560a0015110801561374357508181105b8061377e5750608086015186516137609163ffffffff1690613fd6565b65ffffffffffff168865ffffffffffff161015801561377e57508181115b156139fb576137a2866060015163ffffffff168585612d089092919063ffffffff16565b60008a8152600260205260408082206007019290925560c08801519188015190916137db91849163ffffffff90811691811690612d0816565b60008b81526003602052604081205461016089015192935091613800908b9085612d08565b60408051848152602081018390529192508d917f78f9c01d72705dba80d6ce051d36a1f987bf2a3800fee938c111a2ae741e57d1910160405180910390a28181101561392e5760006138528284613ea6565b905060405180608001604052808281526020018d65ffffffffffff1681526020018b60a0015163ffffffff1665ffffffffffff16815260200160011515815250600560008f81526020019081526020016000206000820151816000015560208201518160010160006101000a81548165ffffffffffff021916908365ffffffffffff16021790555060408201518160010160066101000a81548165ffffffffffff021916908365ffffffffffff160217905550606082015181600101600c6101000a81548160ff02191690831515021790555090505050613973565b60008c81526003602090815260408083208490556005909152902060010180547fffffffffffffffffffffffffffffffffffffff00ffffffffffffffffffffffff1690555b60008c815260046020526040902080547fffffffffffffffffffffffffffffffffffffffffffffffffffff0000000000001665ffffffffffff8d1617905560e089015160a0890151116139c75760006139db565b8860e001518860a001516139db9190613ea6565b60008d815260046020526040902060028101919091556003019290925550505b505050505050505050565b6000818152600260208181526040808420815161018081018352815473ffffffffffffffffffffffffffffffffffffffff908116825260018301548116828601529482015485168184015260038083015495861660608301527401000000000000000000000000000000000000000090950460ff1615156080820152600482015460a0820152600582015460c08201819052600683015460e0830152600783015461010083015260088301546101208301526009830154610140830152600a90920154610160820181905287875294909352908420549192610b0e929190612d08565b600060208284031215613afb57600080fd5b5035919050565b73ffffffffffffffffffffffffffffffffffffffff8116811461155e57600080fd5b8035613b2f81613b02565b919050565b600060208284031215613b4657600080fd5b8135610b0e81613b02565b7f4e487b7100000000000000000000000000000000000000000000000000000000600052604160045260246000fd5b604051610180810167ffffffffffffffff81118282101715613ba457613ba4613b51565b60405290565b801515811461155e57600080fd5b8035613b2f81613baa565b803563ffffffff81168114613b2f57600080fd5b65ffffffffffff8116811461155e57600080fd5b8035613b2f81613bd7565b8035600081900b8114613b2f57600080fd5b60006101808284031215613c1b57600080fd5b613c23613b80565b613c2c83613b24565b8152613c3a60208401613b24565b6020820152613c4b60408401613b24565b6040820152613c5c60608401613bb8565b60608201526080830135608082015260a083013560a082015260c083013560c0820152613c8b60e08401613bc3565b60e0820152610100613c9e818501613beb565b90820152610120613cb0848201613beb565b90820152610140613cc2848201613bc3565b90820152610160613cd4848201613bf6565b908201529392505050565b600060208284031215613cf157600080fd5b8135610b0e81613baa565b60008060808385031215613d0f57600080fd5b8235915083608084011115613d2357600080fd5b50926020919091019150565b60008060408385031215613d4257600080fd5b8235613d4d81613b02565b91506020830135613d5d81613baa565b809150509250929050565b60008060408385031215613d7b57600080fd5b823591506020830135613d5d81613b02565b600060c08284031215613d9f57600080fd5b82601f830112613dae57600080fd5b60405160c0810181811067ffffffffffffffff82111715613dd157613dd1613b51565b6040528060c0840185811115613de657600080fd5b845b81811015613e0757613df981613bc3565b835260209283019201613de8565b509195945050505050565b600080600060608486031215613e2757600080fd5b83359250602084013591506040840135613e4081613b02565b809150509250925092565b600080600060608486031215613e6057600080fd5b505081359360208301359350604090920135919050565b7f4e487b7100000000000000000000000000000000000000000000000000000000600052601160045260246000fd5b600082821015613eb857613eb8613e77565b500390565b600060208284031215613ecf57600080fd5b8151610b0e81613b02565b600060208284031215613eec57600080fd5b610b0e82613bc3565b600060208284031215613f0757600080fd5b8151610b0e81613baa565b600060208284031215613f2457600080fd5b8151610b0e81613bd7565b600065ffffffffffff83811690831681811015613f4e57613f4e613e77565b039392505050565b60008219821115613f6957613f69613e77565b500190565b600060208284031215613f8057600080fd5b815160ff81168114610b0e57600080fd5b600060208284031215613fa357600080fd5b5051919050565b600063ffffffff80831681851681830481118215151615613fcd57613fcd613e77565b02949350505050565b600065ffffffffffff808316818516808303821115613ff757613ff7613e77565b0194935050505056fea2646970667358221220fef67bed2708269e755e64ab0fe8df963931db6d83d61f834623a8b911a8bf2064736f6c634300080a0033",
    "linkReferences": {}
  }
}