{
  "abi": [
    {
      "inputs": [
        {
          "internalType": "address",
          "name": "protocol_",
          "type": "address"
        },
        {
          "internalType": "contract IBondAggregator",
          "name": "aggregator_",
          "type": "address"
        },
        {
          "internalType": "address",
          "name": "guardian_",
          "type": "address"
        },
        {
          "internalType": "contract Authority",
          "name": "authority_",
          "type": "address"
        }
      ],
      "stateMutability": "nonpayable",
      "type": "constructor"
    },
    {
      "inputs": [],
      "name": "Teller_InvalidCallback",
      "type": "error"
    },
    {
      "inputs": [],
      "name": "Teller_InvalidParams",
      "type": "error"
    },
    {
      "inputs": [],
      "name": "Teller_NotAuthorized",
      "type": "error"
    },
    {
      "inputs": [
        {
          "internalType": "contract ERC20",
          "name": "underlying",
          "type": "address"
        },
        {
          "internalType": "uint48",
          "name": "expiry",
          "type": "uint48"
        }
      ],
      "name": "Teller_TokenDoesNotExist",
      "type": "error"
    },
    {
      "inputs": [
        {
          "internalType": "uint48",
          "name": "maturesOn",
          "type": "uint48"
        }
      ],
      "name": "Teller_TokenNotMatured",
      "type": "error"
    },
    {
      "inputs": [],
      "name": "Teller_UnsupportedToken",
      "type": "error"
    },
    {
      "anonymous": false,
      "inputs": [
        {
          "indexed": true,
          "internalType": "address",
          "name": "owner",
          "type": "address"
        },
        {
          "indexed": true,
          "internalType": "address",
          "name": "operator",
          "type": "address"
        },
        {
          "indexed": false,
          "internalType": "bool",
          "name": "approved",
          "type": "bool"
        }
      ],
      "name": "ApprovalForAll",
      "type": "event"
    },
    {
      "anonymous": false,
      "inputs": [
        {
          "indexed": true,
          "internalType": "address",
          "name": "user",
          "type": "address"
        },
        {
          "indexed": true,
          "internalType": "contract Authority",
          "name": "newAuthority",
          "type": "address"
        }
      ],
      "name": "AuthorityUpdated",
      "type": "event"
    },
    {
      "anonymous": false,
      "inputs": [
        {
          "indexed": true,
          "internalType": "uint256",
          "name": "id",
          "type": "uint256"
        },
        {
          "indexed": true,
          "internalType": "address",
          "name": "referrer",
          "type": "address"
        },
        {
          "indexed": false,
          "internalType": "uint256",
          "name": "amount",
          "type": "uint256"
        },
        {
          "indexed": false,
          "internalType": "uint256",
          "name": "payout",
          "type": "uint256"
        }
      ],
      "name": "Bonded",
      "type": "event"
    },
    {
      "anonymous": false,
      "inputs": [
        {
          "indexed": false,
          "internalType": "uint256",
          "name": "tokenId",
          "type": "uint256"
        },
        {
          "indexed": true,
          "internalType": "contract ERC20",
          "name": "payoutToken",
          "type": "address"
        },
        {
          "indexed": true,
          "internalType": "uint48",
          "name": "expiry",
          "type": "uint48"
        }
      ],
      "name": "ERC1155BondTokenCreated",
      "type": "event"
    },
    {
      "anonymous": false,
      "inputs": [
        {
          "indexed": true,
          "internalType": "address",
          "name": "user",
          "type": "address"
        },
        {
          "indexed": true,
          "internalType": "address",
          "name": "newOwner",
          "type": "address"
        }
      ],
      "name": "OwnerUpdated",
      "type": "event"
    },
    {
      "anonymous": false,
      "inputs": [
        {
          "indexed": true,
          "internalType": "address",
          "name": "operator",
          "type": "address"
        },
        {
          "indexed": true,
          "internalType": "address",
          "name": "from",
          "type": "address"
        },
        {
          "indexed": true,
          "internalType": "address",
          "name": "to",
          "type": "address"
        },
        {
          "indexed": false,
          "internalType": "uint256[]",
          "name": "ids",
          "type": "uint256[]"
        },
        {
          "indexed": false,
          "internalType": "uint256[]",
          "name": "amounts",
          "type": "uint256[]"
        }
      ],
      "name": "TransferBatch",
      "type": "event"
    },
    {
      "anonymous": false,
      "inputs": [
        {
          "indexed": true,
          "internalType": "address",
          "name": "operator",
          "type": "address"
        },
        {
          "indexed": true,
          "internalType": "address",
          "name": "from",
          "type": "address"
        },
        {
          "indexed": true,
          "internalType": "address",
          "name": "to",
          "type": "address"
        },
        {
          "indexed": false,
          "internalType": "uint256",
          "name": "id",
          "type": "uint256"
        },
        {
          "indexed": false,
          "internalType": "uint256",
          "name": "amount",
          "type": "uint256"
        }
      ],
      "name": "TransferSingle",
      "type": "event"
    },
    {
      "inputs": [],
      "name": "FEE_DECIMALS",
      "outputs": [
        {
          "internalType": "uint48",
          "name": "",
          "type": "uint48"
        }
      ],
      "stateMutability": "view",
      "type": "function"
    },
    {
      "inputs": [],
      "name": "authority",
      "outputs": [
        {
          "internalType": "contract Authority",
          "name": "",
          "type": "address"
        }
      ],
      "stateMutability": "view",
      "type": "function"
    },
    {
      "inputs": [
        {
          "internalType": "address",
          "name": "",
          "type": "address"
        },
        {
          "internalType": "uint256",
          "name": "",
          "type": "uint256"
        }
      ],
      "name": "balanceOf",
      "outputs": [
        {
          "internalType": "uint256",
          "name": "",
          "type": "uint256"
        }
      ],
      "stateMutability": "view",
      "type": "function"
    },
    {
      "inputs": [
        {
          "internalType": "address[]",
          "name": "owners",
          "type": "address[]"
        },
        {
          "internalType": "uint256[]",
          "name": "ids",
          "type": "uint256[]"
        }
      ],
      "name": "balanceOfBatch",
      "outputs": [
        {
          "internalType": "uint256[]",
          "name": "balances",
          "type": "uint256[]"
        }
      ],
      "stateMutability": "view",
      "type": "function"
    },
    {
      "inputs": [
        {
          "internalType": "uint256[]",
          "name": "tokenIds_",
          "type": "uint256[]"
        },
        {
          "internalType": "uint256[]",
          "name": "amounts_",
          "type": "uint256[]"
        }
      ],
      "name": "batchRedeem",
      "outputs": [],
      "stateMutability": "nonpayable",
      "type": "function"
    },
    {
      "inputs": [
        {
          "internalType": "contract ERC20[]",
          "name": "tokens_",
          "type": "address[]"
        },
        {
          "internalType": "address",
          "name": "to_",
          "type": "address"
        }
      ],
      "name": "claimFees",
      "outputs": [],
      "stateMutability": "nonpayable",
      "type": "function"
    },
    {
      "inputs": [
        {
          "internalType": "contract ERC20",
          "name": "underlying_",
          "type": "address"
        },
        {
          "internalType": "uint48",
          "name": "expiry_",
          "type": "uint48"
        },
        {
          "internalType": "uint256",
          "name": "amount_",
          "type": "uint256"
        }
      ],
      "name": "create",
      "outputs": [
        {
          "internalType": "uint256",
          "name": "",
          "type": "uint256"
        },
        {
          "internalType": "uint256",
          "name": "",
          "type": "uint256"
        }
      ],
      "stateMutability": "nonpayable",
      "type": "function"
    },
    {
      "inputs": [],
      "name": "createFeeDiscount",
      "outputs": [
        {
          "internalType": "uint48",
          "name": "",
          "type": "uint48"
        }
      ],
      "stateMutability": "view",
      "type": "function"
    },
    {
      "inputs": [
        {
          "internalType": "contract ERC20",
          "name": "underlying_",
          "type": "address"
        },
        {
          "internalType": "uint48",
          "name": "expiry_",
          "type": "uint48"
        }
      ],
      "name": "deploy",
      "outputs": [
        {
          "internalType": "uint256",
          "name": "",
          "type": "uint256"
        }
      ],
      "stateMutability": "nonpayable",
      "type": "function"
    },
    {
      "inputs": [
        {
          "internalType": "address",
          "name": "referrer_",
          "type": "address"
        }
      ],
      "name": "getFee",
      "outputs": [
        {
          "internalType": "uint48",
          "name": "",
          "type": "uint48"
        }
      ],
      "stateMutability": "view",
      "type": "function"
    },
    {
      "inputs": [
        {
          "internalType": "contract ERC20",
          "name": "underlying_",
          "type": "address"
        },
        {
          "internalType": "uint48",
          "name": "expiry_",
          "type": "uint48"
        }
      ],
      "name": "getTokenId",
      "outputs": [
        {
          "internalType": "uint256",
          "name": "",
          "type": "uint256"
        }
      ],
      "stateMutability": "pure",
      "type": "function"
    },
    {
      "inputs": [
        {
          "internalType": "uint256",
          "name": "tokenId_",
          "type": "uint256"
        }
      ],
      "name": "getTokenNameAndSymbol",
      "outputs": [
        {
          "internalType": "string",
          "name": "",
          "type": "string"
        },
        {
          "internalType": "string",
          "name": "",
          "type": "string"
        }
      ],
      "stateMutability": "view",
      "type": "function"
    },
    {
      "inputs": [
        {
          "internalType": "address",
          "name": "",
          "type": "address"
        },
        {
          "internalType": "address",
          "name": "",
          "type": "address"
        }
      ],
      "name": "isApprovedForAll",
      "outputs": [
        {
          "internalType": "bool",
          "name": "",
          "type": "bool"
        }
      ],
      "stateMutability": "view",
      "type": "function"
    },
    {
      "inputs": [],
      "name": "owner",
      "outputs": [
        {
          "internalType": "address",
          "name": "",
          "type": "address"
        }
      ],
      "stateMutability": "view",
      "type": "function"
    },
    {
      "inputs": [],
      "name": "protocolFee",
      "outputs": [
        {
          "internalType": "uint48",
          "name": "",
          "type": "uint48"
        }
      ],
      "stateMutability": "view",
      "type": "function"
    },
    {
      "inputs": [
        {
          "internalType": "address",
          "name": "recipient_",
          "type": "address"
        },
        {
          "internalType": "address",
          "name": "referrer_",
          "type": "address"
        },
        {
          "internalType": "uint256",
          "name": "id_",
          "type": "uint256"
        },
        {
          "internalType": "uint256",
          "name": "amount_",
          "type": "uint256"
        },
        {
          "internalType": "uint256",
          "name": "minAmountOut_",
          "type": "uint256"
        }
      ],
      "name": "purchase",
      "outputs": [
        {
          "internalType": "uint256",
          "name": "",
          "type": "uint256"
        },
        {
          "internalType": "uint48",
          "name": "",
          "type": "uint48"
        }
      ],
      "stateMutability": "nonpayable",
      "type": "function"
    },
    {
      "inputs": [
        {
          "internalType": "uint256",
          "name": "tokenId_",
          "type": "uint256"
        },
        {
          "internalType": "uint256",
          "name": "amount_",
          "type": "uint256"
        }
      ],
      "name": "redeem",
      "outputs": [],
      "stateMutability": "nonpayable",
      "type": "function"
    },
    {
      "inputs": [
        {
          "internalType": "address",
          "name": "",
          "type": "address"
        }
      ],
      "name": "referrerFees",
      "outputs": [
        {
          "internalType": "uint48",
          "name": "",
          "type": "uint48"
        }
      ],
      "stateMutability": "view",
      "type": "function"
    },
    {
      "inputs": [
        {
          "internalType": "address",
          "name": "",
          "type": "address"
        },
        {
          "internalType": "contract ERC20",
          "name": "",
          "type": "address"
        }
      ],
      "name": "rewards",
      "outputs": [
        {
          "internalType": "uint256",
          "name": "",
          "type": "uint256"
        }
      ],
      "stateMutability": "view",
      "type": "function"
    },
    {
      "inputs": [
        {
          "internalType": "address",
          "name": "from",
          "type": "address"
        },
        {
          "internalType": "address",
          "name": "to",
          "type": "address"
        },
        {
          "internalType": "uint256[]",
          "name": "ids",
          "type": "uint256[]"
        },
        {
          "internalType": "uint256[]",
          "name": "amounts",
          "type": "uint256[]"
        },
        {
          "internalType": "bytes",
          "name": "data",
          "type": "bytes"
        }
      ],
      "name": "safeBatchTransferFrom",
      "outputs": [],
      "stateMutability": "nonpayable",
      "type": "function"
    },
    {
      "inputs": [
        {
          "internalType": "address",
          "name": "from",
          "type": "address"
        },
        {
          "internalType": "address",
          "name": "to",
          "type": "address"
        },
        {
          "internalType": "uint256",
          "name": "id",
          "type": "uint256"
        },
        {
          "internalType": "uint256",
          "name": "amount",
          "type": "uint256"
        },
        {
          "internalType": "bytes",
          "name": "data",
          "type": "bytes"
        }
      ],
      "name": "safeTransferFrom",
      "outputs": [],
      "stateMutability": "nonpayable",
      "type": "function"
    },
    {
      "inputs": [
        {
          "internalType": "address",
          "name": "operator",
          "type": "address"
        },
        {
          "internalType": "bool",
          "name": "approved",
          "type": "bool"
        }
      ],
      "name": "setApprovalForAll",
      "outputs": [],
      "stateMutability": "nonpayable",
      "type": "function"
    },
    {
      "inputs": [
        {
          "internalType": "contract Authority",
          "name": "newAuthority",
          "type": "address"
        }
      ],
      "name": "setAuthority",
      "outputs": [],
      "stateMutability": "nonpayable",
      "type": "function"
    },
    {
      "inputs": [
        {
          "internalType": "address",
          "name": "newOwner",
          "type": "address"
        }
      ],
      "name": "setOwner",
      "outputs": [],
      "stateMutability": "nonpayable",
      "type": "function"
    },
    {
      "inputs": [
        {
          "internalType": "uint48",
          "name": "fee_",
          "type": "uint48"
        }
      ],
      "name": "setProtocolFee",
      "outputs": [],
      "stateMutability": "nonpayable",
      "type": "function"
    },
    {
      "inputs": [
        {
          "internalType": "uint48",
          "name": "fee_",
          "type": "uint48"
        }
      ],
      "name": "setReferrerFee",
      "outputs": [],
      "stateMutability": "nonpayable",
      "type": "function"
    },
    {
      "inputs": [
        {
          "internalType": "bytes4",
          "name": "interfaceId",
          "type": "bytes4"
        }
      ],
      "name": "supportsInterface",
      "outputs": [
        {
          "internalType": "bool",
          "name": "",
          "type": "bool"
        }
      ],
      "stateMutability": "view",
      "type": "function"
    },
    {
      "inputs": [
        {
          "internalType": "uint256",
          "name": "",
          "type": "uint256"
        }
      ],
      "name": "tokenMetadata",
      "outputs": [
        {
          "internalType": "bool",
          "name": "active",
          "type": "bool"
        },
        {
          "internalType": "contract ERC20",
          "name": "payoutToken",
          "type": "address"
        },
        {
          "internalType": "uint48",
          "name": "expiry",
          "type": "uint48"
        },
        {
          "internalType": "uint256",
          "name": "supply",
          "type": "uint256"
        }
      ],
      "stateMutability": "view",
      "type": "function"
    }
  ],
  "bytecode": {
    "object": "0x60c060405260016002553480156200001657600080fd5b50604051620048a2380380620048a283398101604081905262000039916200011d565b600080546001600160a01b03199081166001600160a01b0385811691821784556001805490931690851617909155604051869286928692869284928492909133917f8292fce18fa69edf4db7b94ea2e58241df0ae57f97e0a6c9b29067028bf92d769190a36040516001600160a01b0382169033907fa3396fd7f6e0a21b50e5089d2da70d5ac0a3bbbd1f617a93f134b7638998019890600090a35050506001600160a01b03928316608052501660a05250506004805465ffffffffffff1916905550620001859050565b6001600160a01b03811681146200011a57600080fd5b50565b600080600080608085870312156200013457600080fd5b8451620001418162000104565b6020860151909450620001548162000104565b6040860151909350620001678162000104565b60608601519092506200017a8162000104565b939692955090935050565b60805160a0516146e9620001b96000396000818161101a015261272301526000818161127e0152611ac401526146e96000f3fe608060405234801561001057600080fd5b50600436106101c35760003560e01c806392593277116100f9578063c23135dd11610097578063e70b9e2711610071578063e70b9e271461051f578063e985e9c51461054a578063e9dc30f314610578578063f242432a1461058b57600080fd5b8063c23135dd146104da578063c6e38a4b14610502578063ccf288c61461051557600080fd5b8063b1e55529116100d3578063b1e555291461046c578063b7314ef91461047f578063b88c9148146104a7578063bf7e214f146104ba57600080fd5b80639259327714610434578063a22cb46514610447578063b0e21e8a1461045a57600080fd5b806335312c85116101665780636de5b4cd116101405780636de5b4cd1461039a5780637a9e5e4b146103c95780637cbc2373146103dc5780638da5cb5b146103ef57600080fd5b806335312c85146102aa5780634e1273f4146102cb5780636914db60146102eb57600080fd5b80630d4dfc21116101a25780630d4dfc211461025c57806313af4035146102715780632eb2c2d6146102845780632f6fa94e1461029757600080fd5b8062fdd58e146101c857806301ffc9a71461020657806306692a3714610229575b600080fd5b6101f36101d63660046136a5565b600660209081526000928352604080842090915290825290205481565b6040519081526020015b60405180910390f35b6102196102143660046136ff565b61059e565b60405190151581526020016101fd565b600454610245906601000000000000900465ffffffffffff1681565b60405165ffffffffffff90911681526020016101fd565b61026f61026a366004613730565b610683565b005b61026f61027f36600461374d565b61070d565b61026f61029236600461390e565b610816565b61026f6102a53660046139bc565b610c21565b6102bd6102b8366004613a68565b610ca8565b6040516101fd929190613af7565b6102de6102d9366004613b25565b610d42565b6040516101fd9190613c22565b6103566102f9366004613a68565b6008602052600090815260409020805460019091015460ff821691610100810473ffffffffffffffffffffffffffffffffffffffff1691750100000000000000000000000000000000000000000090910465ffffffffffff169084565b60408051941515855273ffffffffffffffffffffffffffffffffffffffff909316602085015265ffffffffffff9091169183019190915260608201526080016101fd565b6103ad6103a8366004613c35565b610eb2565b6040805192835265ffffffffffff9091166020830152016101fd565b61026f6103d736600461374d565b611369565b61026f6103ea366004613c86565b6114c6565b60005461040f9073ffffffffffffffffffffffffffffffffffffffff1681565b60405173ffffffffffffffffffffffffffffffffffffffff90911681526020016101fd565b6101f3610442366004613ca8565b611549565b61026f610455366004613cef565b6115fe565b6004546102459065ffffffffffff1681565b61026f61047a366004613730565b611695565b61049261048d366004613d1d565b611762565b604080519283526020830191909152016101fd565b6102456104b536600461374d565b611b68565b60015461040f9073ffffffffffffffffffffffffffffffffffffffff1681565b6102456104e836600461374d565b60036020526000908152604090205465ffffffffffff1681565b6101f3610510366004613ca8565b611ba6565b610245620186a081565b6101f361052d366004613d5e565b600560209081526000928352604080842090915290825290205481565b610219610558366004613d5e565b600760209081526000928352604080842090915290825290205460ff1681565b61026f610586366004613dd8565b611c54565b61026f610599366004613e44565b611d27565b60007f01ffc9a7000000000000000000000000000000000000000000000000000000007fffffffff000000000000000000000000000000000000000000000000000000008316148061063157507fd9b67a26000000000000000000000000000000000000000000000000000000007fffffffff000000000000000000000000000000000000000000000000000000008316145b8061067d57507f0e89341c000000000000000000000000000000000000000000000000000000007fffffffff000000000000000000000000000000000000000000000000000000008316145b92915050565b61c3508165ffffffffffff1611156106c7576040517fe94b8f2700000000000000000000000000000000000000000000000000000000815260040160405180910390fd5b33600090815260036020526040902080547fffffffffffffffffffffffffffffffffffffffffffffffffffff0000000000001665ffffffffffff92909216919091179055565b61073b336000357fffffffff000000000000000000000000000000000000000000000000000000001661202e565b6107a6576040517f08c379a000000000000000000000000000000000000000000000000000000000815260206004820152600c60248201527f554e415554484f52495a4544000000000000000000000000000000000000000060448201526064015b60405180910390fd5b600080547fffffffffffffffffffffffff00000000000000000000000000000000000000001673ffffffffffffffffffffffffffffffffffffffff83169081178255604051909133917f8292fce18fa69edf4db7b94ea2e58241df0ae57f97e0a6c9b29067028bf92d769190a350565b825182518114610882576040517f08c379a000000000000000000000000000000000000000000000000000000000815260206004820152600f60248201527f4c454e4754485f4d49534d415443480000000000000000000000000000000000604482015260640161079d565b3373ffffffffffffffffffffffffffffffffffffffff871614806108d6575073ffffffffffffffffffffffffffffffffffffffff8616600090815260076020908152604080832033845290915290205460ff165b61093c576040517f08c379a000000000000000000000000000000000000000000000000000000000815260206004820152600e60248201527f4e4f545f415554484f52495a4544000000000000000000000000000000000000604482015260640161079d565b60008060005b83811015610a345786818151811061095c5761095c613ead565b6020026020010151925085818151811061097857610978613ead565b6020026020010151915081600660008b73ffffffffffffffffffffffffffffffffffffffff1673ffffffffffffffffffffffffffffffffffffffff168152602001908152602001600020600085815260200190815260200160002060008282546109e29190613f0b565b909155505073ffffffffffffffffffffffffffffffffffffffff8816600090815260066020908152604080832086845290915281208054849290610a27908490613f22565b9091555050600101610942565b508673ffffffffffffffffffffffffffffffffffffffff168873ffffffffffffffffffffffffffffffffffffffff163373ffffffffffffffffffffffffffffffffffffffff167f4a39dc06d4c0dbc64b70af90fd698a233a518aa5d07e595d983b8c0526c8f7fb8989604051610aab929190613f3a565b60405180910390a473ffffffffffffffffffffffffffffffffffffffff87163b15610b97576040517fbc197c81000000000000000000000000000000000000000000000000000000008082529073ffffffffffffffffffffffffffffffffffffffff89169063bc197c8190610b2c9033908d908c908c908c90600401613f5f565b6020604051808303816000875af1158015610b4b573d6000803e3d6000fd5b505050506040513d601f19601f82011682018060405250810190610b6f9190613fca565b7fffffffff000000000000000000000000000000000000000000000000000000001614610bb1565b73ffffffffffffffffffffffffffffffffffffffff871615155b610c17576040517f08c379a000000000000000000000000000000000000000000000000000000000815260206004820152601060248201527f554e534146455f524543495049454e5400000000000000000000000000000000604482015260640161079d565b5050505050505050565b815160005b81811015610ca2576000848281518110610c4257610c42613ead565b60209081029190910181015133600090815260058352604080822073ffffffffffffffffffffffffffffffffffffffff841680845294528120805491905590925090610c8f90868361213f565b505080610c9b90613fe7565b9050610c26565b50505050565b60008181526008602090815260408083208151608081018352815460ff811615158252610100810473ffffffffffffffffffffffffffffffffffffffff169482018590527501000000000000000000000000000000000000000000900465ffffffffffff16928101839052600190910154606080830191909152938493919290918291610d3591906122a8565b9097909650945050505050565b81518151606091908114610db2576040517f08c379a000000000000000000000000000000000000000000000000000000000815260206004820152600f60248201527f4c454e4754485f4d49534d415443480000000000000000000000000000000000604482015260640161079d565b8067ffffffffffffffff811115610dcb57610dcb61376a565b604051908082528060200260200182016040528015610df4578160200160208202803683370190505b50915060005b81811015610eaa5760066000868381518110610e1857610e18613ead565b602002602001015173ffffffffffffffffffffffffffffffffffffffff1673ffffffffffffffffffffffffffffffffffffffff1681526020019081526020016000206000858381518110610e6e57610e6e613ead565b6020026020010151815260200190815260200160002054838281518110610e9757610e97613ead565b6020908102919091010152600101610dfa565b505092915050565b600080600254600114610f21576040517f08c379a000000000000000000000000000000000000000000000000000000000815260206004820152600a60248201527f5245454e5452414e435900000000000000000000000000000000000000000000604482015260640161079d565b6002805573ffffffffffffffffffffffffffffffffffffffff86166000908152600360205260408120548190819081908190610f6a908a9065ffffffffffff16620186a0612648565b73ffffffffffffffffffffffffffffffffffffffff8c1660009081526003602052604081205460045492935090918391610fc691610fb39165ffffffffffff9081169116614020565b8c9065ffffffffffff16620186a0612648565b610fd09190613f0b565b6040517f52047942000000000000000000000000000000000000000000000000000000008152600481018d905290915060009073ffffffffffffffffffffffffffffffffffffffff7f00000000000000000000000000000000000000000000000000000000000000001690635204794290602401602060405180830381865afa158015611061573d6000803e3d6000fd5b505050506040513d601f19601f82011682018060405250810190611085919061404a565b6040517facc5570c000000000000000000000000000000000000000000000000000000008152600481018e905290915060009073ffffffffffffffffffffffffffffffffffffffff83169063acc5570c9060240160c060405180830381865afa1580156110f6573d6000803e3d6000fd5b505050506040513d601f19601f8201168201806040525081019061111a9190614067565b50919b50995097509091506000905083611134868f613f0b565b61113e9190613f0b565b90508273ffffffffffffffffffffffffffffffffffffffff1663e007fa978f838f6040518463ffffffff1660e01b815260040161118e939291909283526020830191909152604082015260600190565b6020604051808303816000875af11580156111ad573d6000803e3d6000fd5b505050506040513d601f19601f820116820180604052508101906111d191906140e4565b955050505081600560008e73ffffffffffffffffffffffffffffffffffffffff1673ffffffffffffffffffffffffffffffffffffffff16815260200190815260200160002060008773ffffffffffffffffffffffffffffffffffffffff1673ffffffffffffffffffffffffffffffffffffffff16815260200190815260200160002060008282546112629190613f22565b909155505073ffffffffffffffffffffffffffffffffffffffff7f000000000000000000000000000000000000000000000000000000000000000081166000908152600560209081526040808320938916835292905290812080548392906112cb908490613f22565b909155506112e690508b8b856112e18587613f22565b61271b565b60006112f48e858988612dc3565b90508c73ffffffffffffffffffffffffffffffffffffffff168c7f3ae5efadaccde413bdfcb3a4626babecd844c502ee4c2c9b340f28cd9d5527328d87604051611348929190918252602082015260400190565b60405180910390a36001600255929d929c50919a5050505050505050505050565b60005473ffffffffffffffffffffffffffffffffffffffff1633148061144c57506001546040517fb70096130000000000000000000000000000000000000000000000000000000081523360048201523060248201526000357fffffffff0000000000000000000000000000000000000000000000000000000016604482015273ffffffffffffffffffffffffffffffffffffffff9091169063b700961390606401602060405180830381865afa158015611428573d6000803e3d6000fd5b505050506040513d601f19601f8201168201806040525081019061144c91906140fd565b61145557600080fd5b600180547fffffffffffffffffffffffff00000000000000000000000000000000000000001673ffffffffffffffffffffffffffffffffffffffff831690811790915560405133907fa3396fd7f6e0a21b50e5089d2da70d5ac0a3bbbd1f617a93f134b7638998019890600090a350565b600254600114611532576040517f08c379a000000000000000000000000000000000000000000000000000000000815260206004820152600a60248201527f5245454e5452414e435900000000000000000000000000000000000000000000604482015260640161079d565b600280556115408282612e5a565b50506001600255565b6000808361155a6201518085614149565b6040516020016115c092919060609290921b7fffffffffffffffffffffffffffffffffffffffff00000000000000000000000016825260d01b7fffffffffffff0000000000000000000000000000000000000000000000000000166014820152601a0190565b604080518083037fffffffffffffffffffffffffffffffffffffffffffffffffffffffffffffffe00181529190528051602090910120949350505050565b33600081815260076020908152604080832073ffffffffffffffffffffffffffffffffffffffff87168085529083529281902080547fffffffffffffffffffffffffffffffffffffffffffffffffffffffffffffff001686151590811790915590519081529192917f17307eab39ab6107e8899845ad3d59bd9653f200f220920489ca2b5937696c31910160405180910390a35050565b6116c3336000357fffffffff000000000000000000000000000000000000000000000000000000001661202e565b611729576040517f08c379a000000000000000000000000000000000000000000000000000000000815260206004820152600c60248201527f554e415554484f52495a45440000000000000000000000000000000000000000604482015260640161079d565b600480547fffffffffffffffffffffffffffffffffffffffffffffffffffff0000000000001665ffffffffffff92909216919091179055565b6000806002546001146117d1576040517f08c379a000000000000000000000000000000000000000000000000000000000815260206004820152600a60248201527f5245454e5452414e435900000000000000000000000000000000000000000000604482015260640161079d565b6002805560006117e18686611549565b60008181526008602052604090205490915060ff16611852576040517fcb66c9db00000000000000000000000000000000000000000000000000000000815273ffffffffffffffffffffffffffffffffffffffff8716600482015265ffffffffffff8616602482015260440161079d565b6040517f70a0823100000000000000000000000000000000000000000000000000000000815230600482015260009073ffffffffffffffffffffffffffffffffffffffff8816906370a0823190602401602060405180830381865afa1580156118bf573d6000803e3d6000fd5b505050506040513d601f19601f820116820180604052508101906118e391906140e4565b6040517f23b872dd0000000000000000000000000000000000000000000000000000000081523360048201523060248201526044810187905290915073ffffffffffffffffffffffffffffffffffffffff8816906323b872dd906064016020604051808303816000875af115801561195f573d6000803e3d6000fd5b505050506040513d601f19601f8201168201806040525081019061198391906140fd565b5061198e8582613f22565b6040517f70a0823100000000000000000000000000000000000000000000000000000000815230600482015273ffffffffffffffffffffffffffffffffffffffff8916906370a0823190602401602060405180830381865afa1580156119f8573d6000803e3d6000fd5b505050506040513d601f19601f82011682018060405250810190611a1c91906140e4565b1015611a54576040517fd354452400000000000000000000000000000000000000000000000000000000815260040160405180910390fd5b60045465ffffffffffff66010000000000008204811691161115611b4757600454600090611aad90611a9a9065ffffffffffff660100000000000082048116911661416e565b879065ffffffffffff16620186a0612648565b73ffffffffffffffffffffffffffffffffffffffff7f000000000000000000000000000000000000000000000000000000000000000081166000908152600560209081526040808320938d16835292905290812080549293508392909190611b16908490613f22565b90915550611b3090503384611b2b848a613f0b565b612f51565b82611b3b8288613f0b565b94509450505050611b59565b611b52338387612f51565b5091508290505b60016002559094909350915050565b73ffffffffffffffffffffffffffffffffffffffff811660009081526003602052604081205460045461067d9165ffffffffffff9081169116614020565b6000600254600114611c14576040517f08c379a000000000000000000000000000000000000000000000000000000000815260206004820152600a60248201527f5245454e5452414e435900000000000000000000000000000000000000000000604482015260640161079d565b600280556000611c248484611549565b60008181526008602052604090205490915060ff16611c4857611c48818585612f97565b60016002559392505050565b600254600114611cc0576040517f08c379a000000000000000000000000000000000000000000000000000000000815260206004820152600a60248201527f5245454e5452414e435900000000000000000000000000000000000000000000604482015260640161079d565b600280558260005b81811015611d1a57611d0a868683818110611ce557611ce5613ead565b90506020020135858584818110611cfe57611cfe613ead565b90506020020135612e5a565b611d1381613fe7565b9050611cc8565b5050600160025550505050565b3373ffffffffffffffffffffffffffffffffffffffff86161480611d7b575073ffffffffffffffffffffffffffffffffffffffff8516600090815260076020908152604080832033845290915290205460ff165b611de1576040517f08c379a000000000000000000000000000000000000000000000000000000000815260206004820152600e60248201527f4e4f545f415554484f52495a4544000000000000000000000000000000000000604482015260640161079d565b73ffffffffffffffffffffffffffffffffffffffff8516600090815260066020908152604080832086845290915281208054849290611e21908490613f0b565b909155505073ffffffffffffffffffffffffffffffffffffffff8416600090815260066020908152604080832086845290915281208054849290611e66908490613f22565b9091555050604080518481526020810184905273ffffffffffffffffffffffffffffffffffffffff808716929088169133917fc3d58168c5ae7397731d063d5bbf3d657854427343f4c083240f7aacaa2d0f62910160405180910390a473ffffffffffffffffffffffffffffffffffffffff84163b15611fa7576040517ff23a6e61000000000000000000000000000000000000000000000000000000008082529073ffffffffffffffffffffffffffffffffffffffff86169063f23a6e6190611f3c9033908a90899089908990600401614195565b6020604051808303816000875af1158015611f5b573d6000803e3d6000fd5b505050506040513d601f19601f82011682018060405250810190611f7f9190613fca565b7fffffffff000000000000000000000000000000000000000000000000000000001614611fc1565b73ffffffffffffffffffffffffffffffffffffffff841615155b612027576040517f08c379a000000000000000000000000000000000000000000000000000000000815260206004820152601060248201527f554e534146455f524543495049454e5400000000000000000000000000000000604482015260640161079d565b5050505050565b60015460009073ffffffffffffffffffffffffffffffffffffffff16801580159061211257506040517fb700961300000000000000000000000000000000000000000000000000000000815273ffffffffffffffffffffffffffffffffffffffff85811660048301523060248301527fffffffff000000000000000000000000000000000000000000000000000000008516604483015282169063b700961390606401602060405180830381865afa1580156120ee573d6000803e3d6000fd5b505050506040513d601f19601f8201168201806040525081019061211291906140fd565b80612137575060005473ffffffffffffffffffffffffffffffffffffffff8581169116145b949350505050565b6040805173ffffffffffffffffffffffffffffffffffffffff8481166024830152604480830185905283518084039091018152606490920183526020820180517bffffffffffffffffffffffffffffffffffffffffffffffffffffffff167fa9059cbb0000000000000000000000000000000000000000000000000000000017905291516000928392908716916121d691906141e5565b6000604051808303816000865af19150503d8060008114612213576040519150601f19603f3d011682016040523d82523d6000602084013e612218565b606091505b509150915081801561224257508051158061224257508080602001905181019061224291906140fd565b612027576040517f08c379a000000000000000000000000000000000000000000000000000000000815260206004820152600f60248201527f5452414e534645525f4641494c45440000000000000000000000000000000000604482015260640161079d565b60608060008080806122bd6201518088614201565b905060006122ce8262010bd9614215565b6122db9062253d8c614215565b9050600062023ab16122ee836004614289565b6122f89190614345565b905060046123098262023ab1614289565b612314906003614215565b61231e9190614345565b61232890836143ad565b9150600062164b0961233b846001614215565b61234790610fa0614289565b6123519190614345565b90506004612361826105b5614289565b61236b9190614345565b61237590846143ad565b61238090601f614215565b9250600061098f612392856050614289565b61239c9190614345565b9050600060506123ae8361098f614289565b6123b89190614345565b6123c290866143ad565b90506123cf600b83614345565b94506123dc85600c614289565b6123e7836002614215565b6123f191906143ad565b915084836124006031876143ad565b61240b906064614289565b6124159190614215565b61241f9190614215565b9850909650945060009350612443925061243e91506064905086614421565b6130ce565b90506000600a841061245d57612458846130ce565b612486565b612466846130ce565b6040516020016124769190614435565b6040516020818303038152906040525b90506000600a84106124a05761249b846130ce565b6124c9565b6124a9846130ce565b6040516020016124b99190614435565b6040516020818303038152906040525b90508973ffffffffffffffffffffffffffffffffffffffff166306fdde036040518163ffffffff1660e01b8152600401600060405180830381865afa158015612516573d6000803e3d6000fd5b505050506040513d6000823e601f3d9081017fffffffffffffffffffffffffffffffffffffffffffffffffffffffffffffffe016820160405261255c919081019061447a565b81838560405160200161257294939291906144e8565b60405160208183030381529060405297508973ffffffffffffffffffffffffffffffffffffffff166395d89b416040518163ffffffff1660e01b8152600401600060405180830381865afa1580156125ce573d6000803e3d6000fd5b505050506040513d6000823e601f3d9081017fffffffffffffffffffffffffffffffffffffffffffffffffffffffffffffffe0168201604052612614919081019061447a565b81838560405160200161262a949392919061459d565b60405160208183030381529060405296505050505050509250929050565b600080807fffffffffffffffffffffffffffffffffffffffffffffffffffffffffffffffff85870985870292508281108382030391505080600014156126a0576000841161269557600080fd5b508290049050612714565b8084116126ac57600080fd5b600084868809851960019081018716968790049682860381900495909211909303600082900391909104909201919091029190911760038402600290811880860282030280860282030280860282030280860282030280860282030280860290910302029150505b9392505050565b6000806000807f000000000000000000000000000000000000000000000000000000000000000073ffffffffffffffffffffffffffffffffffffffff166352047942896040518263ffffffff1660e01b815260040161277c91815260200190565b602060405180830381865afa158015612799573d6000803e3d6000fd5b505050506040513d601f19601f820116820180604052508101906127bd919061404a565b73ffffffffffffffffffffffffffffffffffffffff1663acc5570c896040518263ffffffff1660e01b81526004016127f791815260200190565b60c060405180830381865afa158015612814573d6000803e3d6000fd5b505050506040513d601f19601f820116820180604052508101906128389190614067565b50509350935093509350600085886128509190613f0b565b6040517f70a0823100000000000000000000000000000000000000000000000000000000815230600482015290915060009073ffffffffffffffffffffffffffffffffffffffff8416906370a0823190602401602060405180830381865afa1580156128c0573d6000803e3d6000fd5b505050506040513d601f19601f820116820180604052508101906128e491906140e4565b905061290873ffffffffffffffffffffffffffffffffffffffff841633308c61322b565b6129128982613f22565b6040517f70a0823100000000000000000000000000000000000000000000000000000000815230600482015273ffffffffffffffffffffffffffffffffffffffff8516906370a0823190602401602060405180830381865afa15801561297c573d6000803e3d6000fd5b505050506040513d601f19601f820116820180604052508101906129a091906140e4565b10156129d8576040517fd354452400000000000000000000000000000000000000000000000000000000815260040160405180910390fd5b73ffffffffffffffffffffffffffffffffffffffff851615612c0f57612a1573ffffffffffffffffffffffffffffffffffffffff8416868461213f565b6040517f70a0823100000000000000000000000000000000000000000000000000000000815230600482015260009073ffffffffffffffffffffffffffffffffffffffff8616906370a0823190602401602060405180830381865afa158015612a82573d6000803e3d6000fd5b505050506040513d601f19601f82011682018060405250810190612aa691906140e4565b6040517f4b9de77c000000000000000000000000000000000000000000000000000000008152600481018d905260248101859052604481018b905290915073ffffffffffffffffffffffffffffffffffffffff871690634b9de77c90606401600060405180830381600087803b158015612b1f57600080fd5b505af1158015612b33573d6000803e3d6000fd5b505050508881612b439190613f22565b6040517f70a0823100000000000000000000000000000000000000000000000000000000815230600482015273ffffffffffffffffffffffffffffffffffffffff8716906370a0823190602401602060405180830381865afa158015612bad573d6000803e3d6000fd5b505050506040513d601f19601f82011682018060405250810190612bd191906140e4565b1015612c09576040517fe2a575ba00000000000000000000000000000000000000000000000000000000815260040160405180910390fd5b50612db7565b6040517f70a0823100000000000000000000000000000000000000000000000000000000815230600482015260009073ffffffffffffffffffffffffffffffffffffffff8616906370a0823190602401602060405180830381865afa158015612c7c573d6000803e3d6000fd5b505050506040513d601f19601f82011682018060405250810190612ca091906140e4565b9050612cc473ffffffffffffffffffffffffffffffffffffffff861688308c61322b565b612cce8982613f22565b6040517f70a0823100000000000000000000000000000000000000000000000000000000815230600482015273ffffffffffffffffffffffffffffffffffffffff8716906370a0823190602401602060405180830381865afa158015612d38573d6000803e3d6000fd5b505050506040513d601f19601f82011682018060405250810190612d5c91906140e4565b1015612d94576040517fd354452400000000000000000000000000000000000000000000000000000000815260040160405180910390fd5b612db573ffffffffffffffffffffffffffffffffffffffff8516888561213f565b505b50505050505050505050565b600065ffffffffffff821615612e39576201518080612de24285614020565b612dec9190614149565b612df69190614623565b90506000612e048483611549565b60008181526008602052604090205490915060ff16612e2857612e28818584612f97565b612e33868287612f51565b50612137565b61213773ffffffffffffffffffffffffffffffffffffffff8416868661213f565b6000828152600860209081526040918290208251608081018452815460ff811615158252610100810473ffffffffffffffffffffffffffffffffffffffff1693820193909352750100000000000000000000000000000000000000000090920465ffffffffffff1692820183905260010154606082015290421015612f1b5760408082015190517f4fb1e97300000000000000000000000000000000000000000000000000000000815265ffffffffffff909116600482015260240161079d565b612f263384846133a4565b6020810151612f4c9073ffffffffffffffffffffffffffffffffffffffff16338461213f565b505050565b612f6c838383604051806020016040528060008152506133d0565b60008281526008602052604081206001018054839290612f8d908490613f22565b9091555050505050565b60408051608081018252600180825273ffffffffffffffffffffffffffffffffffffffff858116602080850182815265ffffffffffff888116878901818152600060608a018181528e825260088752908b902099518a54955192517fffffffffffffffffffffff0000000000000000000000000000000000000000009096169015157fffffffffffffffffffffff0000000000000000000000000000000000000000ff16176101009290981691909102969096177fffffffffff000000000000ffffffffffffffffffffffffffffffffffffffffff16750100000000000000000000000000000000000000000093909216929092021786559251949093019390935592518681527fd5a20d99fad8d4fec2eae3eb7d21c0bebeaecce7cf87b698ddba05071e7bde27910160405180910390a3505050565b60608161310e57505060408051808201909152600181527f3000000000000000000000000000000000000000000000000000000000000000602082015290565b8160005b8115613138578061312281613fe7565b91506131319050600a83614201565b9150613112565b60008167ffffffffffffffff8111156131535761315361376a565b6040519080825280601f01601f19166020018201604052801561317d576020820181803683370190505b509050815b851561322257613193600182613f0b565b905060006131a2600a88614201565b6131ad90600a614651565b6131b79088613f0b565b6131c290603061468e565b905060008160f81b9050808484815181106131df576131df613ead565b60200101907effffffffffffffffffffffffffffffffffffffffffffffffffffffffffffff1916908160001a905350613219600a89614201565b97505050613182565b50949350505050565b6040805173ffffffffffffffffffffffffffffffffffffffff85811660248301528481166044830152606480830185905283518084039091018152608490920183526020820180517bffffffffffffffffffffffffffffffffffffffffffffffffffffffff167f23b872dd0000000000000000000000000000000000000000000000000000000017905291516000928392908816916132ca91906141e5565b6000604051808303816000865af19150503d8060008114613307576040519150601f19603f3d011682016040523d82523d6000602084013e61330c565b606091505b509150915081801561333657508051158061333657508080602001905181019061333691906140fd565b61339c576040517f08c379a000000000000000000000000000000000000000000000000000000000815260206004820152601460248201527f5452414e534645525f46524f4d5f4641494c4544000000000000000000000000604482015260640161079d565b505050505050565b6133af8383836135d0565b60008281526008602052604081206001018054839290612f8d908490613f0b565b73ffffffffffffffffffffffffffffffffffffffff8416600090815260066020908152604080832086845290915281208054849290613410908490613f22565b9091555050604080518481526020810184905273ffffffffffffffffffffffffffffffffffffffff86169160009133917fc3d58168c5ae7397731d063d5bbf3d657854427343f4c083240f7aacaa2d0f62910160405180910390a473ffffffffffffffffffffffffffffffffffffffff84163b15613550576040517ff23a6e61000000000000000000000000000000000000000000000000000000008082529073ffffffffffffffffffffffffffffffffffffffff86169063f23a6e61906134e5903390600090899089908990600401614195565b6020604051808303816000875af1158015613504573d6000803e3d6000fd5b505050506040513d601f19601f820116820180604052508101906135289190613fca565b7fffffffff00000000000000000000000000000000000000000000000000000000161461356a565b73ffffffffffffffffffffffffffffffffffffffff841615155b610ca2576040517f08c379a000000000000000000000000000000000000000000000000000000000815260206004820152601060248201527f554e534146455f524543495049454e5400000000000000000000000000000000604482015260640161079d565b73ffffffffffffffffffffffffffffffffffffffff8316600090815260066020908152604080832085845290915281208054839290613610908490613f0b565b9091555050604080518381526020810183905260009173ffffffffffffffffffffffffffffffffffffffff86169133917fc3d58168c5ae7397731d063d5bbf3d657854427343f4c083240f7aacaa2d0f62910160405180910390a4505050565b73ffffffffffffffffffffffffffffffffffffffff8116811461369257600080fd5b50565b80356136a081613670565b919050565b600080604083850312156136b857600080fd5b82356136c381613670565b946020939093013593505050565b7fffffffff000000000000000000000000000000000000000000000000000000008116811461369257600080fd5b60006020828403121561371157600080fd5b8135612714816136d1565b65ffffffffffff8116811461369257600080fd5b60006020828403121561374257600080fd5b81356127148161371c565b60006020828403121561375f57600080fd5b813561271481613670565b7f4e487b7100000000000000000000000000000000000000000000000000000000600052604160045260246000fd5b604051601f82017fffffffffffffffffffffffffffffffffffffffffffffffffffffffffffffffe016810167ffffffffffffffff811182821017156137e0576137e061376a565b604052919050565b600067ffffffffffffffff8211156138025761380261376a565b5060051b60200190565b600082601f83011261381d57600080fd5b8135602061383261382d836137e8565b613799565b82815260059290921b8401810191818101908684111561385157600080fd5b8286015b8481101561386c5780358352918301918301613855565b509695505050505050565b600067ffffffffffffffff8211156138915761389161376a565b50601f017fffffffffffffffffffffffffffffffffffffffffffffffffffffffffffffffe01660200190565b600082601f8301126138ce57600080fd5b81356138dc61382d82613877565b8181528460208386010111156138f157600080fd5b816020850160208301376000918101602001919091529392505050565b600080600080600060a0868803121561392657600080fd5b853561393181613670565b9450602086013561394181613670565b9350604086013567ffffffffffffffff8082111561395e57600080fd5b61396a89838a0161380c565b9450606088013591508082111561398057600080fd5b61398c89838a0161380c565b935060808801359150808211156139a257600080fd5b506139af888289016138bd565b9150509295509295909350565b600080604083850312156139cf57600080fd5b823567ffffffffffffffff8111156139e657600080fd5b8301601f810185136139f757600080fd5b80356020613a0761382d836137e8565b82815260059290921b83018101918181019088841115613a2657600080fd5b938201935b83851015613a4d578435613a3e81613670565b82529382019390820190613a2b565b9550613a5c9050868201613695565b93505050509250929050565b600060208284031215613a7a57600080fd5b5035919050565b60005b83811015613a9c578181015183820152602001613a84565b83811115610ca25750506000910152565b60008151808452613ac5816020860160208601613a81565b601f017fffffffffffffffffffffffffffffffffffffffffffffffffffffffffffffffe0169290920160200192915050565b604081526000613b0a6040830185613aad565b8281036020840152613b1c8185613aad565b95945050505050565b60008060408385031215613b3857600080fd5b823567ffffffffffffffff80821115613b5057600080fd5b818501915085601f830112613b6457600080fd5b81356020613b7461382d836137e8565b82815260059290921b84018101918181019089841115613b9357600080fd5b948201945b83861015613bba578535613bab81613670565b82529482019490820190613b98565b96505086013592505080821115613bd057600080fd5b50613bdd8582860161380c565b9150509250929050565b600081518084526020808501945080840160005b83811015613c1757815187529582019590820190600101613bfb565b509495945050505050565b6020815260006127146020830184613be7565b600080600080600060a08688031215613c4d57600080fd5b8535613c5881613670565b94506020860135613c6881613670565b94979496505050506040830135926060810135926080909101359150565b60008060408385031215613c9957600080fd5b50508035926020909101359150565b60008060408385031215613cbb57600080fd5b8235613cc681613670565b91506020830135613cd68161371c565b809150509250929050565b801515811461369257600080fd5b60008060408385031215613d0257600080fd5b8235613d0d81613670565b91506020830135613cd681613ce1565b600080600060608486031215613d3257600080fd5b8335613d3d81613670565b92506020840135613d4d8161371c565b929592945050506040919091013590565b60008060408385031215613d7157600080fd5b8235613d7c81613670565b91506020830135613cd681613670565b60008083601f840112613d9e57600080fd5b50813567ffffffffffffffff811115613db657600080fd5b6020830191508360208260051b8501011115613dd157600080fd5b9250929050565b60008060008060408587031215613dee57600080fd5b843567ffffffffffffffff80821115613e0657600080fd5b613e1288838901613d8c565b90965094506020870135915080821115613e2b57600080fd5b50613e3887828801613d8c565b95989497509550505050565b600080600080600060a08688031215613e5c57600080fd5b8535613e6781613670565b94506020860135613e7781613670565b93506040860135925060608601359150608086013567ffffffffffffffff811115613ea157600080fd5b6139af888289016138bd565b7f4e487b7100000000000000000000000000000000000000000000000000000000600052603260045260246000fd5b7f4e487b7100000000000000000000000000000000000000000000000000000000600052601160045260246000fd5b600082821015613f1d57613f1d613edc565b500390565b60008219821115613f3557613f35613edc565b500190565b604081526000613f4d6040830185613be7565b8281036020840152613b1c8185613be7565b600073ffffffffffffffffffffffffffffffffffffffff808816835280871660208401525060a06040830152613f9860a0830186613be7565b8281036060840152613faa8186613be7565b90508281036080840152613fbe8185613aad565b98975050505050505050565b600060208284031215613fdc57600080fd5b8151612714816136d1565b60007fffffffffffffffffffffffffffffffffffffffffffffffffffffffffffffffff82141561401957614019613edc565b5060010190565b600065ffffffffffff80831681851680830382111561404157614041613edc565b01949350505050565b60006020828403121561405c57600080fd5b815161271481613670565b60008060008060008060c0878903121561408057600080fd5b865161408b81613670565b602088015190965061409c81613670565b60408801519095506140ad81613670565b60608801519094506140be81613670565b60808801519093506140cf8161371c565b8092505060a087015190509295509295509295565b6000602082840312156140f657600080fd5b5051919050565b60006020828403121561410f57600080fd5b815161271481613ce1565b7f4e487b7100000000000000000000000000000000000000000000000000000000600052601260045260246000fd5b600065ffffffffffff808416806141625761416261411a565b92169190910492915050565b600065ffffffffffff8381169083168181101561418d5761418d613edc565b039392505050565b600073ffffffffffffffffffffffffffffffffffffffff808816835280871660208401525084604083015283606083015260a060808301526141da60a0830184613aad565b979650505050505050565b600082516141f7818460208701613a81565b9190910192915050565b6000826142105761421061411a565b500490565b6000808212827f7fffffffffffffffffffffffffffffffffffffffffffffffffffffffffffffff0384138115161561424f5761424f613edc565b827f800000000000000000000000000000000000000000000000000000000000000003841281161561428357614283613edc565b50500190565b60007f7fffffffffffffffffffffffffffffffffffffffffffffffffffffffffffffff6000841360008413858304851182821616156142ca576142ca613edc565b7f8000000000000000000000000000000000000000000000000000000000000000600087128682058812818416161561430557614305613edc565b6000871292508782058712848416161561432157614321613edc565b8785058712818416161561433757614337613edc565b505050929093029392505050565b6000826143545761435461411a565b7fffffffffffffffffffffffffffffffffffffffffffffffffffffffffffffffff83147f8000000000000000000000000000000000000000000000000000000000000000831416156143a8576143a8613edc565b500590565b6000808312837f8000000000000000000000000000000000000000000000000000000000000000018312811516156143e7576143e7613edc565b837f7fffffffffffffffffffffffffffffffffffffffffffffffffffffffffffffff01831381161561441b5761441b613edc565b50500390565b6000826144305761443061411a565b500690565b7f300000000000000000000000000000000000000000000000000000000000000081526000825161446d816001850160208701613a81565b9190910160010192915050565b60006020828403121561448c57600080fd5b815167ffffffffffffffff8111156144a357600080fd5b8201601f810184136144b457600080fd5b80516144c261382d82613877565b8181528560208385010111156144d757600080fd5b613b1c826020830160208601613a81565b600085516144fa818460208a01613a81565b7f20000000000000000000000000000000000000000000000000000000000000009083019081528551614534816001840160208a01613a81565b8082019150507f2d000000000000000000000000000000000000000000000000000000000000008060018301528551614574816002850160208a01613a81565b6002920191820152835161458f816003840160208801613a81565b016003019695505050505050565b600085516145af818460208a01613a81565b7f2d0000000000000000000000000000000000000000000000000000000000000090830190815285516145e9816001840160208a01613a81565b85519101906145ff816001840160208901613a81565b8451910190614615816001840160208801613a81565b016001019695505050505050565b600065ffffffffffff8083168185168183048111821515161561464857614648613edc565b02949350505050565b6000817fffffffffffffffffffffffffffffffffffffffffffffffffffffffffffffffff048311821515161561468957614689613edc565b500290565b600060ff821660ff84168060ff038211156146ab576146ab613edc565b01939250505056fea26469706673582212206919e1e376be11847d91897cb7f85ae16b4a3869d880c3d589ed440bd5ab4ff164736f6c634300080a0033",
    "linkReferences": {}
  }
}